{
  "contractName": "ArtistEditionControls",
  "abi": [
    {
      "inputs": [
        {
          "internalType": "contract ILFO",
          "name": "_iLFOAddress",
          "type": "address"
        }
      ],
      "stateMutability": "nonpayable",
      "type": "constructor"
    },
    {
      "anonymous": false,
      "inputs": [
        {
          "indexed": true,
          "internalType": "uint256",
          "name": "_editionNumber",
          "type": "uint256"
        }
      ],
      "name": "EditionDeactivated",
      "type": "event"
    },
    {
      "anonymous": false,
      "inputs": [
        {
          "indexed": true,
          "internalType": "uint256",
          "name": "_editionNumber",
          "type": "uint256"
        },
        {
          "indexed": true,
          "internalType": "address",
          "name": "_artist",
          "type": "address"
        },
        {
          "indexed": true,
          "internalType": "uint256",
          "name": "_tokenId",
          "type": "uint256"
        }
      ],
      "name": "EditionGifted",
      "type": "event"
    },
    {
      "anonymous": false,
      "inputs": [
        {
          "indexed": false,
          "internalType": "address",
          "name": "account",
          "type": "address"
        }
      ],
      "name": "Paused",
      "type": "event"
    },
    {
      "anonymous": false,
      "inputs": [
        {
          "indexed": true,
          "internalType": "uint256",
          "name": "_editionNumber",
          "type": "uint256"
        },
        {
          "indexed": true,
          "internalType": "address",
          "name": "_artist",
          "type": "address"
        },
        {
          "indexed": false,
          "internalType": "uint256",
          "name": "_priceInWei",
          "type": "uint256"
        }
      ],
      "name": "PriceChanged",
      "type": "event"
    },
    {
      "anonymous": false,
      "inputs": [
        {
          "indexed": true,
          "internalType": "bytes32",
          "name": "role",
          "type": "bytes32"
        },
        {
          "indexed": true,
          "internalType": "bytes32",
          "name": "previousAdminRole",
          "type": "bytes32"
        },
        {
          "indexed": true,
          "internalType": "bytes32",
          "name": "newAdminRole",
          "type": "bytes32"
        }
      ],
      "name": "RoleAdminChanged",
      "type": "event"
    },
    {
      "anonymous": false,
      "inputs": [
        {
          "indexed": true,
          "internalType": "bytes32",
          "name": "role",
          "type": "bytes32"
        },
        {
          "indexed": true,
          "internalType": "address",
          "name": "account",
          "type": "address"
        },
        {
          "indexed": true,
          "internalType": "address",
          "name": "sender",
          "type": "address"
        }
      ],
      "name": "RoleGranted",
      "type": "event"
    },
    {
      "anonymous": false,
      "inputs": [
        {
          "indexed": true,
          "internalType": "bytes32",
          "name": "role",
          "type": "bytes32"
        },
        {
          "indexed": true,
          "internalType": "address",
          "name": "account",
          "type": "address"
        },
        {
          "indexed": true,
          "internalType": "address",
          "name": "sender",
          "type": "address"
        }
      ],
      "name": "RoleRevoked",
      "type": "event"
    },
    {
      "anonymous": false,
      "inputs": [
        {
          "indexed": false,
          "internalType": "address",
          "name": "account",
          "type": "address"
        }
      ],
      "name": "Unpaused",
      "type": "event"
    },
    {
      "inputs": [],
      "name": "DEFAULT_ADMIN_ROLE",
      "outputs": [
        {
          "internalType": "bytes32",
          "name": "",
          "type": "bytes32"
        }
      ],
      "stateMutability": "view",
      "type": "function",
      "constant": true
    },
    {
      "inputs": [],
      "name": "WHITELISTED",
      "outputs": [
        {
          "internalType": "bytes32",
          "name": "",
          "type": "bytes32"
        }
      ],
      "stateMutability": "view",
      "type": "function",
      "constant": true
    },
    {
      "inputs": [],
      "name": "deactivationPaused",
      "outputs": [
        {
          "internalType": "bool",
          "name": "",
          "type": "bool"
        }
      ],
      "stateMutability": "view",
      "type": "function",
      "constant": true
    },
    {
      "inputs": [
        {
          "internalType": "bytes32",
          "name": "role",
          "type": "bytes32"
        }
      ],
      "name": "getRoleAdmin",
      "outputs": [
        {
          "internalType": "bytes32",
          "name": "",
          "type": "bytes32"
        }
      ],
      "stateMutability": "view",
      "type": "function",
      "constant": true
    },
    {
      "inputs": [
        {
          "internalType": "bytes32",
          "name": "role",
          "type": "bytes32"
        },
        {
          "internalType": "uint256",
          "name": "index",
          "type": "uint256"
        }
      ],
      "name": "getRoleMember",
      "outputs": [
        {
          "internalType": "address",
          "name": "",
          "type": "address"
        }
      ],
      "stateMutability": "view",
      "type": "function",
      "constant": true
    },
    {
      "inputs": [
        {
          "internalType": "bytes32",
          "name": "role",
          "type": "bytes32"
        }
      ],
      "name": "getRoleMemberCount",
      "outputs": [
        {
          "internalType": "uint256",
          "name": "",
          "type": "uint256"
        }
      ],
      "stateMutability": "view",
      "type": "function",
      "constant": true
    },
    {
      "inputs": [
        {
          "internalType": "bytes32",
          "name": "role",
          "type": "bytes32"
        },
        {
          "internalType": "address",
          "name": "account",
          "type": "address"
        }
      ],
      "name": "grantRole",
      "outputs": [],
      "stateMutability": "nonpayable",
      "type": "function"
    },
    {
      "inputs": [
        {
          "internalType": "bytes32",
          "name": "role",
          "type": "bytes32"
        },
        {
          "internalType": "address",
          "name": "account",
          "type": "address"
        }
      ],
      "name": "hasRole",
      "outputs": [
        {
          "internalType": "bool",
          "name": "",
          "type": "bool"
        }
      ],
      "stateMutability": "view",
      "type": "function",
      "constant": true
    },
    {
      "inputs": [],
      "name": "iLFOAddress",
      "outputs": [
        {
          "internalType": "contract ILFO",
          "name": "",
          "type": "address"
        }
      ],
      "stateMutability": "view",
      "type": "function",
      "constant": true
    },
    {
      "inputs": [],
      "name": "paused",
      "outputs": [
        {
          "internalType": "bool",
          "name": "",
          "type": "bool"
        }
      ],
      "stateMutability": "view",
      "type": "function",
      "constant": true
    },
    {
      "inputs": [
        {
          "internalType": "bytes32",
          "name": "role",
          "type": "bytes32"
        },
        {
          "internalType": "address",
          "name": "account",
          "type": "address"
        }
      ],
      "name": "renounceRole",
      "outputs": [],
      "stateMutability": "nonpayable",
      "type": "function"
    },
    {
      "inputs": [
        {
          "internalType": "bytes32",
          "name": "role",
          "type": "bytes32"
        },
        {
          "internalType": "address",
          "name": "account",
          "type": "address"
        }
      ],
      "name": "revokeRole",
      "outputs": [],
      "stateMutability": "nonpayable",
      "type": "function"
    },
    {
      "inputs": [
        {
          "internalType": "address",
          "name": "_receivingAddress",
          "type": "address"
        },
        {
          "internalType": "uint256",
          "name": "_editionNumber",
          "type": "uint256"
        }
      ],
      "name": "gift",
      "outputs": [
        {
          "internalType": "uint256",
          "name": "",
          "type": "uint256"
        }
      ],
      "stateMutability": "nonpayable",
      "type": "function"
    },
    {
      "inputs": [
        {
          "internalType": "uint256",
          "name": "_editionNumber",
          "type": "uint256"
        },
        {
          "internalType": "uint256",
          "name": "_priceInWei",
          "type": "uint256"
        }
      ],
      "name": "updateEditionPrice",
      "outputs": [
        {
          "internalType": "bool",
          "name": "",
          "type": "bool"
        }
      ],
      "stateMutability": "nonpayable",
      "type": "function"
    },
    {
      "inputs": [
        {
          "internalType": "uint256",
          "name": "_editionNumber",
          "type": "uint256"
        }
      ],
      "name": "deactivateEdition",
      "outputs": [
        {
          "internalType": "bool",
          "name": "",
          "type": "bool"
        }
      ],
      "stateMutability": "nonpayable",
      "type": "function"
    },
    {
      "inputs": [
        {
          "internalType": "contract ILFO",
          "name": "_iLFOAddress",
          "type": "address"
        }
      ],
      "name": "setLFO",
      "outputs": [],
      "stateMutability": "nonpayable",
      "type": "function"
    },
    {
      "inputs": [],
      "name": "pauseDeactivation",
      "outputs": [],
      "stateMutability": "nonpayable",
      "type": "function"
    },
    {
      "inputs": [],
      "name": "enablesDeactivation",
      "outputs": [],
      "stateMutability": "nonpayable",
      "type": "function"
    }
  ],
  "bytecode": "0x60806040526001805460ff60a81b191690553480156200001e57600080fd5b506040516200133238038062001332833981810160405260208110156200004457600080fd5b5051600180546001600160a81b0319166101006001600160a01b0384160217905562000072600033620000a5565b6200009e7fe799c73ff785ac053943f5d98452f7fa0bcf54da67826fc217d6094dec75c5ee33620000a5565b50620001b9565b620000b18282620000b5565b5050565b600082815260208181526040909120620000da91839062000d836200012e821b17901c565b15620000b157620000ea6200014e565b6001600160a01b0316816001600160a01b0316837f2f8788117e7eff1d82e926ec794901d17c78024a50270940304540a733656f0d60405160405180910390a45050565b600062000145836001600160a01b03841662000152565b90505b92915050565b3390565b6000620001608383620001a1565b620001985750815460018181018455600084815260208082209093018490558454848252828601909352604090209190915562000148565b50600062000148565b60009081526001919091016020526040902054151590565b61116980620001c96000396000f3fe608060405234801561001057600080fd5b50600436106101165760003560e01c806391d14854116100a2578063ca15c87311610071578063ca15c8731461029c578063cbce4c97146102b9578063d547741f146102e5578063ee40f3ef14610311578063f00d05e91461031957610116565b806391d148541461023d5780639e0fd99814610269578063a217fddf1461028c578063a604b7dd1461029457610116565b806336568abe116100e957806336568abe146101885780635c975abb146101b45780636c056b43146101d0578063831f4f50146101f65780639010d07c1461021a57610116565b80630b71f1161461011b57806313c7f2ee14610135578063248a9ca31461013f5780632f2ff15d1461015c575b600080fd5b610123610336565b60408051918252519081900360200190f35b61013d610348565b005b6101236004803603602081101561015557600080fd5b5035610378565b61013d6004803603604081101561017257600080fd5b50803590602001356001600160a01b031661038d565b61013d6004803603604081101561019e57600080fd5b50803590602001356001600160a01b03166103f9565b6101bc61045a565b604080519115158252519081900360200190f35b61013d600480360360208110156101e657600080fd5b50356001600160a01b0316610463565b6101fe6104ac565b604080516001600160a01b039092168252519081900360200190f35b6101fe6004803603604081101561023057600080fd5b50803590602001356104c0565b6101bc6004803603604081101561025357600080fd5b50803590602001356001600160a01b03166104e1565b6101bc6004803603604081101561027f57600080fd5b50803590602001356104f9565b6101236106e1565b61013d6106e6565b610123600480360360208110156102b257600080fd5b503561071c565b610123600480360360408110156102cf57600080fd5b506001600160a01b038135169060200135610733565b61013d600480360360408110156102fb57600080fd5b50803590602001356001600160a01b0316610a60565b6101bc610ab9565b6101bc6004803603602081101561032f57600080fd5b5035610ac9565b6000805160206110e583398151915281565b6103606000805160206110e5833981519152336104e1565b61036957600080fd5b6001805460ff60a81b19169055565b60009081526020819052604090206002015490565b6000828152602081905260409020600201546103b0906103ab610d98565b6104e1565b6103eb5760405162461bcd60e51b815260040180806020018281038252602f815260200180611062602f913960400191505060405180910390fd5b6103f58282610d9c565b5050565b610401610d98565b6001600160a01b0316816001600160a01b0316146104505760405162461bcd60e51b815260040180806020018281038252602f815260200180611105602f913960400191505060405180910390fd5b6103f58282610e05565b60015460ff1690565b61047b6000805160206110e5833981519152336104e1565b61048457600080fd5b600180546001600160a01b0390921661010002610100600160a81b0319909216919091179055565b60015461010090046001600160a01b031681565b60008281526020819052604081206104d89083610e6e565b90505b92915050565b60008281526020819052604081206104d89083610e7a565b60015460009060ff1615610547576040805162461bcd60e51b815260206004820152601060248201526f14185d5cd8589b194e881c185d5cd95960821b604482015290519081900360640190fd5b6001546040805163065fb08f60e31b815260048101869052815160009361010090046001600160a01b0316926332fd84789260248082019391829003018186803b15801561059457600080fd5b505afa1580156105a8573d6000803e3d6000fd5b505050506040513d60408110156105be57600080fd5b50519050336001600160a01b03821614806105ec57506105ec6000805160206110e5833981519152336104e1565b6106275760405162461bcd60e51b81526004018080602001828103825260248152602001806110916024913960400191505060405180910390fd5b60018054906101000a90046001600160a01b03166001600160a01b0316637eb9f04a85856040518363ffffffff1660e01b81526004018083815260200182815260200192505050600060405180830381600087803b15801561068857600080fd5b505af115801561069c573d6000803e3d6000fd5b50506040805186815290513393508792507f7b9e70728348c5a660506950e5eeb19dee00e0a53e8ce602353738185a8cd3729181900360200190a35060019392505050565b600081565b6106fe6000805160206110e5833981519152336104e1565b61070757600080fd5b6001805460ff60a81b1916600160a81b179055565b60008181526020819052604081206104db90610e8f565b60015460009060ff1615610781576040805162461bcd60e51b815260206004820152601060248201526f14185d5cd8589b194e881c185d5cd95960821b604482015290519081900360640190fd5b6001600160a01b0383166107dc576040805162461bcd60e51b815260206004820152601e60248201527f556e61626c6520746f2073656e6420746f207a65726f20616464726573730000604482015290519081900360640190fd5b6001546040805163065fb08f60e31b815260048101859052815160009361010090046001600160a01b0316926332fd84789260248082019391829003018186803b15801561082957600080fd5b505afa15801561083d573d6000803e3d6000fd5b505050506040513d604081101561085357600080fd5b50519050336001600160a01b038216148061088157506108816000805160206110e5833981519152336104e1565b6108bc5760405162461bcd60e51b81526004018080602001828103825260248152602001806110916024913960400191505060405180910390fd5b60015460408051632ef4787f60e21b815260048101869052905160009261010090046001600160a01b03169163bbd1e1fc916024808301926020929190829003018186803b15801561090d57600080fd5b505afa158015610921573d6000803e3d6000fd5b505050506040513d602081101561093757600080fd5b505190508061098d576040805162461bcd60e51b815260206004820152601b60248201527f4f6e6c79207768656e2065646974696f6e206973206163746976650000000000604482015290519081900360640190fd5b600060018054906101000a90046001600160a01b03166001600160a01b03166340c10f1987876040518363ffffffff1660e01b815260040180836001600160a01b0316815260200182815260200192505050602060405180830381600087803b1580156109f957600080fd5b505af1158015610a0d573d6000803e3d6000fd5b505050506040513d6020811015610a2357600080fd5b50516040519091508190339087907f77c159b62cf9bb44a58d77815fbbb0c7d28272bbb6459f92f90a0cd41aadab0390600090a495945050505050565b600082815260208190526040902060020154610a7e906103ab610d98565b6104505760405162461bcd60e51b81526004018080602001828103825260308152602001806110b56030913960400191505060405180910390fd5b600154600160a81b900460ff1681565b60015460009060ff1615610b17576040805162461bcd60e51b815260206004820152601060248201526f14185d5cd8589b194e881c185d5cd95960821b604482015290519081900360640190fd5b600154600160a81b900460ff1615610b2e57600080fd5b6001546040805163065fb08f60e31b815260048101859052815160009361010090046001600160a01b0316926332fd84789260248082019391829003018186803b158015610b7b57600080fd5b505afa158015610b8f573d6000803e3d6000fd5b505050506040513d6040811015610ba557600080fd5b50519050336001600160a01b0382161480610bd35750610bd36000805160206110e5833981519152336104e1565b610c0e5760405162461bcd60e51b81526004018080602001828103825260248152602001806110916024913960400191505060405180910390fd5b60015460408051632ef4787f60e21b815260048101869052905160009261010090046001600160a01b03169163bbd1e1fc916024808301926020929190829003018186803b158015610c5f57600080fd5b505afa158015610c73573d6000803e3d6000fd5b505050506040513d6020811015610c8957600080fd5b5051905080610cdf576040805162461bcd60e51b815260206004820152601b60248201527f4f6e6c79207768656e2065646974696f6e206973206163746976650000000000604482015290519081900360640190fd5b600154604080516304bb1e3d60e01b81526004810187905260006024820181905291516101009093046001600160a01b0316926304bb1e3d9260448084019391929182900301818387803b158015610d3657600080fd5b505af1158015610d4a573d6000803e3d6000fd5b50506040518692507f348df167e29ec37668ed9a0fc6ab683a2ccb42aea11f5a58732e0614674b12989150600090a25060019392505050565b60006104d8836001600160a01b038416610e9a565b3390565b6000828152602081905260409020610db49082610d83565b156103f557610dc1610d98565b6001600160a01b0316816001600160a01b0316837f2f8788117e7eff1d82e926ec794901d17c78024a50270940304540a733656f0d60405160405180910390a45050565b6000828152602081905260409020610e1d9082610ee4565b156103f557610e2a610d98565b6001600160a01b0316816001600160a01b0316837ff6391f5c32d9c69d2a47ea670b442974b53935d1edc7fd64eb21e047a839171b60405160405180910390a45050565b60006104d88383610ef9565b60006104d8836001600160a01b038416610f5d565b60006104db82610f75565b6000610ea68383610f5d565b610edc575081546001818101845560008481526020808220909301849055845484825282860190935260409020919091556104db565b5060006104db565b60006104d8836001600160a01b038416610f79565b81546000908210610f3b5760405162461bcd60e51b81526004018080602001828103825260228152602001806110406022913960400191505060405180910390fd5b826000018281548110610f4a57fe5b9060005260206000200154905092915050565b60009081526001919091016020526040902054151590565b5490565b600081815260018301602052604081205480156110355783546000198083019190810190600090879083908110610fac57fe5b9060005260206000200154905080876000018481548110610fc957fe5b600091825260208083209091019290925582815260018981019092526040902090840190558654879080610ff957fe5b600190038181906000526020600020016000905590558660010160008781526020019081526020016000206000905560019450505050506104db565b60009150506104db56fe456e756d657261626c655365743a20696e646578206f7574206f6620626f756e6473416363657373436f6e74726f6c3a2073656e646572206d75737420626520616e2061646d696e20746f206772616e744f6e6c792066726f6d207468652065646974696f6e20617274697374206163636f756e74416363657373436f6e74726f6c3a2073656e646572206d75737420626520616e2061646d696e20746f207265766f6b65e799c73ff785ac053943f5d98452f7fa0bcf54da67826fc217d6094dec75c5ee416363657373436f6e74726f6c3a2063616e206f6e6c792072656e6f756e636520726f6c657320666f722073656c66a264697066735822122034be752bdf082de2fe855bead1805b826ee94a437413b3aef842976db3ab99b364736f6c634300060c0033",
  "immutableReferences": {},
  "source": "// SPDX-License-Identifier: MIT\r\n\r\npragma solidity ^0.6.0;\r\n\r\n\r\nimport \"@openzeppelin/contracts/utils/Pausable.sol\";\r\nimport \"@openzeppelin/contracts/math/SafeMath.sol\";\r\nimport \"../interfaces/ILFO.sol\";\r\nimport \"@openzeppelin/contracts/access/AccessControl.sol\";\r\n\r\n\r\n/**\r\n* @title Artists self minting for LongboardFamara\r\n*\r\n* Allows for the edition artists to mint their own assets and control the price of an edition\r\n*\r\n*/\r\n\r\ncontract ArtistEditionControls is AccessControl, Pausable {\r\n  using SafeMath for uint256;\r\n\r\n  // Interface into the LFO world\r\n  ILFO public iLFOAddress;\r\n\r\n  event PriceChanged(\r\n    uint256 indexed _editionNumber,\r\n    address indexed _artist,\r\n    uint256 _priceInWei\r\n  );\r\n\r\n  event EditionGifted(\r\n    uint256 indexed _editionNumber,\r\n    address indexed _artist,\r\n    uint256 indexed _tokenId\r\n  );\r\n\r\n  event EditionDeactivated(\r\n    uint256 indexed _editionNumber\r\n  );\r\n\r\n  bool public deactivationPaused = false;\r\n\r\n    //ROLES\r\n    bytes32 public constant WHITELISTED = keccak256(\"WHITELISTED\");\r\n\r\n\r\n  modifier whenDeactivationNotPaused() {\r\n    require(!deactivationPaused);\r\n    _;\r\n  }\r\n\r\nmodifier onlyWhitelisted {\r\n        require(hasRole(WHITELISTED, msg.sender));\r\n        _;\r\n    }\r\n\r\n\r\n  constructor(ILFO _iLFOAddress) public {\r\n    iLFOAddress = _iLFOAddress;\r\n    _setupRole(DEFAULT_ADMIN_ROLE, msg.sender);\r\n    _setupRole(WHITELISTED, msg.sender);\r\n\r\n  }\r\n\r\n  /**\r\n   * @dev Ability to gift new NFTs to an address, from a LFO edition\r\n   * @dev Only callable from edition artists defined in LFO NFT contract\r\n   * @dev Only callable when contract is not paused\r\n   * @dev Reverts if edition is invalid\r\n   * @dev Reverts if edition is not active in LFO NFT contract\r\n   */\r\n  function gift(address _receivingAddress, uint256 _editionNumber)\r\n  external\r\n  whenNotPaused\r\n  returns (uint256)\r\n  {\r\n    require(_receivingAddress != address(0), \"Unable to send to zero address\");\r\n\r\n    (address artistAccount, ) = iLFOAddress.artistCommission(_editionNumber);\r\n\r\n    require(msg.sender == artistAccount || hasRole(WHITELISTED, msg.sender), \"Only from the edition artist account\");\r\n\r\n    bool isActive = iLFOAddress.editionActive(_editionNumber);\r\n    require(isActive, \"Only when edition is active\");\r\n\r\n    uint256 tokenId = iLFOAddress.mint(_receivingAddress, _editionNumber);\r\n\r\n    emit EditionGifted(_editionNumber, msg.sender, tokenId);\r\n\r\n    return tokenId;\r\n  }\r\n\r\n  /**\r\n   * @dev Sets the price of the provided edition in the WEI\r\n   * @dev Only callable from edition artists defined in LFO NFT contract\r\n   * @dev Only callable when contract is not paused\r\n   * @dev Reverts if edition is invalid\r\n   */\r\n  function updateEditionPrice(uint256 _editionNumber, uint256 _priceInWei)\r\n  external\r\n  whenNotPaused\r\n  returns (bool)\r\n  {\r\n    (address artistAccount, ) = iLFOAddress.artistCommission(_editionNumber);\r\n    require(msg.sender == artistAccount || hasRole(WHITELISTED, msg.sender), \"Only from the edition artist account\");\r\n\r\n    iLFOAddress.updatePriceInWei(_editionNumber, _priceInWei);\r\n\r\n    emit PriceChanged(_editionNumber, msg.sender, _priceInWei);\r\n\r\n    return true;\r\n  }\r\n\r\n  /**\r\n   * @dev Sets provided edition to deactivated so it does not appear on the platform\r\n   * @dev Only callable from edition artists defined in LFO NFT contract\r\n   * @dev Only callable when contract is not paused\r\n   * @dev Reverts if edition is invalid\r\n   * @dev Reverts if edition is not active in LFO NFT contract\r\n   */\r\n  function deactivateEdition(uint256 _editionNumber)\r\n  external\r\n  whenNotPaused\r\n  whenDeactivationNotPaused\r\n  returns (bool)\r\n  {\r\n    (address payable artistAccount, ) = iLFOAddress.artistCommission(_editionNumber);\r\n    require(msg.sender == artistAccount || hasRole(WHITELISTED, msg.sender), \"Only from the edition artist account\");\r\n\r\n    // Only allow them to be disabled if we have not already done it already\r\n    bool isActive = iLFOAddress.editionActive(_editionNumber);\r\n    require(isActive, \"Only when edition is active\");\r\n\r\n    iLFOAddress.updateActive(_editionNumber, false);\r\n\r\n    emit EditionDeactivated(_editionNumber);\r\n\r\n    return true;\r\n  }\r\n\r\n  /**\r\n   * @dev Sets the LFO address\r\n   * @dev Only callable from owner\r\n   */\r\n  function setLFO(ILFO _iLFOAddress) onlyWhitelisted public {\r\n    iLFOAddress = _iLFOAddress;\r\n  }\r\n\r\n  /**\r\n   * @dev Disables the ability to deactivate editions from this contract\r\n   * @dev Only callable from owner\r\n   */\r\n  function pauseDeactivation() onlyWhitelisted public {\r\n    deactivationPaused = true;\r\n  }\r\n\r\n  /**\r\n   * @dev Enables the ability to deactivate editions from this contract\r\n   * @dev Only callable from owner\r\n   */\r\n  function enablesDeactivation() onlyWhitelisted public {\r\n    deactivationPaused = false;\r\n  }\r\n\r\n}\r\n",
  "sourcePath": "/home/jp/devTruffle/lf/contracts/extras/ArtistEditionControls.sol",
  "compiler": {
    "name": "solc",
    "version": "0.6.12+commit.27d51765.Emscripten.clang"
  },
  "schemaVersion": "3.2.5",
  "updatedAt": "2020-11-03T11:53:44.995Z",
  "networkType": "ethereum",
  "devdoc": {
    "kind": "dev",
    "methods": {
      "deactivateEdition(uint256)": {
        "details": "Sets provided edition to deactivated so it does not appear on the platformOnly callable from edition artists defined in LFO NFT contractOnly callable when contract is not pausedReverts if edition is invalidReverts if edition is not active in LFO NFT contract"
      },
      "enablesDeactivation()": {
        "details": "Enables the ability to deactivate editions from this contractOnly callable from owner"
      },
      "getRoleAdmin(bytes32)": {
        "details": "Returns the admin role that controls `role`. See {grantRole} and {revokeRole}. To change a role's admin, use {_setRoleAdmin}."
      },
      "getRoleMember(bytes32,uint256)": {
        "details": "Returns one of the accounts that have `role`. `index` must be a value between 0 and {getRoleMemberCount}, non-inclusive. Role bearers are not sorted in any particular way, and their ordering may change at any point. WARNING: When using {getRoleMember} and {getRoleMemberCount}, make sure you perform all queries on the same block. See the following https://forum.openzeppelin.com/t/iterating-over-elements-on-enumerableset-in-openzeppelin-contracts/2296[forum post] for more information."
      },
      "getRoleMemberCount(bytes32)": {
        "details": "Returns the number of accounts that have `role`. Can be used together with {getRoleMember} to enumerate all bearers of a role."
      },
      "gift(address,uint256)": {
        "details": "Ability to gift new NFTs to an address, from a LFO editionOnly callable from edition artists defined in LFO NFT contractOnly callable when contract is not pausedReverts if edition is invalidReverts if edition is not active in LFO NFT contract"
      },
      "grantRole(bytes32,address)": {
        "details": "Grants `role` to `account`. If `account` had not been already granted `role`, emits a {RoleGranted} event. Requirements: - the caller must have ``role``'s admin role."
      },
      "hasRole(bytes32,address)": {
        "details": "Returns `true` if `account` has been granted `role`."
      },
      "pauseDeactivation()": {
        "details": "Disables the ability to deactivate editions from this contractOnly callable from owner"
      },
      "paused()": {
        "details": "Returns true if the contract is paused, and false otherwise."
      },
      "renounceRole(bytes32,address)": {
        "details": "Revokes `role` from the calling account. Roles are often managed via {grantRole} and {revokeRole}: this function's purpose is to provide a mechanism for accounts to lose their privileges if they are compromised (such as when a trusted device is misplaced). If the calling account had been granted `role`, emits a {RoleRevoked} event. Requirements: - the caller must be `account`."
      },
      "revokeRole(bytes32,address)": {
        "details": "Revokes `role` from `account`. If `account` had been granted `role`, emits a {RoleRevoked} event. Requirements: - the caller must have ``role``'s admin role."
      },
      "setLFO(address)": {
        "details": "Sets the LFO addressOnly callable from owner"
      },
      "updateEditionPrice(uint256,uint256)": {
        "details": "Sets the price of the provided edition in the WEIOnly callable from edition artists defined in LFO NFT contractOnly callable when contract is not pausedReverts if edition is invalid"
      }
    },
    "title": "Artists self minting for LongboardFamara Allows for the edition artists to mint their own assets and control the price of an edition",
    "version": 1
  },
  "userdoc": {
    "kind": "user",
    "methods": {},
    "version": 1
  }
}