{
  "contractName": "ArtistAcceptingBids",
  "abi": [
    {
      "inputs": [
        {
          "internalType": "contract ILFO",
          "name": "_iLFOAddress",
          "type": "address"
        }
      ],
      "stateMutability": "nonpayable",
      "type": "constructor"
    },
    {
      "anonymous": false,
      "inputs": [
        {
          "indexed": true,
          "internalType": "uint256",
          "name": "_editionNumber",
          "type": "uint256"
        }
      ],
      "name": "AuctionCancelled",
      "type": "event"
    },
    {
      "anonymous": false,
      "inputs": [
        {
          "indexed": true,
          "internalType": "uint256",
          "name": "_editionNumber",
          "type": "uint256"
        },
        {
          "indexed": true,
          "internalType": "address",
          "name": "_auctioneer",
          "type": "address"
        }
      ],
      "name": "AuctionDisabled",
      "type": "event"
    },
    {
      "anonymous": false,
      "inputs": [
        {
          "indexed": true,
          "internalType": "uint256",
          "name": "_editionNumber",
          "type": "uint256"
        },
        {
          "indexed": true,
          "internalType": "address",
          "name": "_auctioneer",
          "type": "address"
        }
      ],
      "name": "AuctionEnabled",
      "type": "event"
    },
    {
      "anonymous": false,
      "inputs": [
        {
          "indexed": true,
          "internalType": "address",
          "name": "_bidder",
          "type": "address"
        },
        {
          "indexed": true,
          "internalType": "uint256",
          "name": "_editionNumber",
          "type": "uint256"
        },
        {
          "indexed": true,
          "internalType": "uint256",
          "name": "_tokenId",
          "type": "uint256"
        },
        {
          "indexed": false,
          "internalType": "uint256",
          "name": "_amount",
          "type": "uint256"
        }
      ],
      "name": "BidAccepted",
      "type": "event"
    },
    {
      "anonymous": false,
      "inputs": [
        {
          "indexed": true,
          "internalType": "address",
          "name": "_bidder",
          "type": "address"
        },
        {
          "indexed": true,
          "internalType": "uint256",
          "name": "_editionNumber",
          "type": "uint256"
        },
        {
          "indexed": false,
          "internalType": "uint256",
          "name": "_amount",
          "type": "uint256"
        }
      ],
      "name": "BidIncreased",
      "type": "event"
    },
    {
      "anonymous": false,
      "inputs": [
        {
          "indexed": true,
          "internalType": "address",
          "name": "_bidder",
          "type": "address"
        },
        {
          "indexed": true,
          "internalType": "uint256",
          "name": "_editionNumber",
          "type": "uint256"
        },
        {
          "indexed": false,
          "internalType": "uint256",
          "name": "_amount",
          "type": "uint256"
        }
      ],
      "name": "BidPlaced",
      "type": "event"
    },
    {
      "anonymous": false,
      "inputs": [
        {
          "indexed": true,
          "internalType": "address",
          "name": "_caller",
          "type": "address"
        },
        {
          "indexed": true,
          "internalType": "address",
          "name": "_bidder",
          "type": "address"
        },
        {
          "indexed": true,
          "internalType": "uint256",
          "name": "_editionNumber",
          "type": "uint256"
        },
        {
          "indexed": false,
          "internalType": "uint256",
          "name": "_amount",
          "type": "uint256"
        }
      ],
      "name": "BidRejected",
      "type": "event"
    },
    {
      "anonymous": false,
      "inputs": [
        {
          "indexed": true,
          "internalType": "address",
          "name": "_bidder",
          "type": "address"
        },
        {
          "indexed": true,
          "internalType": "uint256",
          "name": "_editionNumber",
          "type": "uint256"
        }
      ],
      "name": "BidWithdrawn",
      "type": "event"
    },
    {
      "anonymous": false,
      "inputs": [
        {
          "indexed": true,
          "internalType": "uint256",
          "name": "_editionNumber",
          "type": "uint256"
        },
        {
          "indexed": true,
          "internalType": "address",
          "name": "_bidder",
          "type": "address"
        },
        {
          "indexed": false,
          "internalType": "uint256",
          "name": "_amount",
          "type": "uint256"
        }
      ],
      "name": "BidderRefunded",
      "type": "event"
    },
    {
      "anonymous": false,
      "inputs": [
        {
          "indexed": false,
          "internalType": "address",
          "name": "account",
          "type": "address"
        }
      ],
      "name": "Paused",
      "type": "event"
    },
    {
      "anonymous": false,
      "inputs": [
        {
          "indexed": true,
          "internalType": "bytes32",
          "name": "role",
          "type": "bytes32"
        },
        {
          "indexed": true,
          "internalType": "bytes32",
          "name": "previousAdminRole",
          "type": "bytes32"
        },
        {
          "indexed": true,
          "internalType": "bytes32",
          "name": "newAdminRole",
          "type": "bytes32"
        }
      ],
      "name": "RoleAdminChanged",
      "type": "event"
    },
    {
      "anonymous": false,
      "inputs": [
        {
          "indexed": true,
          "internalType": "bytes32",
          "name": "role",
          "type": "bytes32"
        },
        {
          "indexed": true,
          "internalType": "address",
          "name": "account",
          "type": "address"
        },
        {
          "indexed": true,
          "internalType": "address",
          "name": "sender",
          "type": "address"
        }
      ],
      "name": "RoleGranted",
      "type": "event"
    },
    {
      "anonymous": false,
      "inputs": [
        {
          "indexed": true,
          "internalType": "bytes32",
          "name": "role",
          "type": "bytes32"
        },
        {
          "indexed": true,
          "internalType": "address",
          "name": "account",
          "type": "address"
        },
        {
          "indexed": true,
          "internalType": "address",
          "name": "sender",
          "type": "address"
        }
      ],
      "name": "RoleRevoked",
      "type": "event"
    },
    {
      "anonymous": false,
      "inputs": [
        {
          "indexed": false,
          "internalType": "address",
          "name": "account",
          "type": "address"
        }
      ],
      "name": "Unpaused",
      "type": "event"
    },
    {
      "inputs": [],
      "name": "DEFAULT_ADMIN_ROLE",
      "outputs": [
        {
          "internalType": "bytes32",
          "name": "",
          "type": "bytes32"
        }
      ],
      "stateMutability": "view",
      "type": "function",
      "constant": true
    },
    {
      "inputs": [],
      "name": "WHITELISTED",
      "outputs": [
        {
          "internalType": "bytes32",
          "name": "",
          "type": "bytes32"
        }
      ],
      "stateMutability": "view",
      "type": "function",
      "constant": true
    },
    {
      "inputs": [
        {
          "internalType": "uint256",
          "name": "",
          "type": "uint256"
        }
      ],
      "name": "editionHighestBid",
      "outputs": [
        {
          "internalType": "address payable",
          "name": "",
          "type": "address"
        }
      ],
      "stateMutability": "view",
      "type": "function",
      "constant": true
    },
    {
      "inputs": [
        {
          "internalType": "uint256",
          "name": "",
          "type": "uint256"
        }
      ],
      "name": "editionNumberToArtistControlAddress",
      "outputs": [
        {
          "internalType": "address",
          "name": "",
          "type": "address"
        }
      ],
      "stateMutability": "view",
      "type": "function",
      "constant": true
    },
    {
      "inputs": [
        {
          "internalType": "uint256",
          "name": "",
          "type": "uint256"
        }
      ],
      "name": "editionsOnceEnabledForAuctions",
      "outputs": [
        {
          "internalType": "uint256",
          "name": "",
          "type": "uint256"
        }
      ],
      "stateMutability": "view",
      "type": "function",
      "constant": true
    },
    {
      "inputs": [
        {
          "internalType": "uint256",
          "name": "",
          "type": "uint256"
        }
      ],
      "name": "enabledEditions",
      "outputs": [
        {
          "internalType": "bool",
          "name": "",
          "type": "bool"
        }
      ],
      "stateMutability": "view",
      "type": "function",
      "constant": true
    },
    {
      "inputs": [
        {
          "internalType": "bytes32",
          "name": "role",
          "type": "bytes32"
        }
      ],
      "name": "getRoleAdmin",
      "outputs": [
        {
          "internalType": "bytes32",
          "name": "",
          "type": "bytes32"
        }
      ],
      "stateMutability": "view",
      "type": "function",
      "constant": true
    },
    {
      "inputs": [
        {
          "internalType": "bytes32",
          "name": "role",
          "type": "bytes32"
        },
        {
          "internalType": "uint256",
          "name": "index",
          "type": "uint256"
        }
      ],
      "name": "getRoleMember",
      "outputs": [
        {
          "internalType": "address",
          "name": "",
          "type": "address"
        }
      ],
      "stateMutability": "view",
      "type": "function",
      "constant": true
    },
    {
      "inputs": [
        {
          "internalType": "bytes32",
          "name": "role",
          "type": "bytes32"
        }
      ],
      "name": "getRoleMemberCount",
      "outputs": [
        {
          "internalType": "uint256",
          "name": "",
          "type": "uint256"
        }
      ],
      "stateMutability": "view",
      "type": "function",
      "constant": true
    },
    {
      "inputs": [
        {
          "internalType": "bytes32",
          "name": "role",
          "type": "bytes32"
        },
        {
          "internalType": "address",
          "name": "account",
          "type": "address"
        }
      ],
      "name": "grantRole",
      "outputs": [],
      "stateMutability": "nonpayable",
      "type": "function"
    },
    {
      "inputs": [
        {
          "internalType": "bytes32",
          "name": "role",
          "type": "bytes32"
        },
        {
          "internalType": "address",
          "name": "account",
          "type": "address"
        }
      ],
      "name": "hasRole",
      "outputs": [
        {
          "internalType": "bool",
          "name": "",
          "type": "bool"
        }
      ],
      "stateMutability": "view",
      "type": "function",
      "constant": true
    },
    {
      "inputs": [],
      "name": "iLFOAddress",
      "outputs": [
        {
          "internalType": "contract ILFO",
          "name": "",
          "type": "address"
        }
      ],
      "stateMutability": "view",
      "type": "function",
      "constant": true
    },
    {
      "inputs": [],
      "name": "lfCommissionAccount",
      "outputs": [
        {
          "internalType": "address payable",
          "name": "",
          "type": "address"
        }
      ],
      "stateMutability": "view",
      "type": "function",
      "constant": true
    },
    {
      "inputs": [],
      "name": "minBidAmount",
      "outputs": [
        {
          "internalType": "uint256",
          "name": "",
          "type": "uint256"
        }
      ],
      "stateMutability": "view",
      "type": "function",
      "constant": true
    },
    {
      "inputs": [],
      "name": "paused",
      "outputs": [
        {
          "internalType": "bool",
          "name": "",
          "type": "bool"
        }
      ],
      "stateMutability": "view",
      "type": "function",
      "constant": true
    },
    {
      "inputs": [
        {
          "internalType": "bytes32",
          "name": "role",
          "type": "bytes32"
        },
        {
          "internalType": "address",
          "name": "account",
          "type": "address"
        }
      ],
      "name": "renounceRole",
      "outputs": [],
      "stateMutability": "nonpayable",
      "type": "function"
    },
    {
      "inputs": [
        {
          "internalType": "bytes32",
          "name": "role",
          "type": "bytes32"
        },
        {
          "internalType": "address",
          "name": "account",
          "type": "address"
        }
      ],
      "name": "revokeRole",
      "outputs": [],
      "stateMutability": "nonpayable",
      "type": "function"
    },
    {
      "inputs": [
        {
          "internalType": "uint256",
          "name": "_editionNumber",
          "type": "uint256"
        }
      ],
      "name": "placeBid",
      "outputs": [
        {
          "internalType": "bool",
          "name": "success",
          "type": "bool"
        }
      ],
      "stateMutability": "payable",
      "type": "function",
      "payable": true
    },
    {
      "inputs": [
        {
          "internalType": "uint256",
          "name": "_editionNumber",
          "type": "uint256"
        }
      ],
      "name": "increaseBid",
      "outputs": [
        {
          "internalType": "bool",
          "name": "success",
          "type": "bool"
        }
      ],
      "stateMutability": "payable",
      "type": "function",
      "payable": true
    },
    {
      "inputs": [
        {
          "internalType": "uint256",
          "name": "_editionNumber",
          "type": "uint256"
        }
      ],
      "name": "withdrawBid",
      "outputs": [
        {
          "internalType": "bool",
          "name": "success",
          "type": "bool"
        }
      ],
      "stateMutability": "nonpayable",
      "type": "function"
    },
    {
      "inputs": [
        {
          "internalType": "uint256",
          "name": "_editionNumber",
          "type": "uint256"
        }
      ],
      "name": "cancelAuction",
      "outputs": [
        {
          "internalType": "bool",
          "name": "success",
          "type": "bool"
        }
      ],
      "stateMutability": "nonpayable",
      "type": "function"
    },
    {
      "inputs": [
        {
          "internalType": "uint256",
          "name": "_editionNumber",
          "type": "uint256"
        }
      ],
      "name": "rejectBid",
      "outputs": [
        {
          "internalType": "bool",
          "name": "success",
          "type": "bool"
        }
      ],
      "stateMutability": "nonpayable",
      "type": "function"
    },
    {
      "inputs": [
        {
          "internalType": "uint256",
          "name": "_editionNumber",
          "type": "uint256"
        }
      ],
      "name": "acceptBid",
      "outputs": [
        {
          "internalType": "uint256",
          "name": "tokenId",
          "type": "uint256"
        }
      ],
      "stateMutability": "nonpayable",
      "type": "function"
    },
    {
      "inputs": [
        {
          "internalType": "uint256",
          "name": "_editionNumber",
          "type": "uint256"
        }
      ],
      "name": "enableEditionForArtist",
      "outputs": [
        {
          "internalType": "bool",
          "name": "",
          "type": "bool"
        }
      ],
      "stateMutability": "nonpayable",
      "type": "function"
    },
    {
      "inputs": [
        {
          "internalType": "uint256",
          "name": "_editionNumber",
          "type": "uint256"
        }
      ],
      "name": "enableEdition",
      "outputs": [
        {
          "internalType": "bool",
          "name": "",
          "type": "bool"
        }
      ],
      "stateMutability": "nonpayable",
      "type": "function"
    },
    {
      "inputs": [
        {
          "internalType": "uint256",
          "name": "_editionNumber",
          "type": "uint256"
        }
      ],
      "name": "disableEdition",
      "outputs": [
        {
          "internalType": "bool",
          "name": "",
          "type": "bool"
        }
      ],
      "stateMutability": "nonpayable",
      "type": "function"
    },
    {
      "inputs": [
        {
          "internalType": "uint256",
          "name": "_editionNumber",
          "type": "uint256"
        },
        {
          "internalType": "address",
          "name": "_address",
          "type": "address"
        }
      ],
      "name": "setArtistsControlAddress",
      "outputs": [
        {
          "internalType": "bool",
          "name": "",
          "type": "bool"
        }
      ],
      "stateMutability": "nonpayable",
      "type": "function"
    },
    {
      "inputs": [
        {
          "internalType": "uint256",
          "name": "_editionNumber",
          "type": "uint256"
        },
        {
          "internalType": "address",
          "name": "_address",
          "type": "address"
        }
      ],
      "name": "setArtistsControlAddressAndEnabledEdition",
      "outputs": [
        {
          "internalType": "bool",
          "name": "",
          "type": "bool"
        }
      ],
      "stateMutability": "nonpayable",
      "type": "function"
    },
    {
      "inputs": [
        {
          "internalType": "uint256",
          "name": "_minBidAmount",
          "type": "uint256"
        }
      ],
      "name": "setMinBidAmount",
      "outputs": [],
      "stateMutability": "nonpayable",
      "type": "function"
    },
    {
      "inputs": [
        {
          "internalType": "contract ILFO",
          "name": "_iLFOAddress",
          "type": "address"
        }
      ],
      "name": "setLFO",
      "outputs": [],
      "stateMutability": "nonpayable",
      "type": "function"
    },
    {
      "inputs": [
        {
          "internalType": "address payable",
          "name": "_lfCommissionAccount",
          "type": "address"
        }
      ],
      "name": "setLFCommissionAccount",
      "outputs": [],
      "stateMutability": "nonpayable",
      "type": "function"
    },
    {
      "inputs": [
        {
          "internalType": "address payable",
          "name": "_withdrawalAccount",
          "type": "address"
        }
      ],
      "name": "withdrawStuckEther",
      "outputs": [],
      "stateMutability": "nonpayable",
      "type": "function"
    },
    {
      "inputs": [
        {
          "internalType": "address payable",
          "name": "_withdrawalAccount",
          "type": "address"
        },
        {
          "internalType": "uint256",
          "name": "_amount",
          "type": "uint256"
        }
      ],
      "name": "withdrawStuckEtherOfAmount",
      "outputs": [],
      "stateMutability": "nonpayable",
      "type": "function"
    },
    {
      "inputs": [
        {
          "internalType": "uint256",
          "name": "_editionNumber",
          "type": "uint256"
        },
        {
          "internalType": "address payable",
          "name": "_bidder",
          "type": "address"
        },
        {
          "internalType": "uint256",
          "name": "_amount",
          "type": "uint256"
        }
      ],
      "name": "manualOverrideEditionHighestBidAndBidder",
      "outputs": [
        {
          "internalType": "bool",
          "name": "",
          "type": "bool"
        }
      ],
      "stateMutability": "nonpayable",
      "type": "function"
    },
    {
      "inputs": [
        {
          "internalType": "uint256",
          "name": "_editionNumber",
          "type": "uint256"
        },
        {
          "internalType": "address",
          "name": "_bidder",
          "type": "address"
        }
      ],
      "name": "manualDeleteEditionBids",
      "outputs": [
        {
          "internalType": "bool",
          "name": "",
          "type": "bool"
        }
      ],
      "stateMutability": "nonpayable",
      "type": "function"
    },
    {
      "inputs": [
        {
          "internalType": "uint256",
          "name": "_editionNumber",
          "type": "uint256"
        }
      ],
      "name": "auctionDetails",
      "outputs": [
        {
          "internalType": "bool",
          "name": "_enabled",
          "type": "bool"
        },
        {
          "internalType": "address",
          "name": "_bidder",
          "type": "address"
        },
        {
          "internalType": "uint256",
          "name": "_value",
          "type": "uint256"
        },
        {
          "internalType": "address",
          "name": "_controller",
          "type": "address"
        }
      ],
      "stateMutability": "view",
      "type": "function",
      "constant": true
    },
    {
      "inputs": [
        {
          "internalType": "uint256",
          "name": "_editionNumber",
          "type": "uint256"
        }
      ],
      "name": "highestBidForEdition",
      "outputs": [
        {
          "internalType": "address",
          "name": "_bidder",
          "type": "address"
        },
        {
          "internalType": "uint256",
          "name": "_value",
          "type": "uint256"
        }
      ],
      "stateMutability": "view",
      "type": "function",
      "constant": true
    },
    {
      "inputs": [
        {
          "internalType": "uint256",
          "name": "_editionNumber",
          "type": "uint256"
        }
      ],
      "name": "isEditionEnabled",
      "outputs": [
        {
          "internalType": "bool",
          "name": "",
          "type": "bool"
        }
      ],
      "stateMutability": "view",
      "type": "function",
      "constant": true
    },
    {
      "inputs": [
        {
          "internalType": "uint256",
          "name": "_editionNumber",
          "type": "uint256"
        }
      ],
      "name": "editionController",
      "outputs": [
        {
          "internalType": "address",
          "name": "",
          "type": "address"
        }
      ],
      "stateMutability": "view",
      "type": "function",
      "constant": true
    },
    {
      "inputs": [],
      "name": "addedEditions",
      "outputs": [
        {
          "internalType": "uint256[]",
          "name": "",
          "type": "uint256[]"
        }
      ],
      "stateMutability": "view",
      "type": "function",
      "constant": true
    }
  ],
  "bytecode": "0x6080604052662386f26fc100006007553480156200001c57600080fd5b50604051620031fc380380620031fc833981810160405260208110156200004257600080fd5b50516001805460ff19169055600880546001600160a01b03199081166001600160a01b0384161790915560098054339216821790556200008590600090620000b8565b620000b17fe799c73ff785ac053943f5d98452f7fa0bcf54da67826fc217d6094dec75c5ee33620000b8565b50620001cc565b620000c48282620000c8565b5050565b600082815260208181526040909120620000ed9183906200262062000141821b17901c565b15620000c457620000fd62000161565b6001600160a01b0316816001600160a01b0316837f2f8788117e7eff1d82e926ec794901d17c78024a50270940304540a733656f0d60405160405180910390a45050565b600062000158836001600160a01b03841662000165565b90505b92915050565b3390565b6000620001738383620001b4565b620001ab575081546001818101845560008481526020808220909301849055845484825282860190935260409020919091556200015b565b5060006200015b565b60009081526001919091016020526040902054151590565b61302080620001dc6000396000f3fe60806040526004361061023a5760003560e01c8063831f4f501161012e578063b5e7f3c3116100ab578063d547741f1161006f578063d547741f146108df578063e0397a9414610918578063e2d78fcd14610951578063e3ecbd7e14610966578063e4ae2e88146109905761023a565b8063b5e7f3c3146107e6578063b9e04eea1461081f578063ca15c87314610858578063cc9ce6ef14610882578063d1d58f00146108b55761023a565b806391d14854116100f257806391d148541461071857806396b5a7551461075157806396d9a8811461077b5780639979ef45146107b4578063a217fddf146107d15761023a565b8063831f4f501461060d5780638603d31a146106225780638716f4c11461067f5780638ba5882a146106a95780639010d07c146106e85761023a565b8063417fd6b6116101bc5780635e101e51116101805780635e101e51146105325780636c056b431461055c5780636e3341b31461058f57806374b799af146105b95780637526a8e5146105e35761023a565b8063417fd6b61461046e578063438bad751461049857806349751788146104de5780635514735c146104f35780635c975abb1461051d5761023a565b806326ccd77a1161020357806326ccd77a146103385780632b1fd58a1461036d5780632f2ff15d1461039757806336568abe146103d05780633f0bfab1146104095761023a565b806270c5371461023f578063017b0d00146102705780630b71f116146102bd5780630eaaf4c8146102e4578063248a9ca31461030e575b600080fd5b61025c6004803603602081101561025557600080fd5b50356109ba565b604080519115158252519081900360200190f35b34801561027c57600080fd5b5061029a6004803603602081101561029357600080fd5b5035610cec565b604080516001600160a01b03909316835260208301919091528051918290030190f35b3480156102c957600080fd5b506102d2610d1d565b60408051918252519081900360200190f35b3480156102f057600080fd5b5061025c6004803603602081101561030757600080fd5b5035610d2f565b34801561031a57600080fd5b506102d26004803603602081101561033157600080fd5b5035610ed5565b34801561034457600080fd5b5061036b6004803603602081101561035b57600080fd5b50356001600160a01b0316610eea565b005b34801561037957600080fd5b506102d26004803603602081101561039057600080fd5b5035610fe8565b3480156103a357600080fd5b5061036b600480360360408110156103ba57600080fd5b50803590602001356001600160a01b031661138e565b3480156103dc57600080fd5b5061036b600480360360408110156103f357600080fd5b50803590602001356001600160a01b03166113f6565b34801561041557600080fd5b5061041e611457565b60408051602080825283518183015283519192839290830191858101910280838360005b8381101561045a578181015183820152602001610442565b505050509050019250505060405180910390f35b34801561047a57600080fd5b5061036b6004803603602081101561049157600080fd5b50356114af565b3480156104a457600080fd5b506104c2600480360360208110156104bb57600080fd5b50356114d5565b604080516001600160a01b039092168252519081900360200190f35b3480156104ea57600080fd5b506102d26114f0565b3480156104ff57600080fd5b506102d26004803603602081101561051657600080fd5b50356114f6565b34801561052957600080fd5b5061025c611514565b34801561053e57600080fd5b506104c26004803603602081101561055557600080fd5b503561151d565b34801561056857600080fd5b5061036b6004803603602081101561057f57600080fd5b50356001600160a01b0316611538565b34801561059b57600080fd5b5061025c600480360360208110156105b257600080fd5b503561157b565b3480156105c557600080fd5b5061025c600480360360208110156105dc57600080fd5b50356117d4565b3480156105ef57600080fd5b506104c26004803603602081101561060657600080fd5b503561183f565b34801561061957600080fd5b506104c261185a565b34801561062e57600080fd5b5061064c6004803603602081101561064557600080fd5b5035611869565b6040805194151585526001600160a01b039384166020860152848101929092529091166060830152519081900360800190f35b34801561068b57600080fd5b5061025c600480360360208110156106a257600080fd5b50356118b9565b3480156106b557600080fd5b5061025c600480360360608110156106cc57600080fd5b508035906001600160a01b036020820135169060400135611ba4565b3480156106f457600080fd5b506104c26004803603604081101561070b57600080fd5b5080359060200135611c13565b34801561072457600080fd5b5061025c6004803603604081101561073b57600080fd5b50803590602001356001600160a01b0316611c34565b34801561075d57600080fd5b5061025c6004803603602081101561077457600080fd5b5035611c4c565b34801561078757600080fd5b5061025c6004803603604081101561079e57600080fd5b50803590602001356001600160a01b0316611d7f565b61025c600480360360208110156107ca57600080fd5b5035611de2565b3480156107dd57600080fd5b506102d26121a1565b3480156107f257600080fd5b5061025c6004803603604081101561080957600080fd5b50803590602001356001600160a01b03166121a6565b34801561082b57600080fd5b5061036b6004803603604081101561084257600080fd5b506001600160a01b0381351690602001356122cf565b34801561086457600080fd5b506102d26004803603602081101561087b57600080fd5b5035612424565b34801561088e57600080fd5b5061036b600480360360208110156108a557600080fd5b50356001600160a01b031661243b565b3480156108c157600080fd5b5061025c600480360360208110156108d857600080fd5b50356124cb565b3480156108eb57600080fd5b5061036b6004803603604081101561090257600080fd5b50803590602001356001600160a01b03166124e0565b34801561092457600080fd5b5061025c6004803603604081101561093b57600080fd5b50803590602001356001600160a01b0316612539565b34801561095d57600080fd5b506104c261258e565b34801561097257600080fd5b5061025c6004803603602081101561098957600080fd5b503561259d565b34801561099c57600080fd5b5061025c600480360360208110156109b357600080fd5b50356125b2565b60015460009060ff1615610a08576040805162461bcd60e51b815260206004820152601060248201526f14185d5cd8589b194e881c185d5cd95960821b604482015290519081900360640190fd5b346007541115610a495760405162461bcd60e51b815260040180806020018281038252602b815260200180612e01602b913960400191505060405180910390fd5b600854604080516361597daf60e11b815260048101859052905184926000926001600160a01b039091169163c2b2fb5e9160248082019260209290919082900301818787803b158015610a9b57600080fd5b505af1158015610aaf573d6000803e3d6000fd5b505050506040513d6020811015610ac557600080fd5b5051905080610b09576040805162461bcd60e51b81526020600482015260166024820152600080516020612f65833981519152604482015290519081900360640190fd5b600084815260036020526040902054849060ff16610b585760405162461bcd60e51b8152600401808060200182810382526023815260200180612d0b6023913960400191505060405180910390fd5b60085460408051632f00a11360e21b815260048101889052905187926000926001600160a01b039091169163bc02844c91602480820192602092909190829003018186803b158015610ba957600080fd5b505afa158015610bbd573d6000803e3d6000fd5b505050506040513d6020811015610bd357600080fd5b5051905080610c135760405162461bcd60e51b8152600401808060200182810382526033815260200180612da86033913960400191505060405180910390fd5b60008781526004602052604090205487906001600160a01b03163314610c6a5760405162461bcd60e51b8152600401808060200182810382526035815260200180612ed26035913960400191505060405180910390fd5b6000888152600560209081526040808320338452909152902054610c8e9034612635565b600089815260056020908152604080832033808552908352928190208490558051938452518b937fabdd90c2558a13a111c790b3e52da9a52768834a1139e2993b68b6db09c071c592908290030190a3506001979650505050505050565b600090815260046020908152604080832054600583528184206001600160a01b039091168085529252909120549091565b600080516020612e9183398151915281565b60015460009060ff1615610d7d576040805162461bcd60e51b815260206004820152601060248201526f14185d5cd8589b194e881c185d5cd95960821b604482015290519081900360640190fd5b600854604080516361597daf60e11b815260048101859052905184926000926001600160a01b039091169163c2b2fb5e9160248082019260209290919082900301818787803b158015610dcf57600080fd5b505af1158015610de3573d6000803e3d6000fd5b505050506040513d6020811015610df957600080fd5b5051905080610e3d576040805162461bcd60e51b81526020600482015260166024820152600080516020612f65833981519152604482015290519081900360640190fd5b60008481526004602052604090205484906001600160a01b03163314610e945760405162461bcd60e51b8152600401808060200182810382526035815260200180612ed26035913960400191505060405180910390fd5b610e9d8561268f565b604051859033907f03f0427e8bcfdf5f69217150cf160ebe2dac5fa607336fd7643bfd61a901908090600090a3506001949350505050565b60009081526020819052604090206002015490565b610f02600080516020612e9183398151915233611c34565b610f0b57600080fd5b6001600160a01b038116610f61576040805162461bcd60e51b8152602060048201526018602482015277125b9d985b1a59081859191c995cdcc81c1c9bdd9a59195960421b604482015290519081900360640190fd5b47610faf576040805162461bcd60e51b81526020600482015260196024820152784e6f206d6f726520657468657220746f20776974686472617760381b604482015290519081900360640190fd5b6040516001600160a01b038216904780156108fc02916000818181858888f19350505050158015610fe4573d6000803e3d6000fd5b5050565b60015460009060ff1615611036576040805162461bcd60e51b815260206004820152601060248201526f14185d5cd8589b194e881c185d5cd95960821b604482015290519081900360640190fd5b60008281526002602052604090205482906001600160a01b03163314806110705750611070600080516020612e9183398151915233611c34565b6110ab5760405162461bcd60e51b8152600401808060200182810382526026815260200180612ddb6026913960400191505060405180910390fd5b600083815260036020526040902054839060ff166110fa5760405162461bcd60e51b8152600401808060200182810382526023815260200180612d0b6023913960400191505060405180910390fd5b60085460408051632f00a11360e21b81526004810187905290516000926001600160a01b03169163bc02844c916024808301926020929190829003018186803b15801561114657600080fd5b505afa15801561115a573d6000803e3d6000fd5b505050506040513d602081101561117057600080fd5b50519050806111b05760405162461bcd60e51b8152600401808060200182810382526029815260200180612f3c6029913960400191505060405180910390fd5b6000858152600460205260409020546001600160a01b0316806112045760405162461bcd60e51b8152600401808060200182810382526035815260200180612f076035913960400191505060405180910390fd5b60008681526005602090815260408083206001600160a01b038581168086529184528285205460085484516340c10f1960e01b81526004810194909452602484018d9052935190959493909116926340c10f19926044808201939182900301818787803b15801561127457600080fd5b505af1158015611288573d6000803e3d6000fd5b505050506040513d602081101561129e57600080fd5b50519050806112f4576040805162461bcd60e51b815260206004820152601860248201527f4661696c656420746f206d696e74206e657720746f6b656e0000000000000000604482015290519081900360640190fd5b6112fe8883612765565b600088815260046020526040902080546001600160a01b031916905561132584600161288a565b611340576000888152600360205260409020805460ff191690555b8088846001600160a01b03167f77273c2a169296530c120eb6f1142012378aad0ed4337eac090eaf4223a1a2f1856040518082815260200191505060405180910390a4979650505050505050565b6000828152602081905260409020600201546113b1906113ac6128cc565b611c34565b6113ec5760405162461bcd60e51b815260040180806020018281038252602f815260200180612d79602f913960400191505060405180910390fd5b610fe482826128d0565b6113fe6128cc565b6001600160a01b0316816001600160a01b03161461144d5760405162461bcd60e51b815260040180806020018281038252602f815260200180612fbc602f913960400191505060405180910390fd5b610fe48282612939565b606060068054806020026020016040519081016040528092919081815260200182805480156114a557602002820191906000526020600020905b815481526020019060010190808311611491575b5050505050905090565b6114c7600080516020612e9183398151915233611c34565b6114d057600080fd5b600755565b6004602052600090815260409020546001600160a01b031681565b60075481565b6006818154811061150357fe5b600091825260209091200154905081565b60015460ff1690565b6000908152600260205260409020546001600160a01b031690565b611550600080516020612e9183398151915233611c34565b61155957600080fd5b600880546001600160a01b0319166001600160a01b0392909216919091179055565b60015460009060ff16156115c9576040805162461bcd60e51b815260206004820152601060248201526f14185d5cd8589b194e881c185d5cd95960821b604482015290519081900360640190fd5b600854604080516361597daf60e11b815260048101859052905184926000926001600160a01b039091169163c2b2fb5e9160248082019260209290919082900301818787803b15801561161b57600080fd5b505af115801561162f573d6000803e3d6000fd5b505050506040513d602081101561164557600080fd5b5051905080611689576040805162461bcd60e51b81526020600482015260166024820152600080516020612f65833981519152604482015290519081900360640190fd5b60008481526002602052604090205484906001600160a01b03163314806116c357506116c3600080516020612e9183398151915233611c34565b6116fe5760405162461bcd60e51b8152600401808060200182810382526026815260200180612ddb6026913960400191505060405180910390fd5b600085815260036020526040902054859060ff1661174d5760405162461bcd60e51b8152600401808060200182810382526023815260200180612d0b6023913960400191505060405180910390fd5b600086815260046020908152604080832054600583528184206001600160a01b039091168085529252909120546117838861268f565b60408051828152905189916001600160a01b0385169133917f841d03d1231c7a17778be9efc220fccbcf8e0d79180778eb59c0653373aa9018919081900360200190a4506001979650505050505050565b60006117ee600080516020612e9183398151915233611c34565b6117f757600080fd5b600082815260036020526040808220805460ff1916905551339184917fe0c56951f00a75f5139f9af608a2ae603fe7c340a8f4b4b3125e9a7018041b609190a3506001919050565b6002602052600090815260409020546001600160a01b031681565b6008546001600160a01b031681565b600081815260046020908152604080832054600583528184206001600160a01b039182168086529084528285205486865260028552838620546003909552929094205460ff169392169193509193565b60015460009060ff1615611907576040805162461bcd60e51b815260206004820152601060248201526f14185d5cd8589b194e881c185d5cd95960821b604482015290519081900360640190fd5b600854604080516361597daf60e11b815260048101859052905184926000926001600160a01b039091169163c2b2fb5e9160248082019260209290919082900301818787803b15801561195957600080fd5b505af115801561196d573d6000803e3d6000fd5b505050506040513d602081101561198357600080fd5b50519050806119c7576040805162461bcd60e51b81526020600482015260166024820152600080516020612f65833981519152604482015290519081900360640190fd5b6008546040805163065fb08f60e31b81526004810187905281516000936001600160a01b0316926332fd84789260248082019391829003018186803b158015611a0f57600080fd5b505afa158015611a23573d6000803e3d6000fd5b505050506040513d6040811015611a3957600080fd5b50519050611a55600080516020612e9183398151915233611c34565b80611a685750336001600160a01b038216145b611aa35760405162461bcd60e51b8152600401808060200182810382526029815260200180612d506029913960400191505060405180910390fd5b60008581526003602052604090205460ff1615611b01576040805162461bcd60e51b815260206004820152601760248201527611591a5d1a5bdb88185b1c9958591e48195b98589b1959604a1b604482015290519081900360640190fd5b60008581526003602090815260408083208054600160ff1990911681179091556006805491820190557ff652222313e28459528d920b65115c16c04f3efc82aaedc97be59f3f377c0d3f01889055600290915280822080546001600160a01b0319166001600160a01b03851617905551339187917fdeb115d202a55795fb5e47cee9ce6c0bd792a016a2d1251f937b1bb24e92332e9190a3506001949350505050565b6000611bbe600080516020612e9183398151915233611c34565b611bc757600080fd5b5060008381526005602090815260408083206001600160a01b039590951680845294825280832093909355938152600490935290912080546001600160a01b0319169091179055600190565b6000828152602081905260408120611c2b90836129a2565b90505b92915050565b6000828152602081905260408120611c2b90836129ae565b6000611c66600080516020612e9183398151915233611c34565b611c6f57600080fd5b600854604080516361597daf60e11b815260048101859052905184926000926001600160a01b039091169163c2b2fb5e9160248082019260209290919082900301818787803b158015611cc157600080fd5b505af1158015611cd5573d6000803e3d6000fd5b505050506040513d6020811015611ceb57600080fd5b5051905080611d2f576040805162461bcd60e51b81526020600482015260166024820152600080516020612f65833981519152604482015290519081900360640190fd5b611d388461268f565b600084815260036020526040808220805460ff191690555185917f2809c7e17bf978fbc7194c0a694b638c4215e9140cacc6c38ca36010b45697df91a25060019392505050565b6000611d99600080516020612e9183398151915233611c34565b611da257600080fd5b50600091825260046020908152604080842080546001600160a01b0319169055600582528084206001600160a01b03939093168452919052812055600190565b60015460009060ff1615611e30576040805162461bcd60e51b815260206004820152601060248201526f14185d5cd8589b194e881c185d5cd95960821b604482015290519081900360640190fd5b600854604080516361597daf60e11b815260048101859052905184926000926001600160a01b039091169163c2b2fb5e9160248082019260209290919082900301818787803b158015611e8257600080fd5b505af1158015611e96573d6000803e3d6000fd5b505050506040513d6020811015611eac57600080fd5b5051905080611ef0576040805162461bcd60e51b81526020600482015260166024820152600080516020612f65833981519152604482015290519081900360640190fd5b600084815260036020526040902054849060ff16611f3f5760405162461bcd60e51b8152600401808060200182810382526023815260200180612d0b6023913960400191505060405180910390fd5b600085815260046020908152604080832054600583528184206001600160a01b03909116808552925290912054600754879291903490611f80908390612635565b1115611fbd5760405162461bcd60e51b8152600401808060200182810382526037815260200180612f856037913960400191505060405180910390fd5b60008881526004602052604090205488906001600160a01b0316338114156120165760405162461bcd60e51b8152600401808060200182810382526035815260200180612e5c6035913960400191505060405180910390fd5b60085460408051632f00a11360e21b8152600481018d905290518c926000926001600160a01b039091169163bc02844c91602480820192602092909190829003018186803b15801561206757600080fd5b505afa15801561207b573d6000803e3d6000fd5b505050506040513d602081101561209157600080fd5b50519050806120d15760405162461bcd60e51b8152600401808060200182810382526033815260200180612da86033913960400191505060405180910390fd5b6120da8c61268f565b34600560008e81526020019081526020016000206000336001600160a01b03166001600160a01b031681526020019081526020016000208190555033600460008e815260200190815260200160002060006101000a8154816001600160a01b0302191690836001600160a01b031602179055508b336001600160a01b03167fdf8644c0a4c21ed214ce69f395675b3a5fcd1039083daea5058898de40ea3149346040518082815260200191505060405180910390a35060019b9a5050505050505050505050565b600081565b60006121c0600080516020612e9183398151915233611c34565b6121c957600080fd5b60008381526003602052604090205460ff1615612227576040805162461bcd60e51b815260206004820152601760248201527611591a5d1a5bdb88185b1c9958591e48195b98589b1959604a1b604482015290519081900360640190fd5b6000838152600360209081526040808320805460ff19166001908117909155600290925280832080546001600160a01b0387166001600160a01b0319909116811790915560068054938401815584527ff652222313e28459528d920b65115c16c04f3efc82aaedc97be59f3f377c0d3f90920186905551909185917fdeb115d202a55795fb5e47cee9ce6c0bd792a016a2d1251f937b1bb24e92332e9190a350600192915050565b6122e7600080516020612e9183398151915233611c34565b6122f057600080fd5b6001600160a01b038216612346576040805162461bcd60e51b8152602060048201526018602482015277125b9d985b1a59081859191c995cdcc81c1c9bdd9a59195960421b604482015290519081900360640190fd5b80612398576040805162461bcd60e51b815260206004820152601a60248201527f496e76616c696420616d6f756e7420746f207769746864726177000000000000604482015290519081900360640190fd5b804710156123e9576040805162461bcd60e51b81526020600482015260196024820152784e6f206d6f726520657468657220746f20776974686472617760381b604482015290519081900360640190fd5b6040516001600160a01b0383169082156108fc029083906000818181858888f1935050505015801561241f573d6000803e3d6000fd5b505050565b6000818152602081905260408120611c2e906129c3565b612453600080516020612e9183398151915233611c34565b61245c57600080fd5b6001600160a01b0381166124a9576040805162461bcd60e51b815260206004820152600f60248201526e496e76616c6964206164647265737360881b604482015290519081900360640190fd5b600980546001600160a01b0319166001600160a01b0392909216919091179055565b60036020526000908152604090205460ff1681565b6000828152602081905260409020600201546124fe906113ac6128cc565b61144d5760405162461bcd60e51b8152600401808060200182810382526030815260200180612e2c6030913960400191505060405180910390fd5b6000612553600080516020612e9183398151915233611c34565b61255c57600080fd5b50600082815260026020526040902080546001600160a01b0383166001600160a01b0319909116179055600192915050565b6009546001600160a01b031681565b60009081526003602052604090205460ff1690565b60006125cc600080516020612e9183398151915233611c34565b6125d557600080fd5b600082815260036020526040808220805460ff1916600117905551339184917fdeb115d202a55795fb5e47cee9ce6c0bd792a016a2d1251f937b1bb24e92332e9190a3506001919050565b6000611c2b836001600160a01b0384166129ce565b600082820183811015611c2b576040805162461bcd60e51b815260206004820152601b60248201527f536166654d6174683a206164646974696f6e206f766572666c6f770000000000604482015290519081900360640190fd5b600081815260046020908152604080832054600583528184206001600160a01b0390911680855292529091205481158015906126cb5750600081115b1561241f5760008381526004602052604080822080546001600160a01b0319169055516001600160a01b0384169183156108fc02918491818181858888f1935050505015801561271f573d6000803e3d6000fd5b506040805182815290516001600160a01b0384169185917fa01ed4ff1bfc084518bd795b4114da41c800c9ae1fc5e594cb505cb4c0c3fae19181900360200190a3505050565b6008546040805163065fb08f60e31b815260048101859052815160009384936001600160a01b03909116926332fd84789260248083019392829003018186803b1580156127b157600080fd5b505afa1580156127c5573d6000803e3d6000fd5b505050506040513d60408110156127db57600080fd5b50805160209091015190925090506000612800826127fa866064612a18565b90612a5a565b6040519091506001600160a01b0384169082156108fc029083906000818181858888f19350505050158015612839573d6000803e3d6000fd5b506000612846858361288a565b6009546040519192506001600160a01b03169082156108fc029083906000818181858888f19350505050158015612881573d6000803e3d6000fd5b50505050505050565b6000611c2b83836040518060400160405280601e81526020017f536166654d6174683a207375627472616374696f6e206f766572666c6f770000815250612ab3565b3390565b60008281526020819052604090206128e89082612620565b15610fe4576128f56128cc565b6001600160a01b0316816001600160a01b0316837f2f8788117e7eff1d82e926ec794901d17c78024a50270940304540a733656f0d60405160405180910390a45050565b60008281526020819052604090206129519082612b4a565b15610fe45761295e6128cc565b6001600160a01b0316816001600160a01b0316837ff6391f5c32d9c69d2a47ea670b442974b53935d1edc7fd64eb21e047a839171b60405160405180910390a45050565b6000611c2b8383612b5f565b6000611c2b836001600160a01b038416612bc3565b6000611c2e82612bdb565b60006129da8383612bc3565b612a1057508154600181810184556000848152602080822090930184905584548482528286019093526040902091909155611c2e565b506000611c2e565b6000611c2b83836040518060400160405280601a81526020017f536166654d6174683a206469766973696f6e206279207a65726f000000000000815250612bdf565b600082612a6957506000611c2e565b82820282848281612a7657fe5b0414611c2b5760405162461bcd60e51b8152600401808060200182810382526021815260200180612eb16021913960400191505060405180910390fd5b60008184841115612b425760405162461bcd60e51b81526004018080602001828103825283818151815260200191508051906020019080838360005b83811015612b07578181015183820152602001612aef565b50505050905090810190601f168015612b345780820380516001836020036101000a031916815260200191505b509250505060405180910390fd5b505050900390565b6000611c2b836001600160a01b038416612c44565b81546000908210612ba15760405162461bcd60e51b8152600401808060200182810382526022815260200180612d2e6022913960400191505060405180910390fd5b826000018281548110612bb057fe5b9060005260206000200154905092915050565b60009081526001919091016020526040902054151590565b5490565b60008183612c2e5760405162461bcd60e51b8152602060048201818152835160248401528351909283926044909101919085019080838360008315612b07578181015183820152602001612aef565b506000838581612c3a57fe5b0495945050505050565b60008181526001830160205260408120548015612d005783546000198083019190810190600090879083908110612c7757fe5b9060005260206000200154905080876000018481548110612c9457fe5b600091825260208083209091019290925582815260018981019092526040902090840190558654879080612cc457fe5b60019003818190600052602060002001600090559055866001016000878152602001908152602001600020600090556001945050505050611c2e565b6000915050611c2e56fe45646974696f6e206973206e6f7420656e61626c656420666f722061756374696f6e73456e756d657261626c655365743a20696e646578206f7574206f6620626f756e647343616e6e6f7420656e61626c65207768656e206e6f74207468652065646974696f6e20617274697374416363657373436f6e74726f6c3a2073656e646572206d75737420626520616e2061646d696e20746f206772616e74556e61626c6520746f2061636365707420616e79206d6f726520626964732c2065646974696f6e20697320736f6c64206f757445646974696f6e206e6f74206d616e616765642062792063616c6c696e67206164647265737342696473206d75737420626520686967686572207468616e206d696e696d756d2062696420616d6f756e74416363657373436f6e74726f6c3a2073656e646572206d75737420626520616e2061646d696e20746f207265766f6b6543616e742062696420616e796d6f72652c20796f752061726520616c7265616479207468652063757272656e742068696768657374e799c73ff785ac053943f5d98452f7fa0bcf54da67826fc217d6094dec75c5ee536166654d6174683a206d756c7469706c69636174696f6e206f766572666c6f7743616e206f6e6c7920776974686472617720612062696420696620796f75206172652074686520686967686573742062696464657243616e6e6f742077696e20616e2061756374696f6e207768656e207468657265206973206e6f206869676865737420626964646572556e61626c6520746f20616363657074206269642c2065646974696f6e20697320736f6c64206f757445646974696f6e20646f6573206e6f742065786973740000000000000000000042696473206d75737420626520686967686572207468616e2070726576696f7573206269647320706c7573206d696e696d756d20626964416363657373436f6e74726f6c3a2063616e206f6e6c792072656e6f756e636520726f6c657320666f722073656c66a26469706673582212209f82a5d22dbe8490bdae45be2eb9eff3a764d8fe2e55e7f1393f796af8c9104864736f6c634300060c0033",
  "immutableReferences": {},
  "source": "// SPDX-License-Identifier: MIT\r\n\r\n\r\npragma solidity ^0.6.0;\r\n\r\nimport \"@openzeppelin/contracts/utils/Pausable.sol\";\r\nimport \"@openzeppelin/contracts/math/SafeMath.sol\";\r\nimport \"../interfaces/ILFO.sol\";\r\nimport \"@openzeppelin/contracts/access/AccessControl.sol\";\r\n\r\n\r\n\r\ninterface IAuction {\r\n\r\n  event BidPlaced(\r\n    address indexed _bidder,\r\n    uint256 indexed _editionNumber,\r\n    uint256 _amount\r\n  );\r\n\r\n  event BidIncreased(\r\n    address indexed _bidder,\r\n    uint256 indexed _editionNumber,\r\n    uint256 _amount\r\n  );\r\n\r\n  event BidWithdrawn(\r\n    address indexed _bidder,\r\n    uint256 indexed _editionNumber\r\n  );\r\n\r\n  event BidAccepted(\r\n    address indexed _bidder,\r\n    uint256 indexed _editionNumber,\r\n    uint256 indexed _tokenId,\r\n    uint256 _amount\r\n  );\r\n\r\n  event BidRejected(\r\n    address indexed _caller,\r\n    address indexed _bidder,\r\n    uint256 indexed _editionNumber,\r\n    uint256 _amount\r\n  );\r\n\r\n  event BidderRefunded(\r\n    uint256 indexed _editionNumber,\r\n    address indexed _bidder,\r\n    uint256 _amount\r\n  );\r\n\r\n  event AuctionCancelled(\r\n    uint256 indexed _editionNumber\r\n  );\r\n\r\n  event AuctionEnabled(\r\n    uint256 indexed _editionNumber,\r\n    address indexed _auctioneer\r\n  );\r\n\r\n  event AuctionDisabled(\r\n    uint256 indexed _editionNumber,\r\n    address indexed _auctioneer\r\n  );\r\n\r\n  function placeBid(uint256 _editionNumber) payable external returns (bool success);\r\n\r\n  function increaseBid(uint256 _editionNumber) payable external returns (bool success);\r\n\r\n  function withdrawBid(uint256 _editionNumber) external returns (bool success);\r\n\r\n  function acceptBid(uint256 _editionNumber) external returns (uint256 tokenId);\r\n\r\n  function rejectBid(uint256 _editionNumber) external returns (bool success);\r\n\r\n  function cancelAuction(uint256 _editionNumber) external returns (bool success);\r\n}\r\n\r\n/**\r\n* @title Artists accepting bids contract for LongboardFamara\r\n*\r\n* Rules:\r\n* Can only bid for an edition which is enabled\r\n* Can only add new bids higher than previous highest bid plus minimum bid amount\r\n* Can increase your bid, only if you are the top current bidder\r\n* Once outbid, original bidder has ETH returned\r\n* Cannot double bid once you are already the highest bidder, can only call increaseBid()\r\n* Only the defined controller address can accept the bid\r\n* If a bid is revoked, the auction remains open however no highest bid exists\r\n* If the contract is Paused, no public actions can happen e.g. bids, increases, withdrawals\r\n* Managers of contract have full control over it act as a fallback in-case funds go missing or errors are found\r\n* On accepting of any bid, funds are split to LF and Artists - optional 3rd party split not currently supported\r\n* If an edition is sold out, the auction is stopped, manual refund required by bidder or whitelisted\r\n* Upon cancelling a bid which is in flight, funds are returned and contract stops further bids on the edition\r\n* Artists commissions and address are pulled from the LForiginals contract and are not based on the controller address\r\n*\r\n* Scenario:\r\n* 1) Config artist (Nico) & edition (1000)\r\n* 2) Ivan places a bid on edition 1000 for 1 ETH\r\n* 3) Paxi places a higher bid of 1.5ETH, overriding Ivan position as the leader, sends Ivan 1 ETH back and taking 1st place\r\n* 4) Nico accepts Paxi's bid\r\n* 5) LFO token generated and transferred to Paxi, funds are split between LF and Artist\r\n*\r\n*/\r\n\r\ncontract ArtistAcceptingBids is AccessControl, Pausable, IAuction {\r\n  using SafeMath for uint256;\r\n\r\n  // A mapping of the controller address to the edition number\r\n  mapping(uint256 => address) public editionNumberToArtistControlAddress;\r\n\r\n  // Enabled/disable the auction for the edition number\r\n  mapping(uint256 => bool) public enabledEditions;\r\n\r\n  // Edition to current highest bidders address\r\n  mapping(uint256 => address payable) public editionHighestBid;\r\n\r\n  // Mapping for edition -> bidder -> bid amount\r\n  mapping(uint256 => mapping(address => uint256)) internal editionBids;\r\n\r\n  // A simple list of editions which have been once added to this contract\r\n  uint256[] public editionsOnceEnabledForAuctions;\r\n\r\n  // Min increase in bid amount\r\n  uint256 public minBidAmount = 0.01 ether;\r\n\r\n  // Interface into the LFO world\r\n  ILFO public iLFOAddress;\r\n\r\n  // LF account which can receive commission\r\n  address payable public lfCommissionAccount;\r\n\r\n    //ROLES\r\n    bytes32 public constant WHITELISTED = keccak256(\"WHITELISTED\");\r\n\r\n  ///////////////\r\n  // Modifiers //\r\n  ///////////////\r\n\r\n  // Checks the auction is enabled\r\n  modifier whenAuctionEnabled(uint256 _editionNumber) {\r\n    require(enabledEditions[_editionNumber], \"Edition is not enabled for auctions\");\r\n    _;\r\n  }\r\n\r\n  // Checks the msg.sender is the artists control address or the auction whitelisted\r\n  modifier whenCallerIsController(uint256 _editionNumber) {\r\n    require(editionNumberToArtistControlAddress[_editionNumber] == msg.sender || hasRole(WHITELISTED, msg.sender), \"Edition not managed by calling address\");\r\n    _;\r\n  }\r\n\r\n  // Checks the bid is higher than the current amount + min bid\r\n  modifier whenPlacedBidIsAboveMinAmount(uint256 _editionNumber) {\r\n    address currentHighestBidder = editionHighestBid[_editionNumber];\r\n    uint256 currentHighestBidderAmount = editionBids[_editionNumber][currentHighestBidder];\r\n    require(currentHighestBidderAmount.add(minBidAmount) <= msg.value, \"Bids must be higher than previous bids plus minimum bid\");\r\n    _;\r\n  }\r\n\r\n  // Checks the bid is higher than the min bid\r\n  modifier whenBidIncreaseIsAboveMinAmount() {\r\n    require(minBidAmount <= msg.value, \"Bids must be higher than minimum bid amount\");\r\n    _;\r\n  }\r\n\r\n  // Check the caller in not already the highest bidder\r\n  modifier whenCallerNotAlreadyTheHighestBidder(uint256 _editionNumber) {\r\n    address currentHighestBidder = editionHighestBid[_editionNumber];\r\n    require(currentHighestBidder != msg.sender, \"Cant bid anymore, you are already the current highest\");\r\n    _;\r\n  }\r\n\r\n  // Checks msg.sender is the highest bidder\r\n  modifier whenCallerIsHighestBidder(uint256 _editionNumber) {\r\n    require(editionHighestBid[_editionNumber] == msg.sender, \"Can only withdraw a bid if you are the highest bidder\");\r\n    _;\r\n  }\r\n\r\n  // Only when editions are not sold out in LFO\r\n  modifier whenEditionNotSoldOut(uint256 _editionNumber) {\r\n    uint256 totalRemaining = iLFOAddress.totalRemaining(_editionNumber);\r\n    require(totalRemaining > 0, \"Unable to accept any more bids, edition is sold out\");\r\n    _;\r\n  }\r\n\r\n  // Only when edition exists in LFO\r\n  modifier whenEditionExists(uint256 _editionNumber) {\r\n    bool editionExists = iLFOAddress.editionExists(_editionNumber);\r\n    require(editionExists, \"Edition does not exist\");\r\n    _;\r\n  }\r\n\r\n    modifier onlyWhitelisted {\r\n        require(hasRole(WHITELISTED, msg.sender));\r\n        _;\r\n    }\r\n\r\n\r\n  /////////////////\r\n  // Constructor //\r\n  /////////////////\r\n\r\n  // Set the caller as the default LF account\r\n  constructor(ILFO _iLFOAddress) public {\r\n    iLFOAddress = _iLFOAddress;\r\n    lfCommissionAccount = msg.sender;\r\n    _setupRole(DEFAULT_ADMIN_ROLE, msg.sender);\r\n    _setupRole(WHITELISTED, msg.sender);\r\n\r\n  }\r\n\r\n  //////////////////////////\r\n  // Core Auction Methods //\r\n  //////////////////////////\r\n\r\n  /**\r\n   * @dev Public method for placing a bid, reverts if:\r\n   * - Contract is Paused\r\n   * - Edition provided is not valid\r\n   * - Edition provided is not configured for auctions\r\n   * - Edition provided is sold out\r\n   * - msg.sender is already the highest bidder\r\n   * - msg.value is not greater than highest bid + minimum amount\r\n   * @dev refunds the previous bidders ether if the bid is overwritten\r\n   */\r\n  function placeBid(uint256 _editionNumber)\r\n  public\r\n  payable\r\n  override\r\n  whenNotPaused\r\n  whenEditionExists(_editionNumber)\r\n  whenAuctionEnabled(_editionNumber)\r\n  whenPlacedBidIsAboveMinAmount(_editionNumber)\r\n  whenCallerNotAlreadyTheHighestBidder(_editionNumber)\r\n  whenEditionNotSoldOut(_editionNumber)\r\n  returns (bool success)\r\n  {\r\n    // Grab the previous holders bid so we can refund it\r\n    _refundHighestBidder(_editionNumber);\r\n\r\n    // Keep a record of the current users bid (previous bidder has been refunded)\r\n    editionBids[_editionNumber][msg.sender] = msg.value;\r\n\r\n    // Update the highest bid to be the latest bidder\r\n    editionHighestBid[_editionNumber] = msg.sender;\r\n\r\n    // Emit event\r\n    emit BidPlaced(msg.sender, _editionNumber, msg.value);\r\n\r\n    return true;\r\n  }\r\n\r\n  /**\r\n   * @dev Public method for increasing your bid, reverts if:\r\n   * - Contract is Paused\r\n   * - Edition provided is not valid\r\n   * - Edition provided is not configured for auctions\r\n   * - Edition provided is sold out\r\n   * - msg.sender is not the current highest bidder\r\n   * Return true on success\r\n   */\r\n  function increaseBid(uint256 _editionNumber)\r\n  public\r\n  payable\r\n  override\r\n  whenNotPaused\r\n  whenBidIncreaseIsAboveMinAmount\r\n  whenEditionExists(_editionNumber)\r\n  whenAuctionEnabled(_editionNumber)\r\n  whenEditionNotSoldOut(_editionNumber)\r\n  whenCallerIsHighestBidder(_editionNumber)\r\n  returns (bool success)\r\n  {\r\n    // Bump the current highest bid by provided amount\r\n    editionBids[_editionNumber][msg.sender] = editionBids[_editionNumber][msg.sender].add(msg.value);\r\n\r\n    // Emit event\r\n    emit BidIncreased(msg.sender, _editionNumber, editionBids[_editionNumber][msg.sender]);\r\n\r\n    return true;\r\n  }\r\n\r\n  /**\r\n   * @dev Public method for withdrawing your bid, reverts if:\r\n   * - Contract is Paused\r\n   * - msg.sender is not the current highest bidder\r\n   * @dev removes current highest bid so there is no current highest bidder\r\n   * return true on success\r\n   */\r\n  function withdrawBid(uint256 _editionNumber)\r\n  public\r\n  override\r\n  whenNotPaused\r\n  whenEditionExists(_editionNumber)\r\n  whenCallerIsHighestBidder(_editionNumber)\r\n  returns (bool success)\r\n  {\r\n    // get current highest bid and refund it\r\n    _refundHighestBidder(_editionNumber);\r\n\r\n    // Fire event\r\n    emit BidWithdrawn(msg.sender, _editionNumber);\r\n\r\n    return true;\r\n  }\r\n\r\n  /**\r\n   * @dev Method for cancelling an auction, only called from contract whitelist\r\n   * @dev refunds previous highest bidders bid\r\n   * @dev removes current highest bid so there is no current highest bidder\r\n   * return true on success\r\n   */\r\n  function cancelAuction(uint256 _editionNumber)\r\n  public\r\n  override\r\n  onlyWhitelisted\r\n  whenEditionExists(_editionNumber)\r\n  returns (bool success)\r\n  {\r\n    // get current highest bid and refund it\r\n    _refundHighestBidder(_editionNumber);\r\n\r\n    // Disable the auction\r\n    enabledEditions[_editionNumber] = false;\r\n\r\n    // Fire event\r\n    emit AuctionCancelled(_editionNumber);\r\n\r\n    return true;\r\n  }\r\n\r\n  /**\r\n   * @dev Public method for increasing your bid, reverts if:\r\n   * - Contract is Paused\r\n   * - Edition provided is not valid\r\n   * - Edition provided is not configured for auctions\r\n   * - Edition provided is sold out\r\n   * - msg.sender is not the current highest bidder\r\n   * return true on success\r\n   */\r\n  function rejectBid(uint256 _editionNumber)\r\n  public\r\n  override\r\n  whenNotPaused\r\n  whenEditionExists(_editionNumber)\r\n  whenCallerIsController(_editionNumber) // Checks only the controller can call this\r\n  whenAuctionEnabled(_editionNumber) // Checks auction is still enabled\r\n  returns (bool success)\r\n  {\r\n    address rejectedBidder = editionHighestBid[_editionNumber];\r\n    uint256 rejectedBidAmount = editionBids[_editionNumber][rejectedBidder];\r\n\r\n    // get current highest bid and refund it\r\n    _refundHighestBidder(_editionNumber);\r\n\r\n    emit BidRejected(msg.sender, rejectedBidder, _editionNumber, rejectedBidAmount);\r\n\r\n    return true;\r\n  }\r\n\r\n  /**\r\n   * @dev Method for accepting the highest bid, only called by edition creator, reverts if:\r\n   * - Contract is Paused\r\n   * - msg.sender is not the edition controller\r\n   * - Edition provided is not valid\r\n   * @dev Mints a new token in LFO contract\r\n   * @dev Splits bid amount to LF and Artist, based on LFO contract defined values\r\n   * @dev Removes current highest bid so there is no current highest bidder\r\n   * @dev If no more editions are available the auction is stopped\r\n   * return the generated tokenId on success\r\n   */\r\n  function acceptBid(uint256 _editionNumber)\r\n  public\r\n  override\r\n  whenNotPaused\r\n  whenCallerIsController(_editionNumber) // Checks only the controller can call this\r\n  whenAuctionEnabled(_editionNumber) // Checks auction is still enabled\r\n  returns (uint256 tokenId)\r\n  {\r\n    // Get total remaining here so we can use it below\r\n    uint256 totalRemaining = iLFOAddress.totalRemaining(_editionNumber);\r\n    require(totalRemaining > 0, \"Unable to accept bid, edition is sold out\");\r\n\r\n    // Get the winner of the bidding action\r\n    address winningAccount = editionHighestBid[_editionNumber];\r\n    require(winningAccount != address(0), \"Cannot win an auction when there is no highest bidder\");\r\n\r\n    uint256 winningBidAmount = editionBids[_editionNumber][winningAccount];\r\n    require(winningBidAmount >= 0, \"Cannot win an auction when no bid amount set\");\r\n\r\n    // Mint a new token to the winner\r\n    uint256 _tokenId = iLFOAddress.mint(winningAccount, _editionNumber);\r\n    require(_tokenId != 0, \"Failed to mint new token\");\r\n\r\n    // Split the monies\r\n    _handleFunds(_editionNumber, winningBidAmount);\r\n\r\n    // Clear out highest bidder for this auction\r\n    delete editionHighestBid[_editionNumber];\r\n\r\n    // If the edition is sold out, disable the auction\r\n    if (totalRemaining.sub(1) == 0) {\r\n      enabledEditions[_editionNumber] = false;\r\n    }\r\n\r\n    // Fire event\r\n    emit BidAccepted(winningAccount, _editionNumber, _tokenId, winningBidAmount);\r\n\r\n    return _tokenId;\r\n  }\r\n\r\n  /**\r\n   * Handle all splitting of funds to the artist and LF\r\n   */\r\n  function _handleFunds(uint256 _editionNumber, uint256 _winningBidAmount) internal {\r\n\r\n    // Get the commission and split bid amount accordingly\r\n    (address payable artistAccount, uint256 artistCommission) = iLFOAddress.artistCommission(_editionNumber);\r\n\r\n    // Extract the artists commission and send it\r\n    uint256 artistPayment = _winningBidAmount.div(100).mul(artistCommission);\r\n    artistAccount.transfer(artistPayment);\r\n\r\n    // Send LF remaining amount\r\n    uint256 remainingCommission = _winningBidAmount.sub(artistPayment);\r\n    lfCommissionAccount.transfer(remainingCommission);\r\n  }\r\n\r\n  /**\r\n   * Returns funds of the previous highest bidder back to them if present\r\n   */\r\n  function _refundHighestBidder(uint256 _editionNumber) internal {\r\n    // Get current highest bidder\r\n    address payable currentHighestBidder = editionHighestBid[_editionNumber];\r\n\r\n    // Get current highest bid amount\r\n    uint256 currentHighestBiddersAmount = editionBids[_editionNumber][currentHighestBidder];\r\n\r\n    if (currentHighestBidder != address(0) && currentHighestBiddersAmount > 0) {\r\n\r\n      // Clear out highest bidder as there is no long one\r\n      delete editionHighestBid[_editionNumber];\r\n\r\n      // Refund it\r\n      currentHighestBidder.transfer(currentHighestBiddersAmount);\r\n\r\n      // Emit event\r\n      emit BidderRefunded(_editionNumber, currentHighestBidder, currentHighestBiddersAmount);\r\n    }\r\n  }\r\n\r\n  ///////////////////////////////\r\n  // Public management methods //\r\n  ///////////////////////////////\r\n\r\n  /**\r\n   * @dev Enables the edition for auctions in a single call\r\n   * @dev Only callable from whitelisted account or LFO edition artists\r\n   */\r\n  function enableEditionForArtist(uint256 _editionNumber)\r\n  public\r\n  whenNotPaused\r\n  whenEditionExists(_editionNumber)\r\n  returns (bool)\r\n  {\r\n    // Ensure caller is whitelisted or artists\r\n    (address artistAccount, ) = iLFOAddress.artistCommission(_editionNumber);\r\n    require(hasRole(WHITELISTED, msg.sender) || msg.sender == artistAccount, \"Cannot enable when not the edition artist\");\r\n\r\n    // Ensure not already setup\r\n    require(!enabledEditions[_editionNumber], \"Edition already enabled\");\r\n\r\n    // Enable the auction\r\n    enabledEditions[_editionNumber] = true;\r\n\r\n    // keep track of the edition\r\n    editionsOnceEnabledForAuctions.push(_editionNumber);\r\n\r\n    // Setup the controller address to be the artist\r\n    editionNumberToArtistControlAddress[_editionNumber] = artistAccount;\r\n\r\n    emit AuctionEnabled(_editionNumber, msg.sender);\r\n\r\n    return true;\r\n  }\r\n\r\n  /**\r\n   * @dev Enables the edition for auctions\r\n   * @dev Only callable from whitelist\r\n   */\r\n  function enableEdition(uint256 _editionNumber)\r\n  onlyWhitelisted\r\n  public returns (bool) {\r\n    enabledEditions[_editionNumber] = true;\r\n    emit AuctionEnabled(_editionNumber, msg.sender);\r\n    return true;\r\n  }\r\n\r\n  /**\r\n   * @dev Disables the edition for auctions\r\n   * @dev Only callable from whitelist\r\n   */\r\n  function disableEdition(uint256 _editionNumber)\r\n  onlyWhitelisted\r\n  public returns (bool) {\r\n    enabledEditions[_editionNumber] = false;\r\n    emit AuctionDisabled(_editionNumber, msg.sender);\r\n    return true;\r\n  }\r\n\r\n  /**\r\n   * @dev Sets the edition artist control address\r\n   * @dev Only callable from whitelist\r\n   */\r\n  function setArtistsControlAddress(uint256 _editionNumber, address _address)\r\n  onlyWhitelisted\r\n  public returns (bool) {\r\n    editionNumberToArtistControlAddress[_editionNumber] = _address;\r\n    return true;\r\n  }\r\n\r\n  /**\r\n   * @dev Sets the edition artist control address and enables the edition for auction\r\n   * @dev Only callable from whitelist\r\n   */\r\n  function setArtistsControlAddressAndEnabledEdition(uint256 _editionNumber, address _address)\r\n  onlyWhitelisted\r\n  public returns (bool) {\r\n    require(!enabledEditions[_editionNumber], \"Edition already enabled\");\r\n\r\n    // Enable the edition\r\n    enabledEditions[_editionNumber] = true;\r\n\r\n    // Setup the artist address for this edition\r\n    editionNumberToArtistControlAddress[_editionNumber] = _address;\r\n\r\n    // keep track of the edition\r\n    editionsOnceEnabledForAuctions.push(_editionNumber);\r\n\r\n    emit AuctionEnabled(_editionNumber, _address);\r\n\r\n    return true;\r\n  }\r\n\r\n  /**\r\n   * @dev Sets the minimum bid amount\r\n   * @dev Only callable from whitelist\r\n   */\r\n  function setMinBidAmount(uint256 _minBidAmount) onlyWhitelisted public {\r\n    minBidAmount = _minBidAmount;\r\n  }\r\n\r\n  /**\r\n   * @dev Sets the LFO address\r\n   * @dev Only callable from whitelist\r\n   */\r\n  function setLFO(ILFO _iLFOAddress) onlyWhitelisted public {\r\n    iLFOAddress = _iLFOAddress;\r\n  }\r\n\r\n  /**\r\n   * @dev Sets the LFO address\r\n   * @dev Only callable from whitelist\r\n   */\r\n  function setLFCommissionAccount(address payable _lfCommissionAccount) public onlyWhitelisted {\r\n    require(_lfCommissionAccount != address(0), \"Invalid address\");\r\n    lfCommissionAccount = _lfCommissionAccount;\r\n  }\r\n\r\n  /////////////////////////////\r\n  // Manual Override methods //\r\n  /////////////////////////////\r\n\r\n  /**\r\n   * @dev Allows for the ability to extract ether so we can distribute to the correct bidders accordingly\r\n   * @dev Only callable from whitelist\r\n   */\r\n  function withdrawStuckEther(address payable _withdrawalAccount)\r\n  onlyWhitelisted\r\n  public {\r\n    require(_withdrawalAccount != address(0), \"Invalid address provided\");\r\n    require(address(this).balance != 0, \"No more ether to withdraw\");\r\n    _withdrawalAccount.transfer(address(this).balance);\r\n  }\r\n\r\n  /**\r\n   * @dev Allows for the ability to extract specific ether amounts so we can distribute to the correct bidders accordingly\r\n   * @dev Only callable from whitelist\r\n   */\r\n  function withdrawStuckEtherOfAmount(address payable _withdrawalAccount, uint256 _amount)\r\n  onlyWhitelisted\r\n  public {\r\n    require(_withdrawalAccount != address(0), \"Invalid address provided\");\r\n    require(_amount != 0, \"Invalid amount to withdraw\");\r\n    require(address(this).balance >= _amount, \"No more ether to withdraw\");\r\n    _withdrawalAccount.transfer(_amount);\r\n  }\r\n\r\n  /**\r\n   * @dev Manual override method for setting edition highest bid & the highest bidder to the provided address\r\n   * @dev Only callable from whitelist\r\n   */\r\n  function manualOverrideEditionHighestBidAndBidder(uint256 _editionNumber, address payable _bidder, uint256 _amount)\r\n  onlyWhitelisted\r\n  public returns (bool) {\r\n    editionBids[_editionNumber][_bidder] = _amount;\r\n    editionHighestBid[_editionNumber] = _bidder;\r\n    return true;\r\n  }\r\n\r\n  /**\r\n   * @dev Manual override method removing bidding values\r\n   * @dev Only callable from whitelist\r\n   */\r\n  function manualDeleteEditionBids(uint256 _editionNumber, address _bidder)\r\n  onlyWhitelisted\r\n  public returns (bool) {\r\n    delete editionHighestBid[_editionNumber];\r\n    delete editionBids[_editionNumber][_bidder];\r\n    return true;\r\n  }\r\n\r\n  //////////////////////////\r\n  // Public query methods //\r\n  //////////////////////////\r\n\r\n  /**\r\n   * @dev Look up all the known data about the latest edition bidding round\r\n   * @dev Returns zeros for all values when not valid\r\n   */\r\n  function auctionDetails(uint256 _editionNumber) public view returns (bool _enabled, address _bidder, uint256 _value, address _controller) {\r\n    address highestBidder = editionHighestBid[_editionNumber];\r\n    uint256 bidValue = editionBids[_editionNumber][highestBidder];\r\n    address controlAddress = editionNumberToArtistControlAddress[_editionNumber];\r\n    return (\r\n    enabledEditions[_editionNumber],\r\n    highestBidder,\r\n    bidValue,\r\n    controlAddress\r\n    );\r\n  }\r\n\r\n  /**\r\n   * @dev Look up all the current highest bidder for the latest edition\r\n   * @dev Returns zeros for all values when not valid\r\n   */\r\n  function highestBidForEdition(uint256 _editionNumber) public view returns (address _bidder, uint256 _value) {\r\n    address highestBidder = editionHighestBid[_editionNumber];\r\n    uint256 bidValue = editionBids[_editionNumber][highestBidder];\r\n    return (highestBidder, bidValue);\r\n  }\r\n\r\n  /**\r\n   * @dev Check an edition is enabled for auction\r\n   */\r\n  function isEditionEnabled(uint256 _editionNumber) public view returns (bool) {\r\n    return enabledEditions[_editionNumber];\r\n  }\r\n\r\n  /**\r\n   * @dev Check which address can action a bid for the given edition\r\n   */\r\n  function editionController(uint256 _editionNumber) public view returns (address) {\r\n    return editionNumberToArtistControlAddress[_editionNumber];\r\n  }\r\n\r\n  /**\r\n   * @dev Returns the array of edition numbers\r\n   */\r\n  function addedEditions() public view returns (uint256[] memory) {\r\n    return editionsOnceEnabledForAuctions;\r\n  }\r\n\r\n}\r\n",
  "sourcePath": "/home/jp/devTruffle/lf/contracts/extras/ArtistAcceptingBids.sol",
  "compiler": {
    "name": "solc",
    "version": "0.6.12+commit.27d51765.Emscripten.clang"
  },
  "schemaVersion": "3.2.5",
  "updatedAt": "2020-11-03T11:53:47.047Z",
  "networkType": "ethereum",
  "devdoc": {
    "kind": "dev",
    "methods": {
      "acceptBid(uint256)": {
        "details": "Method for accepting the highest bid, only called by edition creator, reverts if: - Contract is Paused - msg.sender is not the edition controller - Edition provided is not validMints a new token in LFO contractSplits bid amount to LF and Artist, based on LFO contract defined valuesRemoves current highest bid so there is no current highest bidderIf no more editions are available the auction is stopped return the generated tokenId on success"
      },
      "addedEditions()": {
        "details": "Returns the array of edition numbers"
      },
      "auctionDetails(uint256)": {
        "details": "Look up all the known data about the latest edition bidding roundReturns zeros for all values when not valid"
      },
      "cancelAuction(uint256)": {
        "details": "Method for cancelling an auction, only called from contract whitelistrefunds previous highest bidders bidremoves current highest bid so there is no current highest bidder return true on success"
      },
      "disableEdition(uint256)": {
        "details": "Disables the edition for auctionsOnly callable from whitelist"
      },
      "editionController(uint256)": {
        "details": "Check which address can action a bid for the given edition"
      },
      "enableEdition(uint256)": {
        "details": "Enables the edition for auctionsOnly callable from whitelist"
      },
      "enableEditionForArtist(uint256)": {
        "details": "Enables the edition for auctions in a single callOnly callable from whitelisted account or LFO edition artists"
      },
      "getRoleAdmin(bytes32)": {
        "details": "Returns the admin role that controls `role`. See {grantRole} and {revokeRole}. To change a role's admin, use {_setRoleAdmin}."
      },
      "getRoleMember(bytes32,uint256)": {
        "details": "Returns one of the accounts that have `role`. `index` must be a value between 0 and {getRoleMemberCount}, non-inclusive. Role bearers are not sorted in any particular way, and their ordering may change at any point. WARNING: When using {getRoleMember} and {getRoleMemberCount}, make sure you perform all queries on the same block. See the following https://forum.openzeppelin.com/t/iterating-over-elements-on-enumerableset-in-openzeppelin-contracts/2296[forum post] for more information."
      },
      "getRoleMemberCount(bytes32)": {
        "details": "Returns the number of accounts that have `role`. Can be used together with {getRoleMember} to enumerate all bearers of a role."
      },
      "grantRole(bytes32,address)": {
        "details": "Grants `role` to `account`. If `account` had not been already granted `role`, emits a {RoleGranted} event. Requirements: - the caller must have ``role``'s admin role."
      },
      "hasRole(bytes32,address)": {
        "details": "Returns `true` if `account` has been granted `role`."
      },
      "highestBidForEdition(uint256)": {
        "details": "Look up all the current highest bidder for the latest editionReturns zeros for all values when not valid"
      },
      "increaseBid(uint256)": {
        "details": "Public method for increasing your bid, reverts if: - Contract is Paused - Edition provided is not valid - Edition provided is not configured for auctions - Edition provided is sold out - msg.sender is not the current highest bidder Return true on success"
      },
      "isEditionEnabled(uint256)": {
        "details": "Check an edition is enabled for auction"
      },
      "manualDeleteEditionBids(uint256,address)": {
        "details": "Manual override method removing bidding valuesOnly callable from whitelist"
      },
      "manualOverrideEditionHighestBidAndBidder(uint256,address,uint256)": {
        "details": "Manual override method for setting edition highest bid & the highest bidder to the provided addressOnly callable from whitelist"
      },
      "paused()": {
        "details": "Returns true if the contract is paused, and false otherwise."
      },
      "placeBid(uint256)": {
        "details": "Public method for placing a bid, reverts if: - Contract is Paused - Edition provided is not valid - Edition provided is not configured for auctions - Edition provided is sold out - msg.sender is already the highest bidder - msg.value is not greater than highest bid + minimum amountrefunds the previous bidders ether if the bid is overwritten"
      },
      "rejectBid(uint256)": {
        "details": "Public method for increasing your bid, reverts if: - Contract is Paused - Edition provided is not valid - Edition provided is not configured for auctions - Edition provided is sold out - msg.sender is not the current highest bidder return true on success"
      },
      "renounceRole(bytes32,address)": {
        "details": "Revokes `role` from the calling account. Roles are often managed via {grantRole} and {revokeRole}: this function's purpose is to provide a mechanism for accounts to lose their privileges if they are compromised (such as when a trusted device is misplaced). If the calling account had been granted `role`, emits a {RoleRevoked} event. Requirements: - the caller must be `account`."
      },
      "revokeRole(bytes32,address)": {
        "details": "Revokes `role` from `account`. If `account` had been granted `role`, emits a {RoleRevoked} event. Requirements: - the caller must have ``role``'s admin role."
      },
      "setArtistsControlAddress(uint256,address)": {
        "details": "Sets the edition artist control addressOnly callable from whitelist"
      },
      "setArtistsControlAddressAndEnabledEdition(uint256,address)": {
        "details": "Sets the edition artist control address and enables the edition for auctionOnly callable from whitelist"
      },
      "setLFCommissionAccount(address)": {
        "details": "Sets the LFO addressOnly callable from whitelist"
      },
      "setLFO(address)": {
        "details": "Sets the LFO addressOnly callable from whitelist"
      },
      "setMinBidAmount(uint256)": {
        "details": "Sets the minimum bid amountOnly callable from whitelist"
      },
      "withdrawBid(uint256)": {
        "details": "Public method for withdrawing your bid, reverts if: - Contract is Paused - msg.sender is not the current highest bidderremoves current highest bid so there is no current highest bidder return true on success"
      },
      "withdrawStuckEther(address)": {
        "details": "Allows for the ability to extract ether so we can distribute to the correct bidders accordinglyOnly callable from whitelist"
      },
      "withdrawStuckEtherOfAmount(address,uint256)": {
        "details": "Allows for the ability to extract specific ether amounts so we can distribute to the correct bidders accordinglyOnly callable from whitelist"
      }
    },
    "title": "Artists accepting bids contract for LongboardFamara Rules: Can only bid for an edition which is enabled Can only add new bids higher than previous highest bid plus minimum bid amount Can increase your bid, only if you are the top current bidder Once outbid, original bidder has ETH returned Cannot double bid once you are already the highest bidder, can only call increaseBid() Only the defined controller address can accept the bid If a bid is revoked, the auction remains open however no highest bid exists If the contract is Paused, no public actions can happen e.g. bids, increases, withdrawals Managers of contract have full control over it act as a fallback in-case funds go missing or errors are found On accepting of any bid, funds are split to LF and Artists - optional 3rd party split not currently supported If an edition is sold out, the auction is stopped, manual refund required by bidder or whitelisted Upon cancelling a bid which is in flight, funds are returned and contract stops further bids on the edition Artists commissions and address are pulled from the LForiginals contract and are not based on the controller address Scenario: 1) Config artist (Nico) & edition (1000) 2) Ivan places a bid on edition 1000 for 1 ETH 3) Paxi places a higher bid of 1.5ETH, overriding Ivan position as the leader, sends Ivan 1 ETH back and taking 1st place 4) Nico accepts Paxi's bid 5) LFO token generated and transferred to Paxi, funds are split between LF and Artist",
    "version": 1
  },
  "userdoc": {
    "kind": "user",
    "methods": {},
    "version": 1
  }
}