{
  "contractName": "lfOriginals",
  "abi": [
    {
      "inputs": [],
      "stateMutability": "nonpayable",
      "type": "constructor"
    },
    {
      "anonymous": false,
      "inputs": [
        {
          "indexed": true,
          "internalType": "address",
          "name": "owner",
          "type": "address"
        },
        {
          "indexed": true,
          "internalType": "address",
          "name": "approved",
          "type": "address"
        },
        {
          "indexed": true,
          "internalType": "uint256",
          "name": "tokenId",
          "type": "uint256"
        }
      ],
      "name": "Approval",
      "type": "event"
    },
    {
      "anonymous": false,
      "inputs": [
        {
          "indexed": true,
          "internalType": "address",
          "name": "owner",
          "type": "address"
        },
        {
          "indexed": true,
          "internalType": "address",
          "name": "operator",
          "type": "address"
        },
        {
          "indexed": false,
          "internalType": "bool",
          "name": "approved",
          "type": "bool"
        }
      ],
      "name": "ApprovalForAll",
      "type": "event"
    },
    {
      "anonymous": false,
      "inputs": [
        {
          "indexed": true,
          "internalType": "uint256",
          "name": "_editionNumber",
          "type": "uint256"
        },
        {
          "indexed": true,
          "internalType": "address",
          "name": "_artistAccount",
          "type": "address"
        },
        {
          "indexed": false,
          "internalType": "string",
          "name": "_tokenURI",
          "type": "string"
        }
      ],
      "name": "EditionCreated",
      "type": "event"
    },
    {
      "anonymous": false,
      "inputs": [
        {
          "indexed": true,
          "internalType": "uint256",
          "name": "_tokenId",
          "type": "uint256"
        },
        {
          "indexed": true,
          "internalType": "uint256",
          "name": "_editionNumber",
          "type": "uint256"
        },
        {
          "indexed": true,
          "internalType": "address",
          "name": "_buyer",
          "type": "address"
        }
      ],
      "name": "Minted",
      "type": "event"
    },
    {
      "anonymous": false,
      "inputs": [
        {
          "indexed": false,
          "internalType": "address",
          "name": "account",
          "type": "address"
        }
      ],
      "name": "Paused",
      "type": "event"
    },
    {
      "anonymous": false,
      "inputs": [
        {
          "indexed": true,
          "internalType": "uint256",
          "name": "_tokenId",
          "type": "uint256"
        },
        {
          "indexed": true,
          "internalType": "uint256",
          "name": "_editionNumber",
          "type": "uint256"
        },
        {
          "indexed": true,
          "internalType": "address",
          "name": "_buyer",
          "type": "address"
        },
        {
          "indexed": false,
          "internalType": "uint256",
          "name": "_priceInWei",
          "type": "uint256"
        }
      ],
      "name": "Purchase",
      "type": "event"
    },
    {
      "anonymous": false,
      "inputs": [
        {
          "indexed": true,
          "internalType": "bytes32",
          "name": "role",
          "type": "bytes32"
        },
        {
          "indexed": true,
          "internalType": "bytes32",
          "name": "previousAdminRole",
          "type": "bytes32"
        },
        {
          "indexed": true,
          "internalType": "bytes32",
          "name": "newAdminRole",
          "type": "bytes32"
        }
      ],
      "name": "RoleAdminChanged",
      "type": "event"
    },
    {
      "anonymous": false,
      "inputs": [
        {
          "indexed": true,
          "internalType": "bytes32",
          "name": "role",
          "type": "bytes32"
        },
        {
          "indexed": true,
          "internalType": "address",
          "name": "account",
          "type": "address"
        },
        {
          "indexed": true,
          "internalType": "address",
          "name": "sender",
          "type": "address"
        }
      ],
      "name": "RoleGranted",
      "type": "event"
    },
    {
      "anonymous": false,
      "inputs": [
        {
          "indexed": true,
          "internalType": "bytes32",
          "name": "role",
          "type": "bytes32"
        },
        {
          "indexed": true,
          "internalType": "address",
          "name": "account",
          "type": "address"
        },
        {
          "indexed": true,
          "internalType": "address",
          "name": "sender",
          "type": "address"
        }
      ],
      "name": "RoleRevoked",
      "type": "event"
    },
    {
      "anonymous": false,
      "inputs": [
        {
          "indexed": true,
          "internalType": "address",
          "name": "from",
          "type": "address"
        },
        {
          "indexed": true,
          "internalType": "address",
          "name": "to",
          "type": "address"
        },
        {
          "indexed": true,
          "internalType": "uint256",
          "name": "tokenId",
          "type": "uint256"
        }
      ],
      "name": "Transfer",
      "type": "event"
    },
    {
      "anonymous": false,
      "inputs": [
        {
          "indexed": false,
          "internalType": "address",
          "name": "account",
          "type": "address"
        }
      ],
      "name": "Unpaused",
      "type": "event"
    },
    {
      "inputs": [],
      "name": "ADMIN_ROLE",
      "outputs": [
        {
          "internalType": "bytes32",
          "name": "",
          "type": "bytes32"
        }
      ],
      "stateMutability": "view",
      "type": "function",
      "constant": true
    },
    {
      "inputs": [],
      "name": "DEFAULT_ADMIN_ROLE",
      "outputs": [
        {
          "internalType": "bytes32",
          "name": "",
          "type": "bytes32"
        }
      ],
      "stateMutability": "view",
      "type": "function",
      "constant": true
    },
    {
      "inputs": [],
      "name": "LF_MEMBER",
      "outputs": [
        {
          "internalType": "bytes32",
          "name": "",
          "type": "bytes32"
        }
      ],
      "stateMutability": "view",
      "type": "function",
      "constant": true
    },
    {
      "inputs": [],
      "name": "MINTER_ROLE",
      "outputs": [
        {
          "internalType": "bytes32",
          "name": "",
          "type": "bytes32"
        }
      ],
      "stateMutability": "view",
      "type": "function",
      "constant": true
    },
    {
      "inputs": [
        {
          "internalType": "address",
          "name": "to",
          "type": "address"
        },
        {
          "internalType": "uint256",
          "name": "tokenId",
          "type": "uint256"
        }
      ],
      "name": "approve",
      "outputs": [],
      "stateMutability": "nonpayable",
      "type": "function"
    },
    {
      "inputs": [
        {
          "internalType": "address",
          "name": "owner",
          "type": "address"
        }
      ],
      "name": "balanceOf",
      "outputs": [
        {
          "internalType": "uint256",
          "name": "",
          "type": "uint256"
        }
      ],
      "stateMutability": "view",
      "type": "function",
      "constant": true
    },
    {
      "inputs": [],
      "name": "baseURI",
      "outputs": [
        {
          "internalType": "string",
          "name": "",
          "type": "string"
        }
      ],
      "stateMutability": "view",
      "type": "function",
      "constant": true
    },
    {
      "inputs": [],
      "name": "edition",
      "outputs": [
        {
          "internalType": "uint256",
          "name": "",
          "type": "uint256"
        }
      ],
      "stateMutability": "view",
      "type": "function",
      "constant": true
    },
    {
      "inputs": [
        {
          "internalType": "uint256",
          "name": "",
          "type": "uint256"
        }
      ],
      "name": "editionNumberToDetails",
      "outputs": [
        {
          "internalType": "uint256",
          "name": "editionNumber",
          "type": "uint256"
        },
        {
          "internalType": "address payable",
          "name": "artistAccount",
          "type": "address"
        },
        {
          "internalType": "uint256",
          "name": "artistCommission",
          "type": "uint256"
        },
        {
          "internalType": "uint256",
          "name": "priceInWei",
          "type": "uint256"
        },
        {
          "internalType": "string",
          "name": "tokenURI",
          "type": "string"
        },
        {
          "internalType": "uint256",
          "name": "totalSupply",
          "type": "uint256"
        },
        {
          "internalType": "uint256",
          "name": "totalAvailable",
          "type": "uint256"
        },
        {
          "internalType": "bool",
          "name": "active",
          "type": "bool"
        }
      ],
      "stateMutability": "view",
      "type": "function",
      "constant": true
    },
    {
      "inputs": [
        {
          "internalType": "uint256",
          "name": "tokenId",
          "type": "uint256"
        }
      ],
      "name": "getApproved",
      "outputs": [
        {
          "internalType": "address",
          "name": "",
          "type": "address"
        }
      ],
      "stateMutability": "view",
      "type": "function",
      "constant": true
    },
    {
      "inputs": [
        {
          "internalType": "bytes32",
          "name": "role",
          "type": "bytes32"
        }
      ],
      "name": "getRoleAdmin",
      "outputs": [
        {
          "internalType": "bytes32",
          "name": "",
          "type": "bytes32"
        }
      ],
      "stateMutability": "view",
      "type": "function",
      "constant": true
    },
    {
      "inputs": [
        {
          "internalType": "bytes32",
          "name": "role",
          "type": "bytes32"
        },
        {
          "internalType": "uint256",
          "name": "index",
          "type": "uint256"
        }
      ],
      "name": "getRoleMember",
      "outputs": [
        {
          "internalType": "address",
          "name": "",
          "type": "address"
        }
      ],
      "stateMutability": "view",
      "type": "function",
      "constant": true
    },
    {
      "inputs": [
        {
          "internalType": "bytes32",
          "name": "role",
          "type": "bytes32"
        }
      ],
      "name": "getRoleMemberCount",
      "outputs": [
        {
          "internalType": "uint256",
          "name": "",
          "type": "uint256"
        }
      ],
      "stateMutability": "view",
      "type": "function",
      "constant": true
    },
    {
      "inputs": [
        {
          "internalType": "bytes32",
          "name": "role",
          "type": "bytes32"
        },
        {
          "internalType": "address",
          "name": "account",
          "type": "address"
        }
      ],
      "name": "grantRole",
      "outputs": [],
      "stateMutability": "nonpayable",
      "type": "function"
    },
    {
      "inputs": [
        {
          "internalType": "bytes32",
          "name": "role",
          "type": "bytes32"
        },
        {
          "internalType": "address",
          "name": "account",
          "type": "address"
        }
      ],
      "name": "hasRole",
      "outputs": [
        {
          "internalType": "bool",
          "name": "",
          "type": "bool"
        }
      ],
      "stateMutability": "view",
      "type": "function",
      "constant": true
    },
    {
      "inputs": [],
      "name": "highestEditionNumber",
      "outputs": [
        {
          "internalType": "uint256",
          "name": "",
          "type": "uint256"
        }
      ],
      "stateMutability": "view",
      "type": "function",
      "constant": true
    },
    {
      "inputs": [
        {
          "internalType": "address",
          "name": "owner",
          "type": "address"
        },
        {
          "internalType": "address",
          "name": "operator",
          "type": "address"
        }
      ],
      "name": "isApprovedForAll",
      "outputs": [
        {
          "internalType": "bool",
          "name": "",
          "type": "bool"
        }
      ],
      "stateMutability": "view",
      "type": "function",
      "constant": true
    },
    {
      "inputs": [],
      "name": "lfCommissionAccount",
      "outputs": [
        {
          "internalType": "address payable",
          "name": "",
          "type": "address"
        }
      ],
      "stateMutability": "view",
      "type": "function",
      "constant": true
    },
    {
      "inputs": [],
      "name": "name",
      "outputs": [
        {
          "internalType": "string",
          "name": "",
          "type": "string"
        }
      ],
      "stateMutability": "view",
      "type": "function",
      "constant": true
    },
    {
      "inputs": [
        {
          "internalType": "uint256",
          "name": "tokenId",
          "type": "uint256"
        }
      ],
      "name": "ownerOf",
      "outputs": [
        {
          "internalType": "address",
          "name": "",
          "type": "address"
        }
      ],
      "stateMutability": "view",
      "type": "function",
      "constant": true
    },
    {
      "inputs": [],
      "name": "paused",
      "outputs": [
        {
          "internalType": "bool",
          "name": "",
          "type": "bool"
        }
      ],
      "stateMutability": "view",
      "type": "function",
      "constant": true
    },
    {
      "inputs": [
        {
          "internalType": "bytes32",
          "name": "role",
          "type": "bytes32"
        },
        {
          "internalType": "address",
          "name": "account",
          "type": "address"
        }
      ],
      "name": "renounceRole",
      "outputs": [],
      "stateMutability": "nonpayable",
      "type": "function"
    },
    {
      "inputs": [
        {
          "internalType": "bytes32",
          "name": "role",
          "type": "bytes32"
        },
        {
          "internalType": "address",
          "name": "account",
          "type": "address"
        }
      ],
      "name": "revokeRole",
      "outputs": [],
      "stateMutability": "nonpayable",
      "type": "function"
    },
    {
      "inputs": [
        {
          "internalType": "address",
          "name": "from",
          "type": "address"
        },
        {
          "internalType": "address",
          "name": "to",
          "type": "address"
        },
        {
          "internalType": "uint256",
          "name": "tokenId",
          "type": "uint256"
        }
      ],
      "name": "safeTransferFrom",
      "outputs": [],
      "stateMutability": "nonpayable",
      "type": "function"
    },
    {
      "inputs": [
        {
          "internalType": "address",
          "name": "from",
          "type": "address"
        },
        {
          "internalType": "address",
          "name": "to",
          "type": "address"
        },
        {
          "internalType": "uint256",
          "name": "tokenId",
          "type": "uint256"
        },
        {
          "internalType": "bytes",
          "name": "_data",
          "type": "bytes"
        }
      ],
      "name": "safeTransferFrom",
      "outputs": [],
      "stateMutability": "nonpayable",
      "type": "function"
    },
    {
      "inputs": [
        {
          "internalType": "address",
          "name": "operator",
          "type": "address"
        },
        {
          "internalType": "bool",
          "name": "approved",
          "type": "bool"
        }
      ],
      "name": "setApprovalForAll",
      "outputs": [],
      "stateMutability": "nonpayable",
      "type": "function"
    },
    {
      "inputs": [
        {
          "internalType": "bytes4",
          "name": "interfaceId",
          "type": "bytes4"
        }
      ],
      "name": "supportsInterface",
      "outputs": [
        {
          "internalType": "bool",
          "name": "",
          "type": "bool"
        }
      ],
      "stateMutability": "view",
      "type": "function",
      "constant": true
    },
    {
      "inputs": [],
      "name": "symbol",
      "outputs": [
        {
          "internalType": "string",
          "name": "",
          "type": "string"
        }
      ],
      "stateMutability": "view",
      "type": "function",
      "constant": true
    },
    {
      "inputs": [
        {
          "internalType": "uint256",
          "name": "index",
          "type": "uint256"
        }
      ],
      "name": "tokenByIndex",
      "outputs": [
        {
          "internalType": "uint256",
          "name": "",
          "type": "uint256"
        }
      ],
      "stateMutability": "view",
      "type": "function",
      "constant": true
    },
    {
      "inputs": [
        {
          "internalType": "address",
          "name": "owner",
          "type": "address"
        },
        {
          "internalType": "uint256",
          "name": "index",
          "type": "uint256"
        }
      ],
      "name": "tokenOfOwnerByIndex",
      "outputs": [
        {
          "internalType": "uint256",
          "name": "",
          "type": "uint256"
        }
      ],
      "stateMutability": "view",
      "type": "function",
      "constant": true
    },
    {
      "inputs": [
        {
          "internalType": "uint256",
          "name": "tokenId",
          "type": "uint256"
        }
      ],
      "name": "tokenURI",
      "outputs": [
        {
          "internalType": "string",
          "name": "",
          "type": "string"
        }
      ],
      "stateMutability": "view",
      "type": "function",
      "constant": true
    },
    {
      "inputs": [],
      "name": "totalItemsAvailable",
      "outputs": [
        {
          "internalType": "uint256",
          "name": "",
          "type": "uint256"
        }
      ],
      "stateMutability": "view",
      "type": "function",
      "constant": true
    },
    {
      "inputs": [],
      "name": "totalNumberMinted",
      "outputs": [
        {
          "internalType": "uint256",
          "name": "",
          "type": "uint256"
        }
      ],
      "stateMutability": "view",
      "type": "function",
      "constant": true
    },
    {
      "inputs": [],
      "name": "totalPurchaseValueInWei",
      "outputs": [
        {
          "internalType": "uint256",
          "name": "",
          "type": "uint256"
        }
      ],
      "stateMutability": "view",
      "type": "function",
      "constant": true
    },
    {
      "inputs": [],
      "name": "totalSupply",
      "outputs": [
        {
          "internalType": "uint256",
          "name": "",
          "type": "uint256"
        }
      ],
      "stateMutability": "view",
      "type": "function",
      "constant": true
    },
    {
      "inputs": [
        {
          "internalType": "address",
          "name": "from",
          "type": "address"
        },
        {
          "internalType": "address",
          "name": "to",
          "type": "address"
        },
        {
          "internalType": "uint256",
          "name": "tokenId",
          "type": "uint256"
        }
      ],
      "name": "transferFrom",
      "outputs": [],
      "stateMutability": "nonpayable",
      "type": "function"
    },
    {
      "inputs": [
        {
          "internalType": "uint256",
          "name": "_editionNumber",
          "type": "uint256"
        },
        {
          "internalType": "address payable",
          "name": "_artistAccount",
          "type": "address"
        },
        {
          "internalType": "uint256",
          "name": "_artistCommission",
          "type": "uint256"
        },
        {
          "internalType": "uint256",
          "name": "_priceInWei",
          "type": "uint256"
        },
        {
          "internalType": "string",
          "name": "_tokenURI",
          "type": "string"
        },
        {
          "internalType": "uint256",
          "name": "_maxAvailable",
          "type": "uint256"
        }
      ],
      "name": "createActiveEdition",
      "outputs": [
        {
          "internalType": "bool",
          "name": "",
          "type": "bool"
        }
      ],
      "stateMutability": "nonpayable",
      "type": "function"
    },
    {
      "inputs": [
        {
          "internalType": "uint256",
          "name": "_editionNumber",
          "type": "uint256"
        },
        {
          "internalType": "address payable",
          "name": "_artistAccount",
          "type": "address"
        },
        {
          "internalType": "uint256",
          "name": "_artistCommission",
          "type": "uint256"
        },
        {
          "internalType": "uint256",
          "name": "_priceInWei",
          "type": "uint256"
        },
        {
          "internalType": "string",
          "name": "_tokenURI",
          "type": "string"
        },
        {
          "internalType": "uint256",
          "name": "_totalAvailable",
          "type": "uint256"
        }
      ],
      "name": "createInactiveEdition",
      "outputs": [
        {
          "internalType": "bool",
          "name": "",
          "type": "bool"
        }
      ],
      "stateMutability": "nonpayable",
      "type": "function"
    },
    {
      "inputs": [
        {
          "internalType": "uint256",
          "name": "_editionNumber",
          "type": "uint256"
        },
        {
          "internalType": "address payable",
          "name": "_artistAccount",
          "type": "address"
        },
        {
          "internalType": "uint256",
          "name": "_artistCommission",
          "type": "uint256"
        },
        {
          "internalType": "uint256",
          "name": "_priceInWei",
          "type": "uint256"
        },
        {
          "internalType": "string",
          "name": "_tokenURI",
          "type": "string"
        },
        {
          "internalType": "uint256",
          "name": "_totalSupply",
          "type": "uint256"
        },
        {
          "internalType": "uint256",
          "name": "_totalAvailable",
          "type": "uint256"
        }
      ],
      "name": "createActivePreMintedEdition",
      "outputs": [
        {
          "internalType": "bool",
          "name": "",
          "type": "bool"
        }
      ],
      "stateMutability": "nonpayable",
      "type": "function"
    },
    {
      "inputs": [
        {
          "internalType": "uint256",
          "name": "_editionNumber",
          "type": "uint256"
        },
        {
          "internalType": "address payable",
          "name": "_artistAccount",
          "type": "address"
        },
        {
          "internalType": "uint256",
          "name": "_artistCommission",
          "type": "uint256"
        },
        {
          "internalType": "uint256",
          "name": "_priceInWei",
          "type": "uint256"
        },
        {
          "internalType": "string",
          "name": "_tokenURI",
          "type": "string"
        },
        {
          "internalType": "uint256",
          "name": "_totalSupply",
          "type": "uint256"
        },
        {
          "internalType": "uint256",
          "name": "_totalAvailable",
          "type": "uint256"
        }
      ],
      "name": "createInactivePreMintedEdition",
      "outputs": [
        {
          "internalType": "bool",
          "name": "",
          "type": "bool"
        }
      ],
      "stateMutability": "nonpayable",
      "type": "function"
    },
    {
      "inputs": [
        {
          "internalType": "uint256",
          "name": "_editionNumber",
          "type": "uint256"
        }
      ],
      "name": "purchase",
      "outputs": [
        {
          "internalType": "uint256",
          "name": "",
          "type": "uint256"
        }
      ],
      "stateMutability": "payable",
      "type": "function",
      "payable": true
    },
    {
      "inputs": [
        {
          "internalType": "address",
          "name": "_to",
          "type": "address"
        },
        {
          "internalType": "uint256",
          "name": "_editionNumber",
          "type": "uint256"
        }
      ],
      "name": "purchaseTo",
      "outputs": [
        {
          "internalType": "uint256",
          "name": "",
          "type": "uint256"
        }
      ],
      "stateMutability": "payable",
      "type": "function",
      "payable": true
    },
    {
      "inputs": [
        {
          "internalType": "address",
          "name": "_to",
          "type": "address"
        },
        {
          "internalType": "uint256",
          "name": "_editionNumber",
          "type": "uint256"
        }
      ],
      "name": "mint",
      "outputs": [
        {
          "internalType": "uint256",
          "name": "",
          "type": "uint256"
        }
      ],
      "stateMutability": "nonpayable",
      "type": "function"
    },
    {
      "inputs": [
        {
          "internalType": "address",
          "name": "_to",
          "type": "address"
        },
        {
          "internalType": "uint256",
          "name": "_editionNumber",
          "type": "uint256"
        }
      ],
      "name": "underMint",
      "outputs": [
        {
          "internalType": "uint256",
          "name": "",
          "type": "uint256"
        }
      ],
      "stateMutability": "nonpayable",
      "type": "function"
    },
    {
      "inputs": [
        {
          "internalType": "uint256",
          "name": "_tokenId",
          "type": "uint256"
        }
      ],
      "name": "burn",
      "outputs": [],
      "stateMutability": "nonpayable",
      "type": "function"
    },
    {
      "inputs": [
        {
          "internalType": "address payable",
          "name": "_lfCommissionAccount",
          "type": "address"
        }
      ],
      "name": "updateLFCommissionAccount",
      "outputs": [],
      "stateMutability": "nonpayable",
      "type": "function"
    },
    {
      "inputs": [
        {
          "internalType": "uint256",
          "name": "_editionNumber",
          "type": "uint256"
        },
        {
          "internalType": "string",
          "name": "_uri",
          "type": "string"
        }
      ],
      "name": "updateEditionTokenURI",
      "outputs": [],
      "stateMutability": "nonpayable",
      "type": "function"
    },
    {
      "inputs": [
        {
          "internalType": "uint256",
          "name": "_editionNumber",
          "type": "uint256"
        },
        {
          "internalType": "uint256",
          "name": "_priceInWei",
          "type": "uint256"
        }
      ],
      "name": "updatePriceInWei",
      "outputs": [],
      "stateMutability": "nonpayable",
      "type": "function"
    },
    {
      "inputs": [
        {
          "internalType": "uint256",
          "name": "_editionNumber",
          "type": "uint256"
        },
        {
          "internalType": "uint256",
          "name": "_rate",
          "type": "uint256"
        }
      ],
      "name": "updateArtistCommission",
      "outputs": [],
      "stateMutability": "nonpayable",
      "type": "function"
    },
    {
      "inputs": [
        {
          "internalType": "uint256",
          "name": "_editionNumber",
          "type": "uint256"
        },
        {
          "internalType": "address payable",
          "name": "_artistAccount",
          "type": "address"
        }
      ],
      "name": "updateArtistsAccount",
      "outputs": [],
      "stateMutability": "nonpayable",
      "type": "function"
    },
    {
      "inputs": [
        {
          "internalType": "uint256",
          "name": "_editionNumber",
          "type": "uint256"
        },
        {
          "internalType": "bool",
          "name": "_active",
          "type": "bool"
        }
      ],
      "name": "updateActive",
      "outputs": [],
      "stateMutability": "nonpayable",
      "type": "function"
    },
    {
      "inputs": [
        {
          "internalType": "uint256",
          "name": "_editionNumber",
          "type": "uint256"
        },
        {
          "internalType": "uint256",
          "name": "_totalSupply",
          "type": "uint256"
        }
      ],
      "name": "updateTotalSupply",
      "outputs": [],
      "stateMutability": "nonpayable",
      "type": "function"
    },
    {
      "inputs": [
        {
          "internalType": "uint256",
          "name": "_editionNumber",
          "type": "uint256"
        },
        {
          "internalType": "uint256",
          "name": "_totalAvailable",
          "type": "uint256"
        }
      ],
      "name": "updateTotalAvailable",
      "outputs": [],
      "stateMutability": "nonpayable",
      "type": "function"
    },
    {
      "inputs": [
        {
          "internalType": "uint256",
          "name": "_tokenId",
          "type": "uint256"
        },
        {
          "internalType": "string",
          "name": "_uri",
          "type": "string"
        }
      ],
      "name": "setTokenURI",
      "outputs": [],
      "stateMutability": "nonpayable",
      "type": "function"
    },
    {
      "inputs": [
        {
          "internalType": "uint256",
          "name": "_tokenId",
          "type": "uint256"
        }
      ],
      "name": "editionOfTokenId",
      "outputs": [
        {
          "internalType": "uint256",
          "name": "_editionNumber",
          "type": "uint256"
        }
      ],
      "stateMutability": "view",
      "type": "function",
      "constant": true
    },
    {
      "inputs": [
        {
          "internalType": "address",
          "name": "_artistsAccount",
          "type": "address"
        }
      ],
      "name": "artistsEditions",
      "outputs": [
        {
          "internalType": "uint256[]",
          "name": "_editionNumbers",
          "type": "uint256[]"
        }
      ],
      "stateMutability": "view",
      "type": "function",
      "constant": true
    },
    {
      "inputs": [
        {
          "internalType": "uint256",
          "name": "_editionNumber",
          "type": "uint256"
        }
      ],
      "name": "tokensOfEdition",
      "outputs": [
        {
          "internalType": "uint256[]",
          "name": "_tokenIds",
          "type": "uint256[]"
        }
      ],
      "stateMutability": "view",
      "type": "function",
      "constant": true
    },
    {
      "inputs": [
        {
          "internalType": "uint256",
          "name": "editionNumber",
          "type": "uint256"
        }
      ],
      "name": "detailsOfEdition",
      "outputs": [
        {
          "internalType": "address payable",
          "name": "_artistAccount",
          "type": "address"
        },
        {
          "internalType": "uint256",
          "name": "_artistCommission",
          "type": "uint256"
        },
        {
          "internalType": "uint256",
          "name": "_priceInWei",
          "type": "uint256"
        },
        {
          "internalType": "string",
          "name": "_tokenURI",
          "type": "string"
        },
        {
          "internalType": "uint256",
          "name": "_circulatingSupply",
          "type": "uint256"
        },
        {
          "internalType": "uint256",
          "name": "_maxAvailable",
          "type": "uint256"
        },
        {
          "internalType": "bool",
          "name": "_active",
          "type": "bool"
        }
      ],
      "stateMutability": "view",
      "type": "function",
      "constant": true
    },
    {
      "inputs": [
        {
          "internalType": "uint256",
          "name": "_tokenId",
          "type": "uint256"
        }
      ],
      "name": "tokenData",
      "outputs": [
        {
          "internalType": "uint256",
          "name": "_editionNumber",
          "type": "uint256"
        },
        {
          "internalType": "string",
          "name": "_tokenURI",
          "type": "string"
        },
        {
          "internalType": "address",
          "name": "_owner",
          "type": "address"
        }
      ],
      "stateMutability": "view",
      "type": "function",
      "constant": true
    },
    {
      "inputs": [
        {
          "internalType": "uint256",
          "name": "_tokenId",
          "type": "uint256"
        }
      ],
      "name": "priceInWeiToken",
      "outputs": [
        {
          "internalType": "uint256",
          "name": "_priceInWei",
          "type": "uint256"
        }
      ],
      "stateMutability": "view",
      "type": "function",
      "constant": true
    },
    {
      "inputs": [
        {
          "internalType": "uint256",
          "name": "_editionNumber",
          "type": "uint256"
        }
      ],
      "name": "priceInWeiEdition",
      "outputs": [
        {
          "internalType": "uint256",
          "name": "_priceInWei",
          "type": "uint256"
        }
      ],
      "stateMutability": "view",
      "type": "function",
      "constant": true
    },
    {
      "inputs": [
        {
          "internalType": "uint256",
          "name": "_editionNumber",
          "type": "uint256"
        }
      ],
      "name": "editionExists",
      "outputs": [
        {
          "internalType": "bool",
          "name": "",
          "type": "bool"
        }
      ],
      "stateMutability": "view",
      "type": "function",
      "constant": true
    },
    {
      "inputs": [
        {
          "internalType": "uint256",
          "name": "_tokenId",
          "type": "uint256"
        }
      ],
      "name": "tokenExists",
      "outputs": [
        {
          "internalType": "bool",
          "name": "",
          "type": "bool"
        }
      ],
      "stateMutability": "view",
      "type": "function",
      "constant": true
    },
    {
      "inputs": [
        {
          "internalType": "uint256",
          "name": "_editionNumber",
          "type": "uint256"
        }
      ],
      "name": "editionActive",
      "outputs": [
        {
          "internalType": "bool",
          "name": "",
          "type": "bool"
        }
      ],
      "stateMutability": "view",
      "type": "function",
      "constant": true
    },
    {
      "inputs": [
        {
          "internalType": "uint256",
          "name": "_editionNumber",
          "type": "uint256"
        }
      ],
      "name": "artistCommission",
      "outputs": [
        {
          "internalType": "address payable",
          "name": "_artistAccount",
          "type": "address"
        },
        {
          "internalType": "uint256",
          "name": "_artistCommission",
          "type": "uint256"
        }
      ],
      "stateMutability": "view",
      "type": "function",
      "constant": true
    },
    {
      "inputs": [
        {
          "internalType": "uint256",
          "name": "_editionNumber",
          "type": "uint256"
        }
      ],
      "name": "totalRemaining",
      "outputs": [
        {
          "internalType": "uint256",
          "name": "",
          "type": "uint256"
        }
      ],
      "stateMutability": "view",
      "type": "function",
      "constant": true
    },
    {
      "inputs": [
        {
          "internalType": "uint256",
          "name": "_editionNumber",
          "type": "uint256"
        }
      ],
      "name": "totalAvailableEdition",
      "outputs": [
        {
          "internalType": "uint256",
          "name": "",
          "type": "uint256"
        }
      ],
      "stateMutability": "view",
      "type": "function",
      "constant": true
    }
  ],
  "bytecode": "0x60806040523480156200001157600080fd5b50604080518082018252601a81527f4c6f6e67626f6172642046616d617261204f726967696e616c73000000000000602080830191909152825180840190935260038352624c464f60e81b9083015290620000736301ffc9a760e01b6200018a565b81516200008890600690602085019062000325565b5080516200009e90600790602084019062000325565b50620000b16380ac58cd60e01b6200018a565b620000c3635b5e139f60e01b6200018a565b620000d563780e9d6360e01b6200018a565b5050600b805460ff19169055620000ee6000336200020f565b6200011a7fa49807205ce4d355092ef5a8a18f56e8913cf4a201fbe287825b095693c21775336200020f565b620001467f9f2df0fed2c77648de5860a4cc508cd0818c85b8b8a1ab4ceeef8d981c8956a6336200020f565b620001727f8dc374d7af307bd169c3aa50528e800ae355aa4b1ea79d779d09d949d3067297336200020f565b601180546001600160a01b03191633179055620003c1565b6001600160e01b03198082161415620001ea576040805162461bcd60e51b815260206004820152601c60248201527f4552433136353a20696e76616c696420696e7465726661636520696400000000604482015290519081900360640190fd5b6001600160e01b0319166000908152602081905260409020805460ff19166001179055565b6200021b82826200021f565b5050565b6000828152600a60209081526040909120620002469183906200340b6200029a821b17901c565b156200021b5762000256620002ba565b6001600160a01b0316816001600160a01b0316837f2f8788117e7eff1d82e926ec794901d17c78024a50270940304540a733656f0d60405160405180910390a45050565b6000620002b1836001600160a01b038416620002be565b90505b92915050565b3390565b6000620002cc83836200030d565b6200030457508154600181810184556000848152602080822090930184905584548482528286019093526040902091909155620002b4565b506000620002b4565b60009081526001919091016020526040902054151590565b828054600181600116156101000203166002900490600052602060002090601f016020900481019282601f106200036857805160ff191683800117855562000398565b8280016001018555821562000398579182015b82811115620003985782518255916020019190600101906200037b565b50620003a6929150620003aa565b5090565b5b80821115620003a65760008155600101620003ab565b61519a80620003d16000396000f3fe6080604052600436106103e35760003560e01c80637a85c02a11610208578063bbd1e1fc11610118578063d5391393116100ab578063e2d78fcd1161007a578063e2d78fcd14611535578063e985e9c51461154a578063efef39a114611585578063f1ff3d4b146115a2578063f8b4ab7a146115b7576103e3565b8063d539139314611335578063d547741f1461134a578063d67462cc14611383578063d7d8046814611461576103e3565b8063c87b56dd116100e7578063c87b56dd146111d7578063ca15c87314611201578063ca4f72931461122b578063d24e5df91461125e576103e3565b8063bbd1e1fc14611129578063bc02844c14611153578063bdcdc0bc1461117d578063c2b2fb5e146111ad576103e3565b806391d148541161019b578063a22cb4651161016a578063a22cb46514610f16578063abf3260f14610f51578063afa7a25f14610f66578063b4b5b48f14610f9f578063b88d4fde14611058576103e3565b806391d1485414610e9e57806395d89b4114610ed75780639673c9db14610eec578063a217fddf14610f01576103e3565b806385d7b34d116101d757806385d7b34d14610d56578063891407c014610e2d5780638e98f86a14610e595780639010d07c14610e6e576103e3565b80637a85c02a14610c995780637d55758f14610cc35780637eb9f04a14610cfc578063824eec3b14610d2c576103e3565b806340c10f19116103035780636352211e116102965780636c0360eb116102655780636c0360eb14610ae357806370a0823114610af857806371c847b214610b2b57806375b238fc14610c0257806375dcb70a14610c17576103e3565b80636352211e146109f7578063645727a514610a215780636641179e14610a365780636a02869214610ab9576103e3565b80634f6ccce7116102d25780634f6ccce7146108b45780635091f881146108de5780635c975abb1461090e5780635df0898014610923576103e3565b806340c10f19146107e457806342842e0e1461081d57806342966c681461086057806343bf63e81461088a576103e3565b806318160ddd1161037b5780632f2ff15d1161034a5780632f2ff15d146106ec5780632f745c591461072557806332fd84781461075e57806336568abe146107ab576103e3565b806318160ddd1461065557806323b872dd1461066a578063248a9ca3146106ad5780632bbd84e8146106d7576103e3565b8063081812fc116103b7578063081812fc14610518578063095ea7b31461055e5780631534738014610597578063162094c4146105d3576103e3565b8062923f9e146103e857806301ffc9a71461042657806304bb1e3d1461045a57806306fdde031461048e575b600080fd5b3480156103f457600080fd5b506104126004803603602081101561040b57600080fd5b50356115e7565b604080519115158252519081900360200190f35b34801561043257600080fd5b506104126004803603602081101561044957600080fd5b50356001600160e01b031916611647565b34801561046657600080fd5b5061048c6004803603604081101561047d57600080fd5b5080359060200135151561166a565b005b34801561049a57600080fd5b506104a361171d565b6040805160208082528351818301528351919283929083019185019080838360005b838110156104dd5781810151838201526020016104c5565b50505050905090810190601f16801561050a5780820380516001836020036101000a031916815260200191505b509250505060405180910390f35b34801561052457600080fd5b506105426004803603602081101561053b57600080fd5b50356117b3565b604080516001600160a01b039092168252519081900360200190f35b34801561056a57600080fd5b5061048c6004803603604081101561058157600080fd5b506001600160a01b038135169060200135611815565b3480156105a357600080fd5b506105c1600480360360208110156105ba57600080fd5b50356118f0565b60408051918252519081900360200190f35b3480156105df57600080fd5b5061048c600480360360408110156105f657600080fd5b81359190810190604081016020820135600160201b81111561061757600080fd5b82018360208201111561062957600080fd5b803590602001918460018302840111600160201b8311171561064a57600080fd5b50909250905061190f565b34801561066157600080fd5b506105c16119e9565b34801561067657600080fd5b5061048c6004803603606081101561068d57600080fd5b506001600160a01b038135811691602081013590911690604001356119fa565b3480156106b957600080fd5b506105c1600480360360208110156106d057600080fd5b5035611a51565b3480156106e357600080fd5b506105c1611a66565b3480156106f857600080fd5b5061048c6004803603604081101561070f57600080fd5b50803590602001356001600160a01b0316611a6c565b34801561073157600080fd5b506105c16004803603604081101561074857600080fd5b506001600160a01b038135169060200135611ad8565b34801561076a57600080fd5b506107886004803603602081101561078157600080fd5b5035611b03565b604080516001600160a01b03909316835260208301919091528051918290030190f35b3480156107b757600080fd5b5061048c600480360360408110156107ce57600080fd5b50803590602001356001600160a01b0316611b2a565b3480156107f057600080fd5b506105c16004803603604081101561080757600080fd5b506001600160a01b038135169060200135611b8b565b34801561082957600080fd5b5061048c6004803603606081101561084057600080fd5b506001600160a01b03813581169160208101359091169060400135611d45565b34801561086c57600080fd5b5061048c6004803603602081101561088357600080fd5b5035611d60565b34801561089657600080fd5b506105c1600480360360208110156108ad57600080fd5b5035611df3565b3480156108c057600080fd5b506105c1600480360360208110156108d757600080fd5b5035611e08565b3480156108ea57600080fd5b5061048c6004803603604081101561090157600080fd5b5080359060200135611e1e565b34801561091a57600080fd5b50610412611ec3565b34801561092f57600080fd5b50610412600480360360c081101561094657600080fd5b8135916001600160a01b036020820135169160408201359160608101359181019060a081016080820135600160201b81111561098157600080fd5b82018360208201111561099357600080fd5b803590602001918460018302840111600160201b831117156109b457600080fd5b91908080601f0160208091040260200160405190810160405280939291908181526020018383808284376000920191909152509295505091359250611ecc915050565b348015610a0357600080fd5b5061054260048036036020811015610a1a57600080fd5b5035611f28565b348015610a2d57600080fd5b506105c1611f50565b348015610a4257600080fd5b50610a6960048036036020811015610a5957600080fd5b50356001600160a01b0316611f62565b60408051602080825283518183015283519192839290830191858101910280838360005b83811015610aa5578181015183820152602001610a8d565b505050509050019250505060405180910390f35b348015610ac557600080fd5b506105c160048036036020811015610adc57600080fd5b5035611fce565b348015610aef57600080fd5b506104a3611fe3565b348015610b0457600080fd5b506105c160048036036020811015610b1b57600080fd5b50356001600160a01b0316612044565b348015610b3757600080fd5b50610b5560048036036020811015610b4e57600080fd5b50356120ac565b60405180886001600160a01b03168152602001878152602001868152602001806020018581526020018481526020018315158152602001828103825286818151815260200191508051906020019080838360005b83811015610bc1578181015183820152602001610ba9565b50505050905090810190601f168015610bee5780820380516001836020036101000a031916815260200191505b509850505050505050505060405180910390f35b348015610c0e57600080fd5b506105c1612208565b348015610c2357600080fd5b5061048c60048036036040811015610c3a57600080fd5b81359190810190604081016020820135600160201b811115610c5b57600080fd5b820183602082011115610c6d57600080fd5b803590602001918460018302840111600160201b83111715610c8e57600080fd5b50909250905061221a565b348015610ca557600080fd5b50610a6960048036036020811015610cbc57600080fd5b50356122cc565b348015610ccf57600080fd5b506105c160048036036040811015610ce657600080fd5b506001600160a01b03813516906020013561232c565b348015610d0857600080fd5b5061048c60048036036040811015610d1f57600080fd5b50803590602001356124b5565b348015610d3857600080fd5b506105c160048036036020811015610d4f57600080fd5b503561255a565b348015610d6257600080fd5b50610412600480360360e0811015610d7957600080fd5b8135916001600160a01b036020820135169160408201359160608101359181019060a081016080820135600160201b811115610db457600080fd5b820183602082011115610dc657600080fd5b803590602001918460018302840111600160201b83111715610de757600080fd5b91908080601f016020809104026020016040519081016040528093929190818152602001838380828437600092019190915250929550508235935050506020013561256c565b6105c160048036036040811015610e4357600080fd5b506001600160a01b0381351690602001356125d6565b348015610e6557600080fd5b506105c161285e565b348015610e7a57600080fd5b5061054260048036036040811015610e9157600080fd5b5080359060200135612864565b348015610eaa57600080fd5b5061041260048036036040811015610ec157600080fd5b50803590602001356001600160a01b031661287c565b348015610ee357600080fd5b506104a3612894565b348015610ef857600080fd5b506105c16128f5565b348015610f0d57600080fd5b506105c16128fb565b348015610f2257600080fd5b5061048c60048036036040811015610f3957600080fd5b506001600160a01b0381351690602001351515612900565b348015610f5d57600080fd5b506105c1612a05565b348015610f7257600080fd5b5061048c60048036036040811015610f8957600080fd5b50803590602001356001600160a01b0316612a0b565b348015610fab57600080fd5b50610fc960048036036020811015610fc257600080fd5b5035612b3c565b6040518084815260200180602001836001600160a01b03168152602001828103825284818151815260200191508051906020019080838360005b8381101561101b578181015183820152602001611003565b50505050905090810190601f1680156110485780820380516001836020036101000a031916815260200191505b5094505050505060405180910390f35b34801561106457600080fd5b5061048c6004803603608081101561107b57600080fd5b6001600160a01b03823581169260208101359091169160408201359190810190608081016060820135600160201b8111156110b557600080fd5b8201836020820111156110c757600080fd5b803590602001918460018302840111600160201b831117156110e857600080fd5b91908080601f016020809104026020016040519081016040528093929190818152602001838380828437600092019190915250929550612bc8945050505050565b34801561113557600080fd5b506104126004803603602081101561114c57600080fd5b5035612c20565b34801561115f57600080fd5b506105c16004803603602081101561117657600080fd5b5035612c38565b34801561118957600080fd5b5061048c600480360360408110156111a057600080fd5b5080359060200135612c59565b3480156111b957600080fd5b50610412600480360360208110156111d057600080fd5b5035612d66565b3480156111e357600080fd5b506104a3600480360360208110156111fa57600080fd5b5035612d89565b34801561120d57600080fd5b506105c16004803603602081101561122457600080fd5b5035613030565b34801561123757600080fd5b5061048c6004803603602081101561124e57600080fd5b50356001600160a01b0316613047565b34801561126a57600080fd5b50610412600480360360e081101561128157600080fd5b8135916001600160a01b036020820135169160408201359160608101359181019060a081016080820135600160201b8111156112bc57600080fd5b8201836020820111156112ce57600080fd5b803590602001918460018302840111600160201b831117156112ef57600080fd5b91908080601f01602080910402602001604051908101604052809392919081815260200183838082843760009201919091525092955050823593505050602001356130d7565b34801561134157600080fd5b506105c1613128565b34801561135657600080fd5b5061048c6004803603604081101561136d57600080fd5b50803590602001356001600160a01b031661314c565b34801561138f57600080fd5b506113ad600480360360208110156113a657600080fd5b50356131a5565b60405180898152602001886001600160a01b03168152602001878152602001868152602001806020018581526020018481526020018315158152602001828103825286818151815260200191508051906020019080838360005b8381101561141f578181015183820152602001611407565b50505050905090810190601f16801561144c5780820380516001836020036101000a031916815260200191505b50995050505050505050505060405180910390f35b34801561146d57600080fd5b50610412600480360360c081101561148457600080fd5b8135916001600160a01b036020820135169160408201359160608101359181019060a081016080820135600160201b8111156114bf57600080fd5b8201836020820111156114d157600080fd5b803590602001918460018302840111600160201b831117156114f257600080fd5b91908080601f016020809104026020016040519081016040528093929190818152602001838380828437600092019190915250929550509135925061327e915050565b34801561154157600080fd5b506105426132cf565b34801561155657600080fd5b506104126004803603604081101561156d57600080fd5b506001600160a01b03813581169160200135166132de565b6105c16004803603602081101561159b57600080fd5b503561330c565b3480156115ae57600080fd5b506105c1613318565b3480156115c357600080fd5b5061048c600480360360408110156115da57600080fd5b508035906020013561331e565b6000816115f381613420565b61163e576040805162461bcd60e51b8152602060048201526017602482015276151bdad95b88125108191bd95cc81b9bdd08195e1a5cdd604a1b604482015290519081900360640190fd5b50600192915050565b6001600160e01b0319811660009081526020819052604090205460ff165b919050565b6116826000805160206150b88339815191523361287c565b806116a057506116a0600080516020614dd88339815191523361287c565b6116a957600080fd5b60008281526012602052604090205482906116f9576040805162461bcd60e51b81526020600482015260166024820152600080516020614c93833981519152604482015290519081900360640190fd5b50600091825260126020526040909120600701805460ff1916911515919091179055565b60068054604080516020601f60026000196101006001881615020190951694909404938401819004810282018101909252828152606093909290918301828280156117a95780601f1061177e576101008083540402835291602001916117a9565b820191906000526020600020905b81548152906001019060200180831161178c57829003601f168201915b5050505050905090565b60006117be82613420565b6117f95760405162461bcd60e51b815260040180806020018281038252602c815260200180614f71602c913960400191505060405180910390fd5b506000908152600460205260409020546001600160a01b031690565b600061182082611f28565b9050806001600160a01b0316836001600160a01b031614156118735760405162461bcd60e51b81526004018080602001828103825260218152602001806150666021913960400191505060405180910390fd5b806001600160a01b031661188561342d565b6001600160a01b031614806118a657506118a6816118a161342d565b6132de565b6118e15760405162461bcd60e51b8152600401808060200182810382526038815260200180614e826038913960400191505060405180910390fd5b6118eb8383613431565b505050565b60008181526013602052604081205461190881611df3565b9392505050565b6119276000805160206150b88339815191523361287c565b806119455750611945600080516020614dd88339815191523361287c565b61194e57600080fd5b8261195881613420565b6119a3576040805162461bcd60e51b8152602060048201526017602482015276151bdad95b88125108191bd95cc81b9bdd08195e1a5cdd604a1b604482015290519081900360640190fd5b6119e38484848080601f01602080910402602001604051908101604052809392919081815260200183838082843760009201919091525061349f92505050565b50505050565b60006119f56002613502565b905090565b611a0b611a0561342d565b8261350d565b611a465760405162461bcd60e51b81526004018080602001828103825260318152602001806150876031913960400191505060405180910390fd5b6118eb8383836135a9565b6000908152600a602052604090206002015490565b60105481565b6000828152600a6020526040902060020154611a8f90611a8a61342d565b61287c565b611aca5760405162461bcd60e51b815260040180806020018281038252602f815260200180614c64602f913960400191505060405180910390fd5b611ad482826136f5565b5050565b6001600160a01b0382166000908152600160205260408120611afa908361375e565b90505b92915050565b600090815260126020526040902060018101546002909101546001600160a01b0390911691565b611b3261342d565b6001600160a01b0316816001600160a01b031614611b815760405162461bcd60e51b815260040180806020018281038252602f815260200180615136602f913960400191505060405180910390fd5b611ad4828261376a565b6000611ba56000805160206150b88339815191523361287c565b80611bd55750611bd57f9f2df0fed2c77648de5860a4cc508cd0818c85b8b8a1ab4ceeef8d981c8956a63361287c565b611bde57600080fd5b6000828152601260205260409020548290611c2e576040805162461bcd60e51b81526020600482015260166024820152600080516020614c93833981519152604482015290519081900360640190fd5b60008381526012602052604090206006810154600590910154849111611c855760405162461bcd60e51b8152600401808060200182810382526021815260200180614f0d6021913960400191505060405180910390fd5b6000611c90856137d3565b6000868152601260209081526040918290206004018054835160026001831615610100026000190190921691909104601f8101849004840282018401909452838152939450611d3c938a9386938b939190830182828015611d325780601f10611d0757610100808354040283529160200191611d32565b820191906000526020600020905b815481529060010190602001808311611d1557829003601f168201915b5050505050613803565b95945050505050565b6118eb83838360405180602001604052806000815250612bc8565b611d786000805160206150b88339815191523361287c565b80611d965750611d96600080516020614dd88339815191523361287c565b611d9f57600080fd5b611da8816138a7565b60008181526013602090815260408083208054908490558084526014835281842085855260159093529220548154829082908110611de257fe5b600091825260208220015550505050565b60009081526012602052604090206003015490565b600080611e16600284613974565b509392505050565b611e366000805160206150b88339815191523361287c565b80611e545750611e54600080516020614dd88339815191523361287c565b611e5d57600080fd5b6000828152601260205260409020548290611ead576040805162461bcd60e51b81526020600482015260166024820152600080516020614c93833981519152604482015290519081900360640190fd5b5060009182526012602052604090912060020155565b600b5460ff1690565b6000611ee66000805160206150b88339815191523361287c565b80611f045750611f04600080516020614dd88339815191523361287c565b611f0d57600080fd5b611f1d8787878787876000613990565b979650505050505050565b6000611afd82604051806060016040528060298152602001614ee46029913960029190613da1565b600080516020614dd883398151915281565b6001600160a01b038116600090815260166020908152604091829020805483518184028101840190945280845260609392830182828015611fc257602002820191906000526020600020905b815481526020019060010190808311611fae575b50505050509050919050565b60009081526012602052604090206006015490565b60098054604080516020601f60026000196101006001881615020190951694909404938401819004810282018101909252828152606093909290918301828280156117a95780601f1061177e576101008083540402835291602001916117a9565b60006001600160a01b03821661208b5760405162461bcd60e51b815260040180806020018281038252602a815260200180614eba602a913960400191505060405180910390fd5b6001600160a01b0382166000908152600160205260409020611afd90613502565b600080600060606000806000876000601260008381526020019081526020016000206000015411612112576040805162461bcd60e51b81526020600482015260166024820152600080516020614c93833981519152604482015290519081900360640190fd5b60008981526012602090815260409182902060018082015460028084015460038501546005860154600687015460078801546004890180548c516101009a8216159a909a02600019011696909604601f81018b90048b0289018b01909b528a885297996001600160a01b03909616989397929694959194909360ff90931692909186918301828280156121e65780601f106121bb576101008083540402835291602001916121e6565b820191906000526020600020905b8154815290600101906020018083116121c957829003601f168201915b5050505050935098509850985098509850985098505050919395979092949650565b6000805160206150b883398151915281565b6122326000805160206150b88339815191523361287c565b806122505750612250600080516020614dd88339815191523361287c565b61225957600080fd5b60008381526012602052604090205483906122a9576040805162461bcd60e51b81526020600482015260166024820152600080516020614c93833981519152604482015290519081900360640190fd5b60008481526012602052604090206122c5906004018484614af9565b5050505050565b600081815260146020908152604091829020805483518184028101840190945280845260609392830182828015611fc25760200282019190600052602060002090815481526020019060010190808311611fae5750505050509050919050565b60006123466000805160206150b88339815191523361287c565b8061237657506123767f9f2df0fed2c77648de5860a4cc508cd0818c85b8b8a1ab4ceeef8d981c8956a63361287c565b61237f57600080fd5b60008281526012602052604090205482906123cf576040805162461bcd60e51b81526020600482015260166024820152600080516020614c93833981519152604482015290519081900360640190fd5b60006123da84613dae565b6000858152601260205260409020600601549091506123fa908590613e21565b8111156124385760405162461bcd60e51b815260040180806020018281038252602e815260200180614e24602e913960400191505060405180910390fd5b60008481526012602090815260409182902060040180548351601f600260001961010060018616150201909316929092049182018490048402810184019094528084526124ad93899386938a939091830182828015611d325780601f10611d0757610100808354040283529160200191611d32565b949350505050565b6124cd6000805160206150b88339815191523361287c565b806124eb57506124eb600080516020614dd88339815191523361287c565b6124f457600080fd5b6000828152601260205260409020548290612544576040805162461bcd60e51b81526020600482015260166024820152600080516020614c93833981519152604482015290519081900360640190fd5b5060009182526012602052604090912060030155565b60009081526013602052604090205490565b60006125866000805160206150b88339815191523361287c565b806125a457506125a4600080516020614dd88339815191523361287c565b6125ad57600080fd5b6125bd8888888888876000613990565b506125c8888461331e565b506001979650505050505050565b600b5460009060ff1615612624576040805162461bcd60e51b815260206004820152601060248201526f14185d5cd8589b194e881c185d5cd95960821b604482015290519081900360640190fd5b6000828152601260205260409020548290612674576040805162461bcd60e51b81526020600482015260166024820152600080516020614c93833981519152604482015290519081900360640190fd5b600083815260126020526040902060070154839060ff166126d1576040805162461bcd60e51b815260206004820152601260248201527145646974696f6e206e6f742061637469766560701b604482015290519081900360640190fd5b600084815260126020526040902060068101546005909101548591116127285760405162461bcd60e51b8152600401808060200182810382526021815260200180614f0d6021913960400191505060405180910390fd5b600085815260126020526040902060038101543410156127795760405162461bcd60e51b815260040180806020018281038252602b8152602001806150d8602b913960400191505060405180910390fd5b6000612784876137d3565b600483018054604080516020601f600260001961010060018816150201909516949094049384018190048102820181019092528281529394506127ed938c9386938d93830182828015611d325780601f10611d0757610100808354040283529160200191611d32565b60038201546001830154600284015461281092916001600160a01b031690613e7b565b876001600160a01b031687827f145e2ff612f82ecb64f13b28a0e2825f8fd3dba6d6fbbdec265aa58800014c3d346040518082815260200191505060405180910390a4979650505050505050565b600c5481565b6000828152600a60205260408120611afa908361375e565b6000828152600a60205260408120611afa9083613f31565b60078054604080516020601f60026000196101006001881615020190951694909404938401819004810282018101909252828152606093909290918301828280156117a95780601f1061177e576101008083540402835291602001916117a9565b600f5481565b600081565b61290861342d565b6001600160a01b0316826001600160a01b0316141561296e576040805162461bcd60e51b815260206004820152601960248201527f4552433732313a20617070726f766520746f2063616c6c657200000000000000604482015290519081900360640190fd5b806005600061297b61342d565b6001600160a01b03908116825260208083019390935260409182016000908120918716808252919093529120805460ff1916921515929092179091556129bf61342d565b6001600160a01b03167f17307eab39ab6107e8899845ad3d59bd9653f200f220920489ca2b5937696c318360405180821515815260200191505060405180910390a35050565b600d5481565b612a236000805160206150b88339815191523361287c565b80612a415750612a41600080516020614dd88339815191523361287c565b612a4a57600080fd5b6000828152601260205260409020548290612a9a576040805162461bcd60e51b81526020600482015260166024820152600080516020614c93833981519152604482015290519081900360640190fd5b6000838152601260209081526040808320601783528184205460018201546001600160a01b03168552601690935292208054819083908110612ad857fe5b600091825260208083209091018290556001600160a01b0390961680825260168752604080832080546001808201835591855289852081018b9055998452601790985290912096909655505090910180546001600160a01b03191690921790915550565b60006060600083612b4c81613420565b612b97576040805162461bcd60e51b8152602060048201526017602482015276151bdad95b88125108191bd95cc81b9bdd08195e1a5cdd604a1b604482015290519081900360640190fd5b60008581526013602052604090205480612bb087612d89565b612bb988611f28565b94509450945050509193909250565b612bd9612bd361342d565b8361350d565b612c145760405162461bcd60e51b81526004018080602001828103825260318152602001806150876031913960400191505060405180910390fd5b6119e384848484613f46565b60009081526012602052604090206007015460ff1690565b60008181526012602052604081206005810154600682015461190891613f98565b612c716000805160206150b88339815191523361287c565b80612c8f5750612c8f600080516020614dd88339815191523361287c565b612c9857600080fd5b6000828152601260205260409020548290612ce8576040805162461bcd60e51b81526020600482015260166024820152600080516020614c93833981519152604482015290519081900360640190fd5b60008381526012602052604090206005810154831015612d395760405162461bcd60e51b81526004018080602001828103825260458152602001806150216045913960600191505060405180910390fd5b60068101805490849055600f54612d5c908590612d569084613f98565b90613e21565b600f555050505050565b600081612d7557506000611665565b506000818152601260205260409020541490565b6060612d9482613420565b612dcf5760405162461bcd60e51b815260040180806020018281038252602f815260200180614ff2602f913960400191505060405180910390fd5b60008281526008602090815260409182902080548351601f6002600019610100600186161502019093169290920491820184900484028101840190945280845260609392830182828015612e645780601f10612e3957610100808354040283529160200191612e64565b820191906000526020600020905b815481529060010190602001808311612e4757829003601f168201915b505060095493945050505060026000196101006001841615020190911604612e8d579050611665565b805115612f5e576009816040516020018083805460018160011615610100020316600290048015612ef55780601f10612ed3576101008083540402835291820191612ef5565b820191906000526020600020905b815481529060010190602001808311612ee1575b5050825160208401908083835b60208310612f215780518252601f199092019160209182019101612f02565b6001836020036101000a03801982511681845116808217855250505050505090500192505050604051602081830303815290604052915050611665565b6009612f6984613fda565b6040516020018083805460018160011615610100020316600290048015612fc75780601f10612fa5576101008083540402835291820191612fc7565b820191906000526020600020905b815481529060010190602001808311612fb3575b5050825160208401908083835b60208310612ff35780518252601f199092019160209182019101612fd4565b6001836020036101000a03801982511681845116808217855250505050505090500192505050604051602081830303815290604052915050919050565b6000818152600a60205260408120611afd90613502565b61305f6000805160206150b88339815191523361287c565b61306857600080fd5b6001600160a01b0381166130b5576040805162461bcd60e51b815260206004820152600f60248201526e496e76616c6964206164647265737360881b604482015290519081900360640190fd5b601180546001600160a01b0319166001600160a01b0392909216919091179055565b60006130f16000805160206150b88339815191523361287c565b8061310f575061310f600080516020614dd88339815191523361287c565b61311857600080fd5b6125bd8888888888876001613990565b7f9f2df0fed2c77648de5860a4cc508cd0818c85b8b8a1ab4ceeef8d981c8956a681565b6000828152600a602052604090206002015461316a90611a8a61342d565b611b815760405162461bcd60e51b8152600401808060200182810382526030815260200180614e526030913960400191505060405180910390fd5b601260209081526000918252604091829020805460018083015460028085015460038601546004870180548a516101009782161597909702600019011693909304601f810189900489028601890190995288855294976001600160a01b0390931696909593929083018282801561325d5780601f106132325761010080835404028352916020019161325d565b820191906000526020600020905b81548152906001019060200180831161324057829003601f168201915b50505050600583015460068401546007909401549293909290915060ff1688565b60006132986000805160206150b88339815191523361287c565b806132b657506132b6600080516020614dd88339815191523361287c565b6132bf57600080fd5b611f1d8787878787876001613990565b6011546001600160a01b031681565b6001600160a01b03918216600090815260056020908152604080832093909416825291909152205460ff1690565b6000611afd33836125d6565b600e5481565b6133366000805160206150b88339815191523361287c565b806133545750613354600080516020614dd88339815191523361287c565b61335d57600080fd5b60008281526012602052604090205482906133ad576040805162461bcd60e51b81526020600482015260166024820152600080516020614c93833981519152604482015290519081900360640190fd5b816133b7846122cc565b5111156133f55760405162461bcd60e51b815260040180806020018281038252604c815260200180614ce5604c913960600191505060405180910390fd5b5060009182526012602052604090912060050155565b6000611afa836001600160a01b0384166140b5565b6000611afd6002836140ff565b3390565b600081815260046020526040902080546001600160a01b0319166001600160a01b038416908117909155819061346682611f28565b6001600160a01b03167f8c5be1e5ebec7d5bd14f71427d1e84f3dd0314c0f7b2291e5b200ac8c7c3b92560405160405180910390a45050565b6134a882613420565b6134e35760405162461bcd60e51b815260040180806020018281038252602c815260200180614f9d602c913960400191505060405180910390fd5b600082815260086020908152604090912082516118eb92840190614b77565b6000611afd8261410b565b600061351882613420565b6135535760405162461bcd60e51b815260040180806020018281038252602c815260200180614df8602c913960400191505060405180910390fd5b600061355e83611f28565b9050806001600160a01b0316846001600160a01b031614806135995750836001600160a01b031661358e846117b3565b6001600160a01b0316145b806124ad57506124ad81856132de565b826001600160a01b03166135bc82611f28565b6001600160a01b0316146136015760405162461bcd60e51b8152600401808060200182810382526029815260200180614fc96029913960400191505060405180910390fd5b6001600160a01b0382166136465760405162461bcd60e51b8152600401808060200182810382526024815260200180614d316024913960400191505060405180910390fd5b6136518383836118eb565b61365c600082613431565b6001600160a01b038316600090815260016020526040902061367e908261410f565b506001600160a01b03821660009081526001602052604090206136a1908261411b565b506136ae60028284614127565b5080826001600160a01b0316846001600160a01b03167fddf252ad1be2c89b69c2b068fc378daa952ba7f163c4a11628f55a4df523b3ef60405160405180910390a4505050565b6000828152600a6020526040902061370d908261340b565b15611ad45761371a61342d565b6001600160a01b0316816001600160a01b0316837f2f8788117e7eff1d82e926ec794901d17c78024a50270940304540a733656f0d60405160405180910390a45050565b6000611afa838361413d565b6000828152600a6020526040902061378290826141a1565b15611ad45761378f61342d565b6001600160a01b0316816001600160a01b0316837ff6391f5c32d9c69d2a47ea670b442974b53935d1edc7fd64eb21e047a839171b60405160405180910390a45050565b600081815260126020526040812060058101546137f1906001613e21565b60058201819055815461190891613e21565b61380d84846141b6565b613817838261349f565b600083815260136020908152604080832085905584835260148252808320805460018082018355918552838520810188905587855260159093529220819055600e5490916138659190613e21565b600e556040516001600160a01b03861690849086907f259eb7b480b3d449f506927269e4665c83c69e4cd797143eaa8f84632dc7a02b90600090a45050505050565b60006138b282611f28565b90506138c0816000846118eb565b6138cb600083613431565b600082815260086020526040902054600260001961010060018416150201909116041561390957600082815260086020526040812061390991614be5565b6001600160a01b038116600090815260016020526040902061392b908361410f565b506139376002836142e4565b5060405182906000906001600160a01b038416907fddf252ad1be2c89b69c2b068fc378daa952ba7f163c4a11628f55a4df523b3ef908390a45050565b600080808061398386866142f0565b9097909650945050505050565b6000876139e4576040805162461bcd60e51b815260206004820152601b60248201527f45646974696f6e206e756d626572206e6f742070726f76696465640000000000604482015290519081900360640190fd5b600d548811613a245760405162461bcd60e51b81526004018080602001828103825260338152602001806151036033913960400191505060405180910390fd5b600d546000818152601260205260409020600601548991613a4491613e21565b10613a805760405162461bcd60e51b8152600401808060200182810382526048815260200180614d556048913960600191505060405180910390fd5b8351613aca576040805162461bcd60e51b8152602060048201526014602482015273546f6b656e20555249206973206d697373696e6760601b604482015290519081900360640190fd5b6001600160a01b038716613b25576040805162461bcd60e51b815260206004820152601b60248201527f417274697374206163636f756e74206e6f742070726f76696465640000000000604482015290519081900360640190fd5b60648611158015613b34575060015b613b6f5760405162461bcd60e51b815260040180806020018281038252603b815260200180614d9d603b913960400191505060405180910390fd5b600c54613b7d906001613e21565b600c5560008881526012602052604090205415613be1576040805162461bcd60e51b815260206004820152601c60248201527f45646974696f6e20616c726561647920696e206578697374656e636500000000604482015290519081900360640190fd5b604051806101000160405280898152602001886001600160a01b0316815260200187815260200186815260200185815260200160008152602001848152602001831515815250601260008a81526020019081526020016000206000820151816000015560208201518160010160006101000a8154816001600160a01b0302191690836001600160a01b0316021790555060408201518160020155606082015181600301556080820151816004019080519060200190613ca1929190614b77565b5060a0820151600582015560c0820151600682015560e0909101516007909101805460ff1916911515919091179055600f54613cdd9084613e21565b600f55613cea878961436b565b866001600160a01b0316887f431dc5797388465ad7885977426ec85a959ba1f817393710c9bfc40f65e72e24866040518080602001828103825283818151815260200191508051906020019080838360005b83811015613d54578181015183820152602001613d3c565b50505050905090810190601f168015613d815780820380516001836020036101000a031916815260200191505b509250505060405180910390a350600d8790556001979650505050505050565b60006124ad8484846143a7565b600081815260126020526040812080548290613dcb906001613e21565b90505b613dd781613420565b15613dee57613de7816001613e21565b9050613dce565b60058201548254613dfe91613e21565b811115611908576005820154613e15906001613e21565b60058301559392505050565b600082820183811015611afa576040805162461bcd60e51b815260206004820152601b60248201527f536166654d6174683a206164646974696f6e206f766572666c6f770000000000604482015290519081900360640190fd5b6000613e9282613e8c866064614471565b906144b3565b90508015613ed2576040516001600160a01b0384169082156108fc029083906000818181858888f19350505050158015613ed0573d6000803e3d6000fd5b505b6000613ede3483613f98565b6011546040519192506001600160a01b03169082156108fc029083906000818181858888f19350505050158015613f19573d6000803e3d6000fd5b50601054613f279034613e21565b6010555050505050565b6000611afa836001600160a01b03841661450c565b613f518484846135a9565b613f5d84848484614524565b6119e35760405162461bcd60e51b8152600401808060200182810382526032815260200180614cb36032913960400191505060405180910390fd5b6000611afa83836040518060400160405280601e81526020017f536166654d6174683a207375627472616374696f6e206f766572666c6f77000081525061468c565b606081613fff57506040805180820190915260018152600360fc1b6020820152611665565b8160005b811561401757600101600a82049150614003565b60608167ffffffffffffffff8111801561403057600080fd5b506040519080825280601f01601f19166020018201604052801561405b576020820181803683370190505b50859350905060001982015b83156140ac57600a840660300160f81b8282806001900393508151811061408a57fe5b60200101906001600160f81b031916908160001a905350600a84049350614067565b50949350505050565b60006140c1838361450c565b6140f757508154600181810184556000848152602080822090930184905584548482528286019093526040902091909155611afd565b506000611afd565b6000611afa838361450c565b5490565b6000611afa83836146e6565b6000611afa83836140b5565b60006124ad84846001600160a01b0385166147ac565b8154600090821061417f5760405162461bcd60e51b8152600401808060200182810382526022815260200180614c426022913960400191505060405180910390fd5b82600001828154811061418e57fe5b9060005260206000200154905092915050565b6000611afa836001600160a01b0384166146e6565b6001600160a01b038216614211576040805162461bcd60e51b815260206004820181905260248201527f4552433732313a206d696e7420746f20746865207a65726f2061646472657373604482015290519081900360640190fd5b61421a81613420565b1561426c576040805162461bcd60e51b815260206004820152601c60248201527f4552433732313a20746f6b656e20616c7265616479206d696e74656400000000604482015290519081900360640190fd5b614278600083836118eb565b6001600160a01b038216600090815260016020526040902061429a908261411b565b506142a760028284614127565b5060405181906001600160a01b038416906000907fddf252ad1be2c89b69c2b068fc378daa952ba7f163c4a11628f55a4df523b3ef908290a45050565b6000611afa8383614843565b8154600090819083106143345760405162461bcd60e51b8152600401808060200182810382526022815260200180614f2e6022913960400191505060405180910390fd5b600084600001848154811061434557fe5b906000526020600020906002020190508060000154816001015492509250509250929050565b6001600160a01b039091166000908152601660209081526040808320805460018101825590845282842081018590559383526017909152902055565b600082815260018401602052604081205482816144425760405162461bcd60e51b81526004018080602001828103825283818151815260200191508051906020019080838360005b838110156144075781810151838201526020016143ef565b50505050905090810190601f1680156144345780820380516001836020036101000a031916815260200191505b509250505060405180910390fd5b5084600001600182038154811061445557fe5b9060005260206000209060020201600101549150509392505050565b6000611afa83836040518060400160405280601a81526020017f536166654d6174683a206469766973696f6e206279207a65726f000000000000815250614917565b6000826144c257506000611afd565b828202828482816144cf57fe5b0414611afa5760405162461bcd60e51b8152600401808060200182810382526021815260200180614f506021913960400191505060405180910390fd5b60009081526001919091016020526040902054151590565b6000614538846001600160a01b031661497c565b614544575060016124ad565b6060614652630a85bd0160e11b61455961342d565b88878760405160240180856001600160a01b03168152602001846001600160a01b0316815260200183815260200180602001828103825283818151815260200191508051906020019080838360005b838110156145c05781810151838201526020016145a8565b50505050905090810190601f1680156145ed5780820380516001836020036101000a031916815260200191505b5095505050505050604051602081830303815290604052906001600160e01b0319166020820180516001600160e01b038381831617835250505050604051806060016040528060328152602001614cb3603291396001600160a01b0388169190614982565b9050600081806020019051602081101561466b57600080fd5b50516001600160e01b031916630a85bd0160e11b1492505050949350505050565b600081848411156146de5760405162461bcd60e51b81526020600482018181528351602484015283519092839260449091019190850190808383600083156144075781810151838201526020016143ef565b505050900390565b600081815260018301602052604081205480156147a2578354600019808301919081019060009087908390811061471957fe5b906000526020600020015490508087600001848154811061473657fe5b60009182526020808320909101929092558281526001898101909252604090209084019055865487908061476657fe5b60019003818190600052602060002001600090559055866001016000878152602001908152602001600020600090556001945050505050611afd565b6000915050611afd565b600082815260018401602052604081205480614811575050604080518082018252838152602080820184815286546001818101895560008981528481209551600290930290950191825591519082015586548684528188019092529290912055611908565b8285600001600183038154811061482457fe5b9060005260206000209060020201600101819055506000915050611908565b600081815260018301602052604081205480156147a2578354600019808301919081019060009087908390811061487657fe5b906000526020600020906002020190508087600001848154811061489657fe5b6000918252602080832084546002909302019182556001938401549184019190915583548252898301905260409020908401905586548790806148d557fe5b6000828152602080822060026000199094019384020182815560019081018390559290935588815289820190925260408220919091559450611afd9350505050565b600081836149665760405162461bcd60e51b81526020600482018181528351602484015283519092839260449091019190850190808383600083156144075781810151838201526020016143ef565b50600083858161497257fe5b0495945050505050565b3b151590565b60606124ad848460008560606149978561497c565b6149e8576040805162461bcd60e51b815260206004820152601d60248201527f416464726573733a2063616c6c20746f206e6f6e2d636f6e7472616374000000604482015290519081900360640190fd5b60006060866001600160a01b031685876040518082805190602001908083835b60208310614a275780518252601f199092019160209182019101614a08565b6001836020036101000a03801982511681845116808217855250505050505090500191505060006040518083038185875af1925050503d8060008114614a89576040519150601f19603f3d011682016040523d82523d6000602084013e614a8e565b606091505b50915091508115614aa25791506124ad9050565b805115614ab25780518082602001fd5b60405162461bcd60e51b81526020600482018181528651602484015286518793919283926044019190850190808383600083156144075781810151838201526020016143ef565b828054600181600116156101000203166002900490600052602060002090601f016020900481019282601f10614b3a5782800160ff19823516178555614b67565b82800160010185558215614b67579182015b82811115614b67578235825591602001919060010190614b4c565b50614b73929150614c2c565b5090565b828054600181600116156101000203166002900490600052602060002090601f016020900481019282601f10614bb857805160ff1916838001178555614b67565b82800160010185558215614b67579182015b82811115614b67578251825591602001919060010190614bca565b50805460018160011615610100020316600290046000825580601f10614c0b5750614c29565b601f016020900490600052602060002090810190614c299190614c2c565b50565b5b80821115614b735760008155600101614c2d56fe456e756d657261626c655365743a20696e646578206f7574206f6620626f756e6473416363657373436f6e74726f6c3a2073656e646572206d75737420626520616e2061646d696e20746f206772616e7445646974696f6e206e756d62657220696e76616c6964000000000000000000004552433732313a207472616e7366657220746f206e6f6e20455243373231526563656976657220696d706c656d656e74657243616e206e6f74206c6f77657220746f74616c537570706c7920746f2062656c6f7720746865206e756d626572206f6620746f6b656e7320616c726561647920696e206578697374656e63654552433732313a207472616e7366657220746f20746865207a65726f206164647265737345646974696f6e206e756d626572206d7573742062652067726561746572207468616e2070726576696f75736c79207573656420706c757320746f74616c20617661696c61626c6541727469737420636f6d6d697373696f6e2063616e6e6f742062652067726561746572207468616e20313030206f72206c657373207468616e20308dc374d7af307bd169c3aa50528e800ae355aa4b1ea79d779d09d949d30672974552433732313a206f70657261746f7220717565727920666f72206e6f6e6578697374656e7420746f6b656e52656163686564206d617820746f6b656e49642c2063616e6e6f7420756e646572206d696e7420616e796d6f7265416363657373436f6e74726f6c3a2073656e646572206d75737420626520616e2061646d696e20746f207265766f6b654552433732313a20617070726f76652063616c6c6572206973206e6f74206f776e6572206e6f7220617070726f76656420666f7220616c6c4552433732313a2062616c616e636520717565727920666f7220746865207a65726f20616464726573734552433732313a206f776e657220717565727920666f72206e6f6e6578697374656e7420746f6b656e4e6f206d6f72652065646974696f6e73206c65667420746f207075726368617365456e756d657261626c654d61703a20696e646578206f7574206f6620626f756e6473536166654d6174683a206d756c7469706c69636174696f6e206f766572666c6f774552433732313a20617070726f76656420717565727920666f72206e6f6e6578697374656e7420746f6b656e4552433732314d657461646174613a2055524920736574206f66206e6f6e6578697374656e7420746f6b656e4552433732313a207472616e73666572206f6620746f6b656e2074686174206973206e6f74206f776e4552433732314d657461646174613a2055524920717565727920666f72206e6f6e6578697374656e7420746f6b656e556e61626c6520746f2072656475636520617661696c61626c6520616d6f756e7420746f207468652062656c6f7720746865206e756d62657220746f74616c537570706c794552433732313a20617070726f76616c20746f2063757272656e74206f776e65724552433732313a207472616e736665722063616c6c6572206973206e6f74206f776e6572206e6f7220617070726f766564a49807205ce4d355092ef5a8a18f56e8913cf4a201fbe287825b095693c2177556616c7565206d7573742062652067726561746572207468616e207072696365206f662065646974696f6e45646974696f6e206e756d626572206d7573742062652067726561746572207468616e2070726576696f75736c792075736564416363657373436f6e74726f6c3a2063616e206f6e6c792072656e6f756e636520726f6c657320666f722073656c66a26469706673582212206d6d40c9ffc91bb894b64f0ef7193446cb05495291d9e6f756bd3d397fcf8bd364736f6c634300060c0033",
  "immutableReferences": {},
  "source": "// SPDX-License-Identifier: MIT\n\npragma solidity ^0.6.0;\n\n\nimport \"@openzeppelin/contracts/token/ERC721/ERC721.sol\";\nimport \"@openzeppelin/contracts/utils/Counters.sol\";\nimport \"@openzeppelin/contracts/access/AccessControl.sol\";\nimport \"@openzeppelin/contracts/utils/Pausable.sol\";\n\ncontract lfOriginals is ERC721, AccessControl, Pausable {\n\n\n    //ROLES\n    bytes32 public constant ADMIN_ROLE = keccak256(\"ADMIN_ROLE\");\n    bytes32 public constant MINTER_ROLE = keccak256(\"MINTER_ROLE\");\n    bytes32 public constant LF_MEMBER = keccak256(\"LF_MEMBER\");\n\n\n\n\n    //PROPERTIES\n\n    uint256 public edition;    //number of editions\n    uint256 public highestEditionNumber;\n    uint256 public totalNumberMinted;    // number of assets minted of any type\n    uint256 public totalItemsAvailable; //numero de items disponibles\n    uint256 public totalPurchaseValueInWei; //total sales volume\n    address payable public lfCommissionAccount;\n\n\n    //STRUCTS\n    struct EditionDetails {\n        // Identifiers\n        uint256 editionNumber;\n        // Config\n        address payable artistAccount;    // artists account\n        uint256 artistCommission; // artist commision\n        uint256 priceInWei;       // edition price\n        string tokenURI;          // uri URL\n        // Counters\n        uint256 totalSupply;  // in circulation\n        uint256 totalAvailable;      // maximum units created\n        bool active;\n    }\n\n\n    //MAPPINGS\n    mapping(uint256 => EditionDetails) public editionNumberToDetails;\n\n    mapping(uint256 => uint256) internal tokenIdToEditionNumber;\n    mapping(uint256 => uint256[]) internal editionNumberToTokenIds;\n    mapping(uint256 => uint256) internal editionNumberToTokenIdIndex;\n\n    mapping(address => uint256[]) internal artistToEditionNumbers;\n    mapping(uint256 => uint256) internal editionNumberToArtistIndex;\n\n\n    //MODIFIERS\n    modifier onlyMinter {\n        require((hasRole(ADMIN_ROLE, msg.sender)) || (hasRole(MINTER_ROLE, msg.sender)));\n        _;\n    }\n\n    modifier onlyAdmin {\n        require(hasRole(ADMIN_ROLE, msg.sender));\n        _;\n    }\n\n    modifier onlyLFMember {\n        require((hasRole(ADMIN_ROLE, msg.sender)) || (hasRole(LF_MEMBER, msg.sender)));\n        _;\n    }\n\n    modifier onlyAvailableEdition(uint256 _editionNumber) {\n        require(editionNumberToDetails[_editionNumber].totalSupply < editionNumberToDetails[_editionNumber].totalAvailable, \"No more editions left to purchase\");\n        _;\n    }\n\n    modifier onlyActiveEdition(uint256 _editionNumber) {\n        require(editionNumberToDetails[_editionNumber].active, \"Edition not active\");\n        _;\n    }\n\n    modifier onlyRealEdition(uint256 _editionNumber) {\n        require(editionNumberToDetails[_editionNumber].editionNumber > 0, \"Edition number invalid\");\n        _;\n    }\n\n    modifier onlyValidTokenId(uint256 _tokenId) {\n        require(_exists(_tokenId), \"Token ID does not exist\");\n        _;\n    }\n\n    ////////////\n    // Events //\n    ////////////\n\n    // Emitted on purchases from within this contract\n    event Purchase(\n        uint256 indexed _tokenId,\n        uint256 indexed _editionNumber,\n        address indexed _buyer,\n        uint256 _priceInWei\n    );\n\n    // Emitted on every mint\n    event Minted(\n        uint256 indexed _tokenId,\n        uint256 indexed _editionNumber,\n        address indexed _buyer\n    );\n\n    // Emitted on every edition created\n    event EditionCreated(\n        uint256 indexed _editionNumber,\n        address indexed _artistAccount,\n        string _tokenURI\n    );\n\n//SET TOKEN NAME AND DATA\n    constructor() ERC721(\"Longboard Famara Originals\", \"LFO\") public{\n        _setupRole(DEFAULT_ADMIN_ROLE, msg.sender);\n        _setupRole(ADMIN_ROLE, msg.sender);\n        _setupRole(MINTER_ROLE, msg.sender);\n        _setupRole(LF_MEMBER, msg.sender);\n        lfCommissionAccount = msg.sender;\n    }\n\n    function _updateArtistLookupData(address _artistAccount, uint256 _editionNumber) internal {\n      uint256 artistEditionIndex = artistToEditionNumbers[_artistAccount].length;\n      artistToEditionNumbers[_artistAccount].push(_editionNumber);\n      editionNumberToArtistIndex[_editionNumber] = artistEditionIndex;\n    }\n\n    function _createEdition (\n        uint256 _editionNumber,\n        address payable _artistAccount,\n        uint256 _artistCommission,\n        uint256 _priceInWei,\n        string memory _tokenURI,\n        uint256 _maxAvailable,\n        bool _active\n    ) internal returns (bool) {\n        require(_editionNumber != 0, \"Edition number not provided\");\n        require(_editionNumber > highestEditionNumber, \"Edition number must be greater than previously used\");\n        require(highestEditionNumber.add(editionNumberToDetails[highestEditionNumber].totalAvailable) < _editionNumber, \"Edition number must be greater than previously used plus total available\");\n        require(bytes(_tokenURI).length != 0, \"Token URI is missing\");\n        require(_artistAccount != address(0), \"Artist account not provided\");\n        require(_artistCommission <= 100 && _artistCommission >= 0, \"Artist commission cannot be greater than 100 or less than 0\");\n\n        // Update the edition counter\n        edition = edition.add(1);\n        //uint256 _editionNumber = edition;\n\n        require(editionNumberToDetails[_editionNumber].editionNumber == 0, \"Edition already in existence\");\n\n        editionNumberToDetails[_editionNumber] = EditionDetails({\n            editionNumber : _editionNumber,\n            artistAccount : _artistAccount,\n            artistCommission : _artistCommission,\n            priceInWei : _priceInWei,\n            tokenURI : _tokenURI,\n            totalSupply : 0,\n            totalAvailable : _maxAvailable,\n            active : _active\n        });\n\n\n        // Add to total available count\n        totalItemsAvailable = totalItemsAvailable.add(_maxAvailable);\n\n        // Update artist mapping\n        _updateArtistLookupData(_artistAccount, _editionNumber);\n\n        emit EditionCreated(_editionNumber, _artistAccount, _tokenURI);\n\n        highestEditionNumber = _editionNumber;\n\n        return true;\n        }\n\n    function createActiveEdition(\n        uint256 _editionNumber,\n        address payable _artistAccount,\n        uint256 _artistCommission,\n        uint256 _priceInWei,\n        string memory _tokenURI,\n        uint256 _maxAvailable\n    ) public onlyLFMember returns (bool) {\n        return _createEdition(_editionNumber, _artistAccount, _artistCommission, _priceInWei, _tokenURI, _maxAvailable, true);\n    }\n\n      /**\n   * @dev Creates an inactive edition from the given configuration\n   * @dev Only callable from KO staff/addresses\n   */\n  function createInactiveEdition(\n    uint256 _editionNumber,\n    address payable _artistAccount,\n    uint256 _artistCommission,\n    uint256 _priceInWei,\n    string memory _tokenURI,\n    uint256 _totalAvailable\n  )\n  public\n  onlyLFMember\n  returns (bool)\n  {\n    return _createEdition(_editionNumber, _artistAccount, _artistCommission, _priceInWei, _tokenURI, _totalAvailable, false);\n  }\n\n  function createActivePreMintedEdition(\n    uint256 _editionNumber,\n    address payable _artistAccount,\n    uint256 _artistCommission,\n    uint256 _priceInWei,\n    string memory _tokenURI,\n    uint256 _totalSupply,\n    uint256 _totalAvailable\n  )\n  public\n  onlyLFMember\n  returns (bool)\n  {\n    _createEdition(_editionNumber, _artistAccount, _artistCommission, _priceInWei, _tokenURI, _totalAvailable, true);\n    updateTotalSupply(_editionNumber, _totalSupply);\n    return true;\n  }\n\n  /**\n   * @dev Creates an inactive edition from the given configuration\n   * @dev The concept of pre0minted editions means we can 'undermint' token IDS, good for holding back editions from public sale\n   * @dev Only callable from KO staff/addresses\n   */\n  function createInactivePreMintedEdition(\n    uint256 _editionNumber,\n    address payable _artistAccount,\n    uint256 _artistCommission,\n    uint256 _priceInWei,\n    string memory _tokenURI,\n    uint256 _totalSupply,\n    uint256 _totalAvailable\n  )\n  public\n  onlyLFMember\n  returns (bool)\n  {\n    _createEdition(_editionNumber, _artistAccount, _artistCommission, _priceInWei, _tokenURI, _totalAvailable, false);\n    updateTotalSupply(_editionNumber, _totalSupply);\n    return true;\n  }\n\n\n    function purchase(uint256 _editionNumber)\n        public\n        payable\n    returns (uint256) {\n        return purchaseTo(msg.sender, _editionNumber);\n    }\n\n    function purchaseTo(address _to, uint256 _editionNumber)\n        public\n        payable\n        whenNotPaused\n        onlyRealEdition(_editionNumber)\n        onlyActiveEdition(_editionNumber)\n        onlyAvailableEdition(_editionNumber)\n    returns (uint256) {\n\n        EditionDetails storage _editionDetails = editionNumberToDetails[_editionNumber];\n        require(msg.value >= _editionDetails.priceInWei, \"Value must be greater than price of edition\");\n\n        // Construct next token ID e.g. 100000 + 1 = ID of 100001 (this first in the edition set)\n        uint256 _tokenId = _nextTokenId(_editionNumber);\n\n        // Create the token\n        _mintToken(_to, _tokenId, _editionNumber, _editionDetails.tokenURI);\n\n        // Splice funds and handle commissions\n        _handleFunds( _editionDetails.priceInWei, _editionDetails.artistAccount, _editionDetails.artistCommission);\n\n        // Broadcast purchase\n        emit Purchase(_tokenId, _editionNumber, _to, msg.value);\n\n        return _tokenId;\n    }\n\n /**\n   * @dev Private (KO only) method for minting editions\n   * @dev Payment not needed for this method\n   */\n  function mint(address _to, uint256 _editionNumber)\n  public\n  onlyMinter\n  onlyRealEdition(_editionNumber)\n  onlyAvailableEdition(_editionNumber)\n  returns (uint256) {\n    // Construct next token ID e.g. 100000 + 1 = ID of 100001 (this first in the edition set)\n    uint256 _tokenId = _nextTokenId(_editionNumber);\n\n    // Create the token\n    _mintToken(_to, _tokenId, _editionNumber, editionNumberToDetails[_editionNumber].tokenURI);\n\n    // Create the token\n    return _tokenId;\n  }\n\n  /**\n   * @dev Private (KO only) method for under minting editions\n   * @dev Under minting allows for token IDs to be back filled if total supply is not set to zero by default\n   * @dev Payment not needed for this method\n   */\n  function underMint(address _to, uint256 _editionNumber)\n  public\n  onlyMinter\n  onlyRealEdition(_editionNumber)\n  returns (uint256) {\n    // Under mint token, meaning it takes one from the already sold version\n    uint256 _tokenId = _underMintNextTokenId(_editionNumber);\n\n    // If the next tokenId generate is more than the available number, abort as we have reached maximum under mint\n    if (_tokenId > _editionNumber.add(editionNumberToDetails[_editionNumber].totalAvailable)) {\n      revert(\"Reached max tokenId, cannot under mint anymore\");\n    }\n\n    // Create the token\n    _mintToken(_to, _tokenId, _editionNumber, editionNumberToDetails[_editionNumber].tokenURI);\n\n    // Create the token\n    return _tokenId;\n  }\n\n    function _nextTokenId(uint256 _editionNumber) internal returns (uint256) {\n        EditionDetails storage _editionDetails = editionNumberToDetails[_editionNumber];\n\n        // Bump number totalSupply\n        _editionDetails.totalSupply = _editionDetails.totalSupply.add(1);\n\n        // Construct next token ID e.g. 100000 + 1 = ID of 100001 (this first in the edition set)\n        return _editionDetails.editionNumber.add(_editionDetails.totalSupply);\n    }\n\n    function _mintToken(address _to, uint256 _tokenId, uint256 _editionNumber, string memory _tokenURI) internal {\n\n        // Mint new base token\n        super._mint(_to, _tokenId);\n        super._setTokenURI(_tokenId, _tokenURI);\n\n        // Maintain mapping for tokenId to edition for lookup\n        tokenIdToEditionNumber[_tokenId] = _editionNumber;\n\n        // Get next insert position for edition to token Id mapping\n        uint256 currentIndexOfTokenId = editionNumberToTokenIds[_editionNumber].length;\n\n        // Maintain mapping of edition to token array for \"edition minted tokens\"\n        editionNumberToTokenIds[_editionNumber].push(_tokenId);\n\n        // Maintain a position index for the tokenId within the edition number mapping array, used for clean up token burn\n        editionNumberToTokenIdIndex[_tokenId] = currentIndexOfTokenId;\n\n        // Record sale volume\n        totalNumberMinted = totalNumberMinted.add(1);\n\n\n        emit Minted(_tokenId, _editionNumber, _to);\n\n    }\n\n    function _underMintNextTokenId(uint256 _editionNumber) internal returns (uint256) {\n        EditionDetails storage _editionDetails = editionNumberToDetails[_editionNumber];\n\n        // For old editions start the counter as edition + 1\n        uint256 _tokenId = _editionDetails.editionNumber.add(1);\n\n        // Work your way up until you find a free token based on the new _tokenIdd\n        while (_exists(_tokenId)) {\n            _tokenId = _tokenId.add(1);\n        }\n\n        // Bump number totalSupply if we are now over minting new tokens\n        if (_tokenId > _editionDetails.editionNumber.add(_editionDetails.totalSupply)) {\n            _editionDetails.totalSupply = _editionDetails.totalSupply.add(1);\n        }\n\n        return _tokenId;\n    }\n\n    function _handleFunds(uint256 _priceInWei, address payable _artistAccount, uint256 _artistCommission) internal {\n\n        // Extract the artists commission and send it\n        uint256 artistPayment = _priceInWei.div(100).mul(_artistCommission);\n        if (artistPayment > 0) {\n          _artistAccount.transfer(artistPayment);\n        }\n\n\n\n        // Send remaining eth to LF\n        uint256 remainingCommission = msg.value.sub(artistPayment);\n        lfCommissionAccount.transfer(remainingCommission);\n\n        // Record wei sale value\n        totalPurchaseValueInWei = totalPurchaseValueInWei.add(msg.value);\n    }\n\n    function burn(uint256 _tokenId) public onlyLFMember {\n\n        // Clear from parents\n        super._burn(_tokenId);\n\n        // Get hold of the edition for cleanup\n        uint256 _editionNumber = tokenIdToEditionNumber[_tokenId];\n\n        // Delete token ID mapping\n        delete tokenIdToEditionNumber[_tokenId];\n\n        // Delete tokens associated to the edition - this will leave a gap in the array of zero\n        uint256[] storage tokenIdsForEdition = editionNumberToTokenIds[_editionNumber];\n        uint256 editionTokenIdIndex = editionNumberToTokenIdIndex[_tokenId];\n        delete tokenIdsForEdition[editionTokenIdIndex];\n    }\n\n    function updateLFCommissionAccount(address payable _lfCommissionAccount)\n    external\n    onlyAdmin {\n        require(_lfCommissionAccount != address(0), \"Invalid address\");\n        lfCommissionAccount = _lfCommissionAccount;\n    }\n\n  /////////////////////\n  // Edition Updates //\n  /////////////////////\n\n  function updateEditionTokenURI(uint256 _editionNumber, string calldata _uri)\n  external\n  onlyLFMember\n  onlyRealEdition(_editionNumber) {\n    editionNumberToDetails[_editionNumber].tokenURI = _uri;\n  }\n\n  function updatePriceInWei(uint256 _editionNumber, uint256 _priceInWei)\n  external\n  onlyLFMember\n  onlyRealEdition(_editionNumber) {\n    editionNumberToDetails[_editionNumber].priceInWei = _priceInWei;\n  }\n\n  function updateArtistCommission(uint256 _editionNumber, uint256 _rate)\n  external\n  onlyLFMember\n  onlyRealEdition(_editionNumber) {\n    editionNumberToDetails[_editionNumber].artistCommission = _rate;\n  }\n\n  function updateArtistsAccount(uint256 _editionNumber, address payable _artistAccount)\n  external\n  onlyLFMember\n  onlyRealEdition(_editionNumber) {\n\n    EditionDetails storage _originalEditionDetails = editionNumberToDetails[_editionNumber];\n\n    uint256 editionArtistIndex = editionNumberToArtistIndex[_editionNumber];\n\n    // Get list of editions old artist works with\n    uint256[] storage editionNumbersForArtist = artistToEditionNumbers[_originalEditionDetails.artistAccount];\n\n    // Remove edition from artists lists\n    delete editionNumbersForArtist[editionArtistIndex];\n\n    // Add new artists to the list\n    uint256 newArtistsEditionIndex = artistToEditionNumbers[_artistAccount].length;\n    artistToEditionNumbers[_artistAccount].push(_editionNumber);\n    editionNumberToArtistIndex[_editionNumber] = newArtistsEditionIndex;\n\n    // Update the edition\n    _originalEditionDetails.artistAccount = _artistAccount;\n  }\n\n\n  function updateActive(uint256 _editionNumber, bool _active)\n  external\n  onlyLFMember\n  onlyRealEdition(_editionNumber) {\n    editionNumberToDetails[_editionNumber].active = _active;\n  }\n\n  function updateTotalSupply(uint256 _editionNumber, uint256 _totalSupply)\n  public\n  onlyLFMember\n  onlyRealEdition(_editionNumber) {\n    require(tokensOfEdition(_editionNumber).length <= _totalSupply, \"Can not lower totalSupply to below the number of tokens already in existence\");\n    editionNumberToDetails[_editionNumber].totalSupply = _totalSupply;\n  }\n\n  function updateTotalAvailable(uint256 _editionNumber, uint256 _totalAvailable)\n  external\n  onlyLFMember\n  onlyRealEdition(_editionNumber) {\n    EditionDetails storage _editionDetails = editionNumberToDetails[_editionNumber];\n\n    require(_editionDetails.totalSupply <= _totalAvailable, \"Unable to reduce available amount to the below the number totalSupply\");\n\n    uint256 originalAvailability = _editionDetails.totalAvailable;\n    _editionDetails.totalAvailable = _totalAvailable;\n    totalItemsAvailable = totalItemsAvailable.sub(originalAvailability).add(_totalAvailable);\n  }\n\n\n  ///////////////////\n  // Token Updates //\n  ///////////////////\n\n  function setTokenURI(uint256 _tokenId, string calldata _uri)\n  external\n  onlyLFMember\n  onlyValidTokenId(_tokenId) {\n    _setTokenURI(_tokenId, _uri);\n  }\n\n    ///////////////////\n    // Query Methods //\n    ///////////////////\n\n    /**\n     * @dev Lookup the edition of the provided token ID\n     * @dev Returns 0 if not valid\n     */\n    function editionOfTokenId(uint256 _tokenId) public view returns (uint256 _editionNumber) {\n      return tokenIdToEditionNumber[_tokenId];\n    }\n\n    /**\n     * @dev Lookup all editions for the given artist account\n     * @dev Returns empty list if not valid\n     */\n    function artistsEditions(address _artistsAccount) public view returns (uint256[] memory _editionNumbers) {\n      return artistToEditionNumbers[_artistsAccount];\n    }\n\n    /**\n     * @dev Lookup all tokens minted for the given edition number\n     * @dev Returns array of token IDs, any zero edition ids can be ignore/stripped\n     */\n    function tokensOfEdition(uint256 _editionNumber) public view returns (uint256[] memory _tokenIds) {\n      return editionNumberToTokenIds[_editionNumber];\n    }\n\n\n    /**\n     * @dev Main entry point for looking up edition config/metadata\n     * @dev Reverts if invalid edition number provided\n     */\n    function detailsOfEdition(uint256 editionNumber)\n    public view\n    onlyRealEdition(editionNumber)\n    returns (\n      address payable _artistAccount,\n      uint256 _artistCommission,\n      uint256 _priceInWei,\n      string memory _tokenURI,\n      uint256 _circulatingSupply,\n      uint256 _maxAvailable,\n      bool _active\n    ) {\n      EditionDetails storage _editionDetails = editionNumberToDetails[editionNumber];\n      return (\n      _editionDetails.artistAccount,\n      _editionDetails.artistCommission,\n      _editionDetails.priceInWei,\n      _editionDetails.tokenURI,\n      _editionDetails.totalSupply,\n      _editionDetails.totalAvailable,\n      _editionDetails.active\n      );\n    }\n\n    /**\n     * @dev Lookup a tokens common identifying characteristics\n     * @dev Reverts if invalid token ID provided\n     */\n    function tokenData(uint256 _tokenId)\n    public view\n    onlyValidTokenId(_tokenId)\n    returns (\n      uint256 _editionNumber,\n      string memory _tokenURI,\n      address _owner\n    ) {\n      uint256 editionNumber = tokenIdToEditionNumber[_tokenId];\n      return (\n      editionNumber,\n      tokenURI(_tokenId),\n      ownerOf(_tokenId)\n      );\n    }\n\n\n    function priceInWeiToken(uint256 _tokenId) public view returns (uint256 _priceInWei) {\n      uint256 _editionNumber = tokenIdToEditionNumber[_tokenId];\n      return priceInWeiEdition(_editionNumber);\n    }\n\n    function priceInWeiEdition(uint256 _editionNumber) public view returns (uint256 _priceInWei) {\n        EditionDetails storage _editionDetails = editionNumberToDetails[_editionNumber];\n        return _editionDetails.priceInWei;\n    }\n\n    /**\n * @dev Checks to see if the edition exists, assumes edition of zero is invalid\n */\nfunction editionExists(uint256 _editionNumber) public view returns (bool) {\n  if (_editionNumber == 0) {\n    return false;\n  }\n  EditionDetails storage _editionDetails = editionNumberToDetails[_editionNumber];\n  return _editionDetails.editionNumber == _editionNumber;\n}\n\nfunction tokenExists(uint256 _tokenId) public view onlyValidTokenId(_tokenId) returns (bool) {\n  return true;\n}\n\nfunction editionActive(uint256 _editionNumber) public view returns (bool) {\n  EditionDetails storage _editionDetails = editionNumberToDetails[_editionNumber];\n  return _editionDetails.active;\n}\n\nfunction artistCommission(uint256 _editionNumber) public view returns (address payable _artistAccount, uint256 _artistCommission) {\n  EditionDetails storage _editionDetails = editionNumberToDetails[_editionNumber];\n  return (\n  _editionDetails.artistAccount,\n  _editionDetails.artistCommission\n  );\n}\n\nfunction totalRemaining(uint256 _editionNumber) public view returns (uint256) {\n  EditionDetails storage _editionDetails = editionNumberToDetails[_editionNumber];\n  return _editionDetails.totalAvailable.sub(_editionDetails.totalSupply);\n}\n\nfunction totalAvailableEdition(uint256 _editionNumber) public view returns (uint256) {\n  EditionDetails storage _editionDetails = editionNumberToDetails[_editionNumber];\n  return _editionDetails.totalAvailable;\n}\n\n}\n",
  "sourcePath": "/home/jp/devTruffle/lf/contracts/lfOriginals.sol",
  "compiler": {
    "name": "solc",
    "version": "0.6.12+commit.27d51765.Emscripten.clang"
  },
  "schemaVersion": "3.2.5",
  "updatedAt": "2020-11-03T11:53:47.829Z",
  "networkType": "ethereum",
  "devdoc": {
    "kind": "dev",
    "methods": {
      "approve(address,uint256)": {
        "details": "See {IERC721-approve}."
      },
      "artistsEditions(address)": {
        "details": "Lookup all editions for the given artist accountReturns empty list if not valid"
      },
      "balanceOf(address)": {
        "details": "See {IERC721-balanceOf}."
      },
      "baseURI()": {
        "details": "Returns the base URI set via {_setBaseURI}. This will be automatically added as a prefix in {tokenURI} to each token's URI, or to the token ID if no specific URI is set for that token ID."
      },
      "createInactiveEdition(uint256,address,uint256,uint256,string,uint256)": {
        "details": "Creates an inactive edition from the given configurationOnly callable from KO staff/addresses"
      },
      "createInactivePreMintedEdition(uint256,address,uint256,uint256,string,uint256,uint256)": {
        "details": "Creates an inactive edition from the given configurationThe concept of pre0minted editions means we can 'undermint' token IDS, good for holding back editions from public saleOnly callable from KO staff/addresses"
      },
      "detailsOfEdition(uint256)": {
        "details": "Main entry point for looking up edition config/metadataReverts if invalid edition number provided"
      },
      "editionExists(uint256)": {
        "details": "Checks to see if the edition exists, assumes edition of zero is invalid"
      },
      "editionOfTokenId(uint256)": {
        "details": "Lookup the edition of the provided token IDReturns 0 if not valid"
      },
      "getApproved(uint256)": {
        "details": "See {IERC721-getApproved}."
      },
      "getRoleAdmin(bytes32)": {
        "details": "Returns the admin role that controls `role`. See {grantRole} and {revokeRole}. To change a role's admin, use {_setRoleAdmin}."
      },
      "getRoleMember(bytes32,uint256)": {
        "details": "Returns one of the accounts that have `role`. `index` must be a value between 0 and {getRoleMemberCount}, non-inclusive. Role bearers are not sorted in any particular way, and their ordering may change at any point. WARNING: When using {getRoleMember} and {getRoleMemberCount}, make sure you perform all queries on the same block. See the following https://forum.openzeppelin.com/t/iterating-over-elements-on-enumerableset-in-openzeppelin-contracts/2296[forum post] for more information."
      },
      "getRoleMemberCount(bytes32)": {
        "details": "Returns the number of accounts that have `role`. Can be used together with {getRoleMember} to enumerate all bearers of a role."
      },
      "grantRole(bytes32,address)": {
        "details": "Grants `role` to `account`. If `account` had not been already granted `role`, emits a {RoleGranted} event. Requirements: - the caller must have ``role``'s admin role."
      },
      "hasRole(bytes32,address)": {
        "details": "Returns `true` if `account` has been granted `role`."
      },
      "isApprovedForAll(address,address)": {
        "details": "See {IERC721-isApprovedForAll}."
      },
      "mint(address,uint256)": {
        "details": "Private (KO only) method for minting editionsPayment not needed for this method"
      },
      "name()": {
        "details": "See {IERC721Metadata-name}."
      },
      "ownerOf(uint256)": {
        "details": "See {IERC721-ownerOf}."
      },
      "paused()": {
        "details": "Returns true if the contract is paused, and false otherwise."
      },
      "renounceRole(bytes32,address)": {
        "details": "Revokes `role` from the calling account. Roles are often managed via {grantRole} and {revokeRole}: this function's purpose is to provide a mechanism for accounts to lose their privileges if they are compromised (such as when a trusted device is misplaced). If the calling account had been granted `role`, emits a {RoleRevoked} event. Requirements: - the caller must be `account`."
      },
      "revokeRole(bytes32,address)": {
        "details": "Revokes `role` from `account`. If `account` had been granted `role`, emits a {RoleRevoked} event. Requirements: - the caller must have ``role``'s admin role."
      },
      "safeTransferFrom(address,address,uint256)": {
        "details": "See {IERC721-safeTransferFrom}."
      },
      "safeTransferFrom(address,address,uint256,bytes)": {
        "details": "See {IERC721-safeTransferFrom}."
      },
      "setApprovalForAll(address,bool)": {
        "details": "See {IERC721-setApprovalForAll}."
      },
      "supportsInterface(bytes4)": {
        "details": "See {IERC165-supportsInterface}. Time complexity O(1), guaranteed to always use less than 30 000 gas."
      },
      "symbol()": {
        "details": "See {IERC721Metadata-symbol}."
      },
      "tokenByIndex(uint256)": {
        "details": "See {IERC721Enumerable-tokenByIndex}."
      },
      "tokenData(uint256)": {
        "details": "Lookup a tokens common identifying characteristicsReverts if invalid token ID provided"
      },
      "tokenOfOwnerByIndex(address,uint256)": {
        "details": "See {IERC721Enumerable-tokenOfOwnerByIndex}."
      },
      "tokenURI(uint256)": {
        "details": "See {IERC721Metadata-tokenURI}."
      },
      "tokensOfEdition(uint256)": {
        "details": "Lookup all tokens minted for the given edition numberReturns array of token IDs, any zero edition ids can be ignore/stripped"
      },
      "totalSupply()": {
        "details": "See {IERC721Enumerable-totalSupply}."
      },
      "transferFrom(address,address,uint256)": {
        "details": "See {IERC721-transferFrom}."
      },
      "underMint(address,uint256)": {
        "details": "Private (KO only) method for under minting editionsUnder minting allows for token IDs to be back filled if total supply is not set to zero by defaultPayment not needed for this method"
      }
    },
    "version": 1
  },
  "userdoc": {
    "kind": "user",
    "methods": {},
    "version": 1
  }
}