{
  "contractName": "SelfServiceFrequencyControls",
  "abi": [
    {
      "inputs": [],
      "stateMutability": "nonpayable",
      "type": "constructor"
    },
    {
      "anonymous": false,
      "inputs": [
        {
          "indexed": true,
          "internalType": "bytes32",
          "name": "role",
          "type": "bytes32"
        },
        {
          "indexed": true,
          "internalType": "bytes32",
          "name": "previousAdminRole",
          "type": "bytes32"
        },
        {
          "indexed": true,
          "internalType": "bytes32",
          "name": "newAdminRole",
          "type": "bytes32"
        }
      ],
      "name": "RoleAdminChanged",
      "type": "event"
    },
    {
      "anonymous": false,
      "inputs": [
        {
          "indexed": true,
          "internalType": "bytes32",
          "name": "role",
          "type": "bytes32"
        },
        {
          "indexed": true,
          "internalType": "address",
          "name": "account",
          "type": "address"
        },
        {
          "indexed": true,
          "internalType": "address",
          "name": "sender",
          "type": "address"
        }
      ],
      "name": "RoleGranted",
      "type": "event"
    },
    {
      "anonymous": false,
      "inputs": [
        {
          "indexed": true,
          "internalType": "bytes32",
          "name": "role",
          "type": "bytes32"
        },
        {
          "indexed": true,
          "internalType": "address",
          "name": "account",
          "type": "address"
        },
        {
          "indexed": true,
          "internalType": "address",
          "name": "sender",
          "type": "address"
        }
      ],
      "name": "RoleRevoked",
      "type": "event"
    },
    {
      "inputs": [],
      "name": "DEFAULT_ADMIN_ROLE",
      "outputs": [
        {
          "internalType": "bytes32",
          "name": "",
          "type": "bytes32"
        }
      ],
      "stateMutability": "view",
      "type": "function",
      "constant": true
    },
    {
      "inputs": [],
      "name": "WHITELISTED",
      "outputs": [
        {
          "internalType": "bytes32",
          "name": "",
          "type": "bytes32"
        }
      ],
      "stateMutability": "view",
      "type": "function",
      "constant": true
    },
    {
      "inputs": [],
      "name": "freezeWindow",
      "outputs": [
        {
          "internalType": "uint256",
          "name": "",
          "type": "uint256"
        }
      ],
      "stateMutability": "view",
      "type": "function",
      "constant": true
    },
    {
      "inputs": [
        {
          "internalType": "address",
          "name": "",
          "type": "address"
        }
      ],
      "name": "frequencyOverride",
      "outputs": [
        {
          "internalType": "bool",
          "name": "",
          "type": "bool"
        }
      ],
      "stateMutability": "view",
      "type": "function",
      "constant": true
    },
    {
      "inputs": [
        {
          "internalType": "address",
          "name": "",
          "type": "address"
        }
      ],
      "name": "frozenTil",
      "outputs": [
        {
          "internalType": "uint256",
          "name": "",
          "type": "uint256"
        }
      ],
      "stateMutability": "view",
      "type": "function",
      "constant": true
    },
    {
      "inputs": [
        {
          "internalType": "bytes32",
          "name": "role",
          "type": "bytes32"
        }
      ],
      "name": "getRoleAdmin",
      "outputs": [
        {
          "internalType": "bytes32",
          "name": "",
          "type": "bytes32"
        }
      ],
      "stateMutability": "view",
      "type": "function",
      "constant": true
    },
    {
      "inputs": [
        {
          "internalType": "bytes32",
          "name": "role",
          "type": "bytes32"
        },
        {
          "internalType": "uint256",
          "name": "index",
          "type": "uint256"
        }
      ],
      "name": "getRoleMember",
      "outputs": [
        {
          "internalType": "address",
          "name": "",
          "type": "address"
        }
      ],
      "stateMutability": "view",
      "type": "function",
      "constant": true
    },
    {
      "inputs": [
        {
          "internalType": "bytes32",
          "name": "role",
          "type": "bytes32"
        }
      ],
      "name": "getRoleMemberCount",
      "outputs": [
        {
          "internalType": "uint256",
          "name": "",
          "type": "uint256"
        }
      ],
      "stateMutability": "view",
      "type": "function",
      "constant": true
    },
    {
      "inputs": [
        {
          "internalType": "bytes32",
          "name": "role",
          "type": "bytes32"
        },
        {
          "internalType": "address",
          "name": "account",
          "type": "address"
        }
      ],
      "name": "grantRole",
      "outputs": [],
      "stateMutability": "nonpayable",
      "type": "function"
    },
    {
      "inputs": [
        {
          "internalType": "bytes32",
          "name": "role",
          "type": "bytes32"
        },
        {
          "internalType": "address",
          "name": "account",
          "type": "address"
        }
      ],
      "name": "hasRole",
      "outputs": [
        {
          "internalType": "bool",
          "name": "",
          "type": "bool"
        }
      ],
      "stateMutability": "view",
      "type": "function",
      "constant": true
    },
    {
      "inputs": [
        {
          "internalType": "bytes32",
          "name": "role",
          "type": "bytes32"
        },
        {
          "internalType": "address",
          "name": "account",
          "type": "address"
        }
      ],
      "name": "renounceRole",
      "outputs": [],
      "stateMutability": "nonpayable",
      "type": "function"
    },
    {
      "inputs": [
        {
          "internalType": "bytes32",
          "name": "role",
          "type": "bytes32"
        },
        {
          "internalType": "address",
          "name": "account",
          "type": "address"
        }
      ],
      "name": "revokeRole",
      "outputs": [],
      "stateMutability": "nonpayable",
      "type": "function"
    },
    {
      "inputs": [
        {
          "internalType": "address",
          "name": "artist",
          "type": "address"
        }
      ],
      "name": "canCreateNewEdition",
      "outputs": [
        {
          "internalType": "bool",
          "name": "",
          "type": "bool"
        }
      ],
      "stateMutability": "view",
      "type": "function",
      "constant": true
    },
    {
      "inputs": [
        {
          "internalType": "address",
          "name": "artist",
          "type": "address"
        },
        {
          "internalType": "uint256",
          "name": "",
          "type": "uint256"
        },
        {
          "internalType": "uint256",
          "name": "",
          "type": "uint256"
        }
      ],
      "name": "recordSuccessfulMint",
      "outputs": [
        {
          "internalType": "bool",
          "name": "",
          "type": "bool"
        }
      ],
      "stateMutability": "nonpayable",
      "type": "function"
    },
    {
      "inputs": [
        {
          "internalType": "address",
          "name": "artist",
          "type": "address"
        },
        {
          "internalType": "bool",
          "name": "value",
          "type": "bool"
        }
      ],
      "name": "setFrequencyOverride",
      "outputs": [],
      "stateMutability": "nonpayable",
      "type": "function"
    },
    {
      "inputs": [
        {
          "internalType": "uint256",
          "name": "_freezeWindow",
          "type": "uint256"
        }
      ],
      "name": "setFreezeWindow",
      "outputs": [],
      "stateMutability": "nonpayable",
      "type": "function"
    },
    {
      "inputs": [
        {
          "internalType": "address payable",
          "name": "_withdrawalAccount",
          "type": "address"
        }
      ],
      "name": "withdrawStuckEther",
      "outputs": [],
      "stateMutability": "nonpayable",
      "type": "function"
    }
  ],
  "bytecode": "0x60806040526201518060015534801561001757600080fd5b50610023600033610052565b61004d7fe799c73ff785ac053943f5d98452f7fa0bcf54da67826fc217d6094dec75c5ee33610052565b610157565b61005c8282610060565b5050565b60008281526020818152604090912061008291839061071f6100d3821b17901c565b1561005c5761008f6100f1565b6001600160a01b0316816001600160a01b0316837f2f8788117e7eff1d82e926ec794901d17c78024a50270940304540a733656f0d60405160405180910390a45050565b60006100e8836001600160a01b0384166100f5565b90505b92915050565b3390565b6000610101838361013f565b610137575081546001818101845560008481526020808220909301849055845484825282860190935260409020919091556100eb565b5060006100eb565b60009081526001919091016020526040902054151590565b610b3b806101666000396000f3fe608060405234801561001057600080fd5b506004361061010b5760003560e01c80639010d07c116100a2578063d13ed98b11610071578063d13ed98b146102bf578063d547741f146102f1578063dd3e5e951461031d578063fb08af801461034b578063fce17bbf146103715761010b565b80639010d07c1461022f57806391d148541461026e578063a217fddf1461029a578063ca15c873146102a25761010b565b80632f2ff15d116100de5780632f2ff15d146101a957806336568abe146101d557806360ade0f41461020157806386f00bd7146102095761010b565b80630b71f116146101105780630cd85ece1461012a578063248a9ca31461016457806326ccd77a14610181575b600080fd5b61011861038e565b60408051918252519081900360200190f35b6101506004803603602081101561014057600080fd5b50356001600160a01b03166103a0565b604080519115158252519081900360200190f35b6101186004803603602081101561017a57600080fd5b50356103b5565b6101a76004803603602081101561019757600080fd5b50356001600160a01b03166103cd565b005b6101a7600480360360408110156101bf57600080fd5b50803590602001356001600160a01b0316610482565b6101a7600480360360408110156101eb57600080fd5b50803590602001356001600160a01b03166104ea565b61011861054b565b6101186004803603602081101561021f57600080fd5b50356001600160a01b0316610551565b6102526004803603604081101561024557600080fd5b5080359060200135610563565b604080516001600160a01b039092168252519081900360200190f35b6101506004803603604081101561028457600080fd5b50803590602001356001600160a01b0316610584565b61011861059c565b610118600480360360208110156102b857600080fd5b50356105a1565b610150600480360360608110156102d557600080fd5b506001600160a01b0381351690602081013590604001356105b8565b6101a76004803603604081101561030757600080fd5b50803590602001356001600160a01b031661060c565b6101a76004803603604081101561033357600080fd5b506001600160a01b0381351690602001351515610665565b6101506004803603602081101561036157600080fd5b50356001600160a01b03166106b1565b6101a76004803603602081101561038757600080fd5b50356106f9565b600080516020610ab783398151915281565b60036020526000908152604090205460ff1681565b6000818152602081905260409020600201545b919050565b6103e5600080516020610ab783398151915233610584565b6103ee57600080fd5b6001600160a01b038116610449576040805162461bcd60e51b815260206004820152601860248201527f496e76616c696420616464726573732070726f76696465640000000000000000604482015290519081900360640190fd5b6040516001600160a01b038216904780156108fc02916000818181858888f1935050505015801561047e573d6000803e3d6000fd5b5050565b6000828152602081905260409020600201546104a5906104a0610734565b610584565b6104e05760405162461bcd60e51b815260040180806020018281038252602f815260200180610a58602f913960400191505060405180910390fd5b61047e8282610738565b6104f2610734565b6001600160a01b0316816001600160a01b0316146105415760405162461bcd60e51b815260040180806020018281038252602f815260200180610ad7602f913960400191505060405180910390fd5b61047e82826107a1565b60015481565b60026020526000908152604090205481565b600082815260208190526040812061057b908361080a565b90505b92915050565b600082815260208190526040812061057b9083610816565b600081565b600081815260208190526040812061057e9061082b565b60006105d2600080516020610ab783398151915233610584565b6105db57600080fd5b6001546105e9904290610836565b6001600160a01b0385166000908152600260205260409020555060019392505050565b60008281526020819052604090206002015461062a906104a0610734565b6105415760405162461bcd60e51b8152600401808060200182810382526030815260200180610a876030913960400191505060405180910390fd5b61067d600080516020610ab783398151915233610584565b61068657600080fd5b6001600160a01b03919091166000908152600360205260409020805460ff1916911515919091179055565b6001600160a01b03811660009081526003602052604081205460ff16156106da575060016103c8565b506001600160a01b031660009081526002602052604090205442101590565b610711600080516020610ab783398151915233610584565b61071a57600080fd5b600155565b600061057b836001600160a01b038416610890565b3390565b6000828152602081905260409020610750908261071f565b1561047e5761075d610734565b6001600160a01b0316816001600160a01b0316837f2f8788117e7eff1d82e926ec794901d17c78024a50270940304540a733656f0d60405160405180910390a45050565b60008281526020819052604090206107b990826108da565b1561047e576107c6610734565b6001600160a01b0316816001600160a01b0316837ff6391f5c32d9c69d2a47ea670b442974b53935d1edc7fd64eb21e047a839171b60405160405180910390a45050565b600061057b83836108ef565b600061057b836001600160a01b038416610953565b600061057e8261096b565b60008282018381101561057b576040805162461bcd60e51b815260206004820152601b60248201527f536166654d6174683a206164646974696f6e206f766572666c6f770000000000604482015290519081900360640190fd5b600061089c8383610953565b6108d25750815460018181018455600084815260208082209093018490558454848252828601909352604090209190915561057e565b50600061057e565b600061057b836001600160a01b03841661096f565b815460009082106109315760405162461bcd60e51b8152600401808060200182810382526022815260200180610a366022913960400191505060405180910390fd5b82600001828154811061094057fe5b9060005260206000200154905092915050565b60009081526001919091016020526040902054151590565b5490565b60008181526001830160205260408120548015610a2b57835460001980830191908101906000908790839081106109a257fe5b90600052602060002001549050808760000184815481106109bf57fe5b6000918252602080832090910192909255828152600189810190925260409020908401905586548790806109ef57fe5b6001900381819060005260206000200160009055905586600101600087815260200190815260200160002060009055600194505050505061057e565b600091505061057e56fe456e756d657261626c655365743a20696e646578206f7574206f6620626f756e6473416363657373436f6e74726f6c3a2073656e646572206d75737420626520616e2061646d696e20746f206772616e74416363657373436f6e74726f6c3a2073656e646572206d75737420626520616e2061646d696e20746f207265766f6b65e799c73ff785ac053943f5d98452f7fa0bcf54da67826fc217d6094dec75c5ee416363657373436f6e74726f6c3a2063616e206f6e6c792072656e6f756e636520726f6c657320666f722073656c66a2646970667358221220fd949d63aa6dbb427ef158a1f9c489af1d0dd5716775c4f062b600cccbb4e95164736f6c634300060c0033",
  "immutableReferences": {},
  "source": "// SPDX-License-Identifier: MIT\r\npragma solidity ^0.6.0;\r\n\r\nimport \"@openzeppelin/contracts/math/SafeMath.sol\";\r\nimport \"@openzeppelin/contracts/access/AccessControl.sol\";\r\nimport \"../interfaces/ISelfServiceFrequencyControls.sol\";\r\n\r\ncontract SelfServiceFrequencyControls is ISelfServiceFrequencyControls, AccessControl {\r\n  using SafeMath for uint256;\r\n\r\n  // frozen out for..\r\n  uint256 public freezeWindow = 1 days;\r\n\r\n  // When the current time period started\r\n  mapping(address => uint256) public frozenTil;\r\n\r\n  // Frequency override list for users - you can temporaily add in address which disables the 24hr check\r\n  mapping(address => bool) public frequencyOverride;\r\n\r\n    //ROLES\r\n    bytes32 public constant WHITELISTED = keccak256(\"WHITELISTED\");\r\n\r\n    modifier onlyWhitelisted {\r\n        require(hasRole(WHITELISTED, msg.sender));\r\n        _;\r\n    }\r\n\r\n\r\n\r\n\r\n  constructor() public {\r\n    _setupRole(DEFAULT_ADMIN_ROLE, msg.sender);\r\n    _setupRole(WHITELISTED, msg.sender);\r\n  }\r\n\r\n  function canCreateNewEdition(address artist) external override view returns (bool) {\r\n    if (frequencyOverride[artist]) {\r\n      return true;\r\n    }\r\n    return (block.timestamp >= frozenTil[artist]);\r\n  }\r\n\r\n  function recordSuccessfulMint(address artist, uint256 , uint256 ) external override onlyWhitelisted returns (bool) {\r\n    frozenTil[artist] = block.timestamp.add(freezeWindow);\r\n    return true;\r\n  }\r\n\r\n  function setFrequencyOverride(address artist, bool value) external onlyWhitelisted {\r\n    frequencyOverride[artist] = value;\r\n  }\r\n\r\n  /**\r\n   * @dev Sets freeze window\r\n   * @dev Only callable from owner\r\n   */\r\n  function setFreezeWindow(uint256 _freezeWindow) onlyWhitelisted public {\r\n    freezeWindow = _freezeWindow;\r\n  }\r\n\r\n  /**\r\n   * @dev Allows for the ability to extract stuck ether\r\n   * @dev Only callable from owner\r\n   */\r\n  function withdrawStuckEther(address payable _withdrawalAccount) onlyWhitelisted public {\r\n    require(_withdrawalAccount != address(0), \"Invalid address provided\");\r\n    _withdrawalAccount.transfer(address(this).balance);\r\n  }\r\n}\r\n",
  "sourcePath": "/home/jp/devTruffle/lf/contracts/extras/SelfServiceFrequencyControls.sol",
  "compiler": {
    "name": "solc",
    "version": "0.6.12+commit.27d51765.Emscripten.clang"
  },
  "schemaVersion": "3.2.5",
  "updatedAt": "2020-11-03T11:53:47.074Z",
  "networkType": "ethereum",
  "devdoc": {
    "kind": "dev",
    "methods": {
      "getRoleAdmin(bytes32)": {
        "details": "Returns the admin role that controls `role`. See {grantRole} and {revokeRole}. To change a role's admin, use {_setRoleAdmin}."
      },
      "getRoleMember(bytes32,uint256)": {
        "details": "Returns one of the accounts that have `role`. `index` must be a value between 0 and {getRoleMemberCount}, non-inclusive. Role bearers are not sorted in any particular way, and their ordering may change at any point. WARNING: When using {getRoleMember} and {getRoleMemberCount}, make sure you perform all queries on the same block. See the following https://forum.openzeppelin.com/t/iterating-over-elements-on-enumerableset-in-openzeppelin-contracts/2296[forum post] for more information."
      },
      "getRoleMemberCount(bytes32)": {
        "details": "Returns the number of accounts that have `role`. Can be used together with {getRoleMember} to enumerate all bearers of a role."
      },
      "grantRole(bytes32,address)": {
        "details": "Grants `role` to `account`. If `account` had not been already granted `role`, emits a {RoleGranted} event. Requirements: - the caller must have ``role``'s admin role."
      },
      "hasRole(bytes32,address)": {
        "details": "Returns `true` if `account` has been granted `role`."
      },
      "renounceRole(bytes32,address)": {
        "details": "Revokes `role` from the calling account. Roles are often managed via {grantRole} and {revokeRole}: this function's purpose is to provide a mechanism for accounts to lose their privileges if they are compromised (such as when a trusted device is misplaced). If the calling account had been granted `role`, emits a {RoleRevoked} event. Requirements: - the caller must be `account`."
      },
      "revokeRole(bytes32,address)": {
        "details": "Revokes `role` from `account`. If `account` had been granted `role`, emits a {RoleRevoked} event. Requirements: - the caller must have ``role``'s admin role."
      },
      "setFreezeWindow(uint256)": {
        "details": "Sets freeze windowOnly callable from owner"
      },
      "withdrawStuckEther(address)": {
        "details": "Allows for the ability to extract stuck etherOnly callable from owner"
      }
    },
    "version": 1
  },
  "userdoc": {
    "kind": "user",
    "methods": {},
    "version": 1
  }
}