{
  "contractName": "SelfServiceEditionCuration",
  "abi": [
    {
      "inputs": [
        {
          "internalType": "contract ISelfServiceEditionCuration",
          "name": "_lfo",
          "type": "address"
        },
        {
          "internalType": "contract ILFOAuction",
          "name": "_auction",
          "type": "address"
        },
        {
          "internalType": "contract ISelfServiceAccessControls",
          "name": "_accessControls",
          "type": "address"
        },
        {
          "internalType": "contract ISelfServiceFrequencyControls",
          "name": "_frequencyControls",
          "type": "address"
        }
      ],
      "stateMutability": "nonpayable",
      "type": "constructor"
    },
    {
      "anonymous": false,
      "inputs": [
        {
          "indexed": false,
          "internalType": "address",
          "name": "account",
          "type": "address"
        }
      ],
      "name": "Paused",
      "type": "event"
    },
    {
      "anonymous": false,
      "inputs": [
        {
          "indexed": true,
          "internalType": "bytes32",
          "name": "role",
          "type": "bytes32"
        },
        {
          "indexed": true,
          "internalType": "bytes32",
          "name": "previousAdminRole",
          "type": "bytes32"
        },
        {
          "indexed": true,
          "internalType": "bytes32",
          "name": "newAdminRole",
          "type": "bytes32"
        }
      ],
      "name": "RoleAdminChanged",
      "type": "event"
    },
    {
      "anonymous": false,
      "inputs": [
        {
          "indexed": true,
          "internalType": "bytes32",
          "name": "role",
          "type": "bytes32"
        },
        {
          "indexed": true,
          "internalType": "address",
          "name": "account",
          "type": "address"
        },
        {
          "indexed": true,
          "internalType": "address",
          "name": "sender",
          "type": "address"
        }
      ],
      "name": "RoleGranted",
      "type": "event"
    },
    {
      "anonymous": false,
      "inputs": [
        {
          "indexed": true,
          "internalType": "bytes32",
          "name": "role",
          "type": "bytes32"
        },
        {
          "indexed": true,
          "internalType": "address",
          "name": "account",
          "type": "address"
        },
        {
          "indexed": true,
          "internalType": "address",
          "name": "sender",
          "type": "address"
        }
      ],
      "name": "RoleRevoked",
      "type": "event"
    },
    {
      "anonymous": false,
      "inputs": [
        {
          "indexed": true,
          "internalType": "uint256",
          "name": "_editionNumber",
          "type": "uint256"
        },
        {
          "indexed": true,
          "internalType": "address",
          "name": "_creator",
          "type": "address"
        },
        {
          "indexed": false,
          "internalType": "uint256",
          "name": "_priceInWei",
          "type": "uint256"
        },
        {
          "indexed": false,
          "internalType": "uint256",
          "name": "_totalAvailable",
          "type": "uint256"
        },
        {
          "indexed": false,
          "internalType": "bool",
          "name": "_enableAuction",
          "type": "bool"
        }
      ],
      "name": "SelfServiceEditionCreated",
      "type": "event"
    },
    {
      "anonymous": false,
      "inputs": [
        {
          "indexed": false,
          "internalType": "address",
          "name": "account",
          "type": "address"
        }
      ],
      "name": "Unpaused",
      "type": "event"
    },
    {
      "inputs": [],
      "name": "DEFAULT_ADMIN_ROLE",
      "outputs": [
        {
          "internalType": "bytes32",
          "name": "",
          "type": "bytes32"
        }
      ],
      "stateMutability": "view",
      "type": "function",
      "constant": true
    },
    {
      "inputs": [],
      "name": "WHITELISTED",
      "outputs": [
        {
          "internalType": "bytes32",
          "name": "",
          "type": "bytes32"
        }
      ],
      "stateMutability": "view",
      "type": "function",
      "constant": true
    },
    {
      "inputs": [],
      "name": "accessControls",
      "outputs": [
        {
          "internalType": "contract ISelfServiceAccessControls",
          "name": "",
          "type": "address"
        }
      ],
      "stateMutability": "view",
      "type": "function",
      "constant": true
    },
    {
      "inputs": [],
      "name": "auction",
      "outputs": [
        {
          "internalType": "contract ILFOAuction",
          "name": "",
          "type": "address"
        }
      ],
      "stateMutability": "view",
      "type": "function",
      "constant": true
    },
    {
      "inputs": [],
      "name": "frequencyControls",
      "outputs": [
        {
          "internalType": "contract ISelfServiceFrequencyControls",
          "name": "",
          "type": "address"
        }
      ],
      "stateMutability": "view",
      "type": "function",
      "constant": true
    },
    {
      "inputs": [
        {
          "internalType": "bytes32",
          "name": "role",
          "type": "bytes32"
        }
      ],
      "name": "getRoleAdmin",
      "outputs": [
        {
          "internalType": "bytes32",
          "name": "",
          "type": "bytes32"
        }
      ],
      "stateMutability": "view",
      "type": "function",
      "constant": true
    },
    {
      "inputs": [
        {
          "internalType": "bytes32",
          "name": "role",
          "type": "bytes32"
        },
        {
          "internalType": "uint256",
          "name": "index",
          "type": "uint256"
        }
      ],
      "name": "getRoleMember",
      "outputs": [
        {
          "internalType": "address",
          "name": "",
          "type": "address"
        }
      ],
      "stateMutability": "view",
      "type": "function",
      "constant": true
    },
    {
      "inputs": [
        {
          "internalType": "bytes32",
          "name": "role",
          "type": "bytes32"
        }
      ],
      "name": "getRoleMemberCount",
      "outputs": [
        {
          "internalType": "uint256",
          "name": "",
          "type": "uint256"
        }
      ],
      "stateMutability": "view",
      "type": "function",
      "constant": true
    },
    {
      "inputs": [
        {
          "internalType": "bytes32",
          "name": "role",
          "type": "bytes32"
        },
        {
          "internalType": "address",
          "name": "account",
          "type": "address"
        }
      ],
      "name": "grantRole",
      "outputs": [],
      "stateMutability": "nonpayable",
      "type": "function"
    },
    {
      "inputs": [
        {
          "internalType": "bytes32",
          "name": "role",
          "type": "bytes32"
        },
        {
          "internalType": "address",
          "name": "account",
          "type": "address"
        }
      ],
      "name": "hasRole",
      "outputs": [
        {
          "internalType": "bool",
          "name": "",
          "type": "bool"
        }
      ],
      "stateMutability": "view",
      "type": "function",
      "constant": true
    },
    {
      "inputs": [],
      "name": "lfCommission",
      "outputs": [
        {
          "internalType": "uint256",
          "name": "",
          "type": "uint256"
        }
      ],
      "stateMutability": "view",
      "type": "function",
      "constant": true
    },
    {
      "inputs": [],
      "name": "lfo",
      "outputs": [
        {
          "internalType": "contract ISelfServiceEditionCuration",
          "name": "",
          "type": "address"
        }
      ],
      "stateMutability": "view",
      "type": "function",
      "constant": true
    },
    {
      "inputs": [],
      "name": "maxEditionSize",
      "outputs": [
        {
          "internalType": "uint256",
          "name": "",
          "type": "uint256"
        }
      ],
      "stateMutability": "view",
      "type": "function",
      "constant": true
    },
    {
      "inputs": [],
      "name": "minPricePerEdition",
      "outputs": [
        {
          "internalType": "uint256",
          "name": "",
          "type": "uint256"
        }
      ],
      "stateMutability": "view",
      "type": "function",
      "constant": true
    },
    {
      "inputs": [],
      "name": "paused",
      "outputs": [
        {
          "internalType": "bool",
          "name": "",
          "type": "bool"
        }
      ],
      "stateMutability": "view",
      "type": "function",
      "constant": true
    },
    {
      "inputs": [
        {
          "internalType": "bytes32",
          "name": "role",
          "type": "bytes32"
        },
        {
          "internalType": "address",
          "name": "account",
          "type": "address"
        }
      ],
      "name": "renounceRole",
      "outputs": [],
      "stateMutability": "nonpayable",
      "type": "function"
    },
    {
      "inputs": [
        {
          "internalType": "bytes32",
          "name": "role",
          "type": "bytes32"
        },
        {
          "internalType": "address",
          "name": "account",
          "type": "address"
        }
      ],
      "name": "revokeRole",
      "outputs": [],
      "stateMutability": "nonpayable",
      "type": "function"
    },
    {
      "inputs": [
        {
          "internalType": "bool",
          "name": "_enableAuction",
          "type": "bool"
        },
        {
          "internalType": "uint256",
          "name": "_totalAvailable",
          "type": "uint256"
        },
        {
          "internalType": "uint256",
          "name": "_priceInWei",
          "type": "uint256"
        },
        {
          "internalType": "uint256",
          "name": "_artistCommission",
          "type": "uint256"
        },
        {
          "internalType": "string",
          "name": "_tokenUri",
          "type": "string"
        }
      ],
      "name": "createEdition",
      "outputs": [
        {
          "internalType": "uint256",
          "name": "_editionNumber",
          "type": "uint256"
        }
      ],
      "stateMutability": "nonpayable",
      "type": "function"
    },
    {
      "inputs": [
        {
          "internalType": "address",
          "name": "_artist",
          "type": "address"
        },
        {
          "internalType": "bool",
          "name": "_enableAuction",
          "type": "bool"
        },
        {
          "internalType": "uint256",
          "name": "_totalAvailable",
          "type": "uint256"
        },
        {
          "internalType": "uint256",
          "name": "_priceInWei",
          "type": "uint256"
        },
        {
          "internalType": "uint256",
          "name": "_artistCommission",
          "type": "uint256"
        },
        {
          "internalType": "string",
          "name": "_tokenUri",
          "type": "string"
        }
      ],
      "name": "createEditionFor",
      "outputs": [
        {
          "internalType": "uint256",
          "name": "_editionNumber",
          "type": "uint256"
        }
      ],
      "stateMutability": "nonpayable",
      "type": "function"
    },
    {
      "inputs": [
        {
          "internalType": "contract ISelfServiceEditionCuration",
          "name": "_lfo",
          "type": "address"
        }
      ],
      "name": "setLFO",
      "outputs": [],
      "stateMutability": "nonpayable",
      "type": "function"
    },
    {
      "inputs": [
        {
          "internalType": "contract ILFOAuction",
          "name": "_auction",
          "type": "address"
        }
      ],
      "name": "setAuction",
      "outputs": [],
      "stateMutability": "nonpayable",
      "type": "function"
    },
    {
      "inputs": [
        {
          "internalType": "uint256",
          "name": "_lfCommission",
          "type": "uint256"
        }
      ],
      "name": "setLFCommission",
      "outputs": [],
      "stateMutability": "nonpayable",
      "type": "function"
    },
    {
      "inputs": [
        {
          "internalType": "uint256",
          "name": "_maxEditionSize",
          "type": "uint256"
        }
      ],
      "name": "setMaxEditionSize",
      "outputs": [],
      "stateMutability": "nonpayable",
      "type": "function"
    },
    {
      "inputs": [
        {
          "internalType": "uint256",
          "name": "_minPricePerEdition",
          "type": "uint256"
        }
      ],
      "name": "setMinPricePerEdition",
      "outputs": [],
      "stateMutability": "nonpayable",
      "type": "function"
    },
    {
      "inputs": [
        {
          "internalType": "address",
          "name": "account",
          "type": "address"
        }
      ],
      "name": "isFrozen",
      "outputs": [
        {
          "internalType": "bool",
          "name": "",
          "type": "bool"
        }
      ],
      "stateMutability": "view",
      "type": "function",
      "constant": true
    },
    {
      "inputs": [
        {
          "internalType": "address",
          "name": "account",
          "type": "address"
        }
      ],
      "name": "isEnabledForAccount",
      "outputs": [
        {
          "internalType": "bool",
          "name": "",
          "type": "bool"
        }
      ],
      "stateMutability": "view",
      "type": "function",
      "constant": true
    },
    {
      "inputs": [
        {
          "internalType": "address",
          "name": "account",
          "type": "address"
        }
      ],
      "name": "canCreateAnotherEdition",
      "outputs": [
        {
          "internalType": "bool",
          "name": "",
          "type": "bool"
        }
      ],
      "stateMutability": "view",
      "type": "function",
      "constant": true
    },
    {
      "inputs": [
        {
          "internalType": "address payable",
          "name": "_withdrawalAccount",
          "type": "address"
        }
      ],
      "name": "withdrawStuckEther",
      "outputs": [],
      "stateMutability": "nonpayable",
      "type": "function"
    }
  ],
  "bytecode": "0x6080604052600f6005556064600655662386f26fc100006007553480156200002657600080fd5b5060405162001ae038038062001ae0833981810160405260808110156200004c57600080fd5b508051602082015160408301516060909301516001805460ff19169055919290916200007a60003362000103565b620000a67fe799c73ff785ac053943f5d98452f7fa0bcf54da67826fc217d6094dec75c5ee3362000103565b600180546001600160a01b0395861661010002610100600160a81b0319909116179055600280549385166001600160a01b031994851617905560038054928516928416929092179091556004805491909316911617905562000217565b6200010f828262000113565b5050565b6000828152602081815260409091206200013891839062000f2e6200018c821b17901c565b156200010f5762000148620001ac565b6001600160a01b0316816001600160a01b0316837f2f8788117e7eff1d82e926ec794901d17c78024a50270940304540a733656f0d60405160405180910390a45050565b6000620001a3836001600160a01b038416620001b0565b90505b92915050565b3390565b6000620001be8383620001ff565b620001f657508154600181810184556000848152602080822090930184905584548482528286019093526040902091909155620001a6565b506000620001a6565b60009081526001919091016020526040902054151590565b6118b980620002276000396000f3fe608060405234801561001057600080fd5b50600436106101c45760003560e01c80639010d07c116100f9578063b0316f0311610097578063be6128f411610071578063be6128f4146104f6578063ca15c873146105c6578063d547741f146105e3578063e58398361461060f576101c4565b8063b0316f03146104ab578063b5d9ea65146104b3578063b8c6f579146104d0576101c4565b8063a28c5294116100d3578063a28c5294146103a0578063a3a4ca7d146103a8578063ab1183e014610468578063afc57f981461048e576101c4565b80639010d07c1461034957806391d148541461036c578063a217fddf14610398576101c4565b8063566aac2f11610166578063748365ef11610140578063748365ef1461030d5780637b37ce4f146103315780637d9f6db5146103395780638414455c14610341576101c4565b8063566aac2f146102c25780635c975abb146102df5780636c056b43146102e7576101c4565b80632bd3152d116101a25780632bd3152d146102285780632f2ff15d1461026257806336568abe1461028e578063410112fd146102ba576101c4565b80630b71f116146101c9578063248a9ca3146101e357806326ccd77a14610200575b600080fd5b6101d1610635565b60408051918252519081900360200190f35b6101d1600480360360208110156101f957600080fd5b5035610647565b6102266004803603602081101561021657600080fd5b50356001600160a01b031661065f565b005b61024e6004803603602081101561023e57600080fd5b50356001600160a01b0316610714565b604080519115158252519081900360200190f35b6102266004803603604081101561027857600080fd5b50803590602001356001600160a01b0316610797565b610226600480360360408110156102a457600080fd5b50803590602001356001600160a01b03166107ff565b6101d1610860565b610226600480360360208110156102d857600080fd5b5035610866565b61024e61088c565b610226600480360360208110156102fd57600080fd5b50356001600160a01b0316610895565b6103156108de565b604080516001600160a01b039092168252519081900360200190f35b6101d16108ed565b6103156108f3565b610315610902565b6103156004803603604081101561035f57600080fd5b5080359060200135610916565b61024e6004803603604081101561038257600080fd5b50803590602001356001600160a01b0316610937565b6101d161094f565b610315610954565b6101d1600480360360a08110156103be57600080fd5b813515159160208101359160408201359160608101359181019060a0810160808201356401000000008111156103f357600080fd5b82018360208201111561040557600080fd5b8035906020019184600183028401116401000000008311171561042757600080fd5b91908080601f016020809104026020016040519081016040528093929190818152602001838380828437600092019190915250929550610963945050505050565b61024e6004803603602081101561047e57600080fd5b50356001600160a01b0316610b8b565b610226600480360360208110156104a457600080fd5b5035610c76565b6101d1610c9c565b610226600480360360208110156104c957600080fd5b5035610ca2565b610226600480360360208110156104e657600080fd5b50356001600160a01b0316610cc8565b6101d1600480360360c081101561050c57600080fd5b6001600160a01b038235169160208101351515916040820135916060810135916080820135919081019060c0810160a082013564010000000081111561055157600080fd5b82018360208201111561056357600080fd5b8035906020019184600183028401116401000000008311171561058557600080fd5b91908080601f016020809104026020016040519081016040528093929190818152602001838380828437600092019190915250929550610d0b945050505050565b6101d1600480360360208110156105dc57600080fd5b5035610e5a565b610226600480360360408110156105f957600080fd5b50803590602001356001600160a01b0316610e71565b61024e6004803603602081101561062557600080fd5b50356001600160a01b0316610eca565b60008051602061183583398151915281565b6000818152602081905260409020600201545b919050565b61067760008051602061183583398151915233610937565b61068057600080fd5b6001600160a01b0381166106db576040805162461bcd60e51b815260206004820152601860248201527f496e76616c696420616464726573732070726f76696465640000000000000000604482015290519081900360640190fd5b6040516001600160a01b038216904780156108fc02916000818181858888f19350505050158015610710573d6000803e3d6000fd5b5050565b60035460408051632bd3152d60e01b81526001600160a01b03848116600483015291516000939290921691632bd3152d91602480820192602092909190829003018186803b15801561076557600080fd5b505afa158015610779573d6000803e3d6000fd5b505050506040513d602081101561078f57600080fd5b505192915050565b6000828152602081905260409020600201546107ba906107b5610f43565b610937565b6107f55760405162461bcd60e51b815260040180806020018281038252602f8152602001806117af602f913960400191505060405180910390fd5b6107108282610f47565b610807610f43565b6001600160a01b0316816001600160a01b0316146108565760405162461bcd60e51b815260040180806020018281038252602f815260200180611855602f913960400191505060405180910390fd5b6107108282610fb0565b60075481565b61087e60008051602061183583398151915233610937565b61088757600080fd5b600655565b60015460ff1690565b6108ad60008051602061183583398151915233610937565b6108b657600080fd5b600180546001600160a01b0390921661010002610100600160a81b0319909216919091179055565b6003546001600160a01b031681565b60065481565b6002546001600160a01b031681565b60015461010090046001600160a01b031681565b600082815260208190526040812061092e9083611019565b90505b92915050565b600082815260208190526040812061092e9083611025565b600081565b6004546001600160a01b031681565b60015460009060ff16156109b1576040805162461bcd60e51b815260206004820152601060248201526f14185d5cd8589b194e881c185d5cd95960821b604482015290519081900360640190fd5b60048054604080516301f6115f60e71b81523393810193909352516001600160a01b039091169163fb08af80916024808301926020929190829003018186803b1580156109fd57600080fd5b505afa158015610a11573d6000803e3d6000fd5b505050506040513d6020811015610a2757600080fd5b5051610a645760405162461bcd60e51b81526004018080602001828103825260278152602001806117de6027913960400191505060405180910390fd5b6064610a7b6005548561103a90919063ffffffff16565b1115610ace576040805162461bcd60e51b815260206004820152601c60248201527f546f74616c20636f6d6d697373696f6e20657863656564732031303000000000604482015290519081900360640190fd5b6000610af6338860405180606001604052808a81526020018981526020018881525086611094565b600480546040805163d13ed98b60e01b81523393810193909352602483018a905260448301899052519293506001600160a01b03169163d13ed98b916064808201926020929091908290030181600087803b158015610b5457600080fd5b505af1158015610b68573d6000803e3d6000fd5b505050506040513d6020811015610b7e57600080fd5b5090979650505050505050565b60035460408051632bd3152d60e01b81526001600160a01b03848116600483015291516000939290921691632bd3152d91602480820192602092909190829003018186803b158015610bdc57600080fd5b505afa158015610bf0573d6000803e3d6000fd5b505050506040513d6020811015610c0657600080fd5b5051610c145750600061065a565b600460009054906101000a90046001600160a01b03166001600160a01b031663fb08af80836040518263ffffffff1660e01b815260040180826001600160a01b0316815260200191505060206040518083038186803b15801561076557600080fd5b610c8e60008051602061183583398151915233610937565b610c9757600080fd5b600755565b60055481565b610cba60008051602061183583398151915233610937565b610cc357600080fd5b600555565b610ce060008051602061183583398151915233610937565b610ce957600080fd5b600280546001600160a01b0319166001600160a01b0392909216919091179055565b6000610d2560008051602061183583398151915233610937565b610d2e57600080fd5b6064610d456005548561103a90919063ffffffff16565b1115610d98576040805162461bcd60e51b815260206004820152601c60248201527f546f74616c20636f6d6d697373696f6e20657863656564732031303000000000604482015290519081900360640190fd5b6000610dc0888860405180606001604052808a81526020018981526020018881525086611094565b600480546040805163d13ed98b60e01b81526001600160a01b038d811694820194909452602481018b9052604481018a9052905193945091169163d13ed98b916064808201926020929091908290030181600087803b158015610e2257600080fd5b505af1158015610e36573d6000803e3d6000fd5b505050506040513d6020811015610e4c57600080fd5b509098975050505050505050565b6000818152602081905260408120610931906114a4565b600082815260208190526040902060020154610e8f906107b5610f43565b6108565760405162461bcd60e51b81526004018080602001828103825260308152602001806118056030913960400191505060405180910390fd5b6000600460009054906101000a90046001600160a01b03166001600160a01b031663fb08af80836040518263ffffffff1660e01b815260040180826001600160a01b0316815260200191505060206040518083038186803b15801561076557600080fd5b600061092e836001600160a01b0384166114af565b3390565b6000828152602081905260409020610f5f9082610f2e565b1561071057610f6c610f43565b6001600160a01b0316816001600160a01b0316837f2f8788117e7eff1d82e926ec794901d17c78024a50270940304540a733656f0d60405160405180910390a45050565b6000828152602081905260409020610fc890826114f9565b1561071057610fd5610f43565b6001600160a01b0316816001600160a01b0316837ff6391f5c32d9c69d2a47ea670b442974b53935d1edc7fd64eb21e047a839171b60405160405180910390a45050565b600061092e838361150e565b600061092e836001600160a01b038416611572565b60008282018381101561092e576040805162461bcd60e51b815260206004820152601b60248201527f536166654d6174683a206164646974696f6e206f766572666c6f770000000000604482015290519081900360640190fd5b81516020830151600091906110b760008051602061183583398151915233610937565b806110cf57506000821180156110cf57506006548211155b611117576040805162461bcd60e51b8152602060048201526014602482015273496e76616c69642065646974696f6e2073697a6560601b604482015290519081900360640190fd5b61112f60008051602061183583398151915233610937565b8061113c57506007548110155b61117d576040805162461bcd60e51b815260206004820152600d60248201526c496e76616c696420707269636560981b604482015290519081900360640190fd5b61119560008051602061183583398151915233610937565b80611215575060035460408051632bd3152d60e01b81526001600160a01b038a8116600483015291519190921691632bd3152d916024808301926020929190829003018186803b1580156111e857600080fd5b505afa1580156111fc573d6000803e3d6000fd5b505050506040513d602081101561121257600080fd5b50515b611266576040805162461bcd60e51b815260206004820152601d60248201527f4e6f7420616c6c6f77656420746f206372656174652065646974696f6e000000604482015290519081900360640190fd5b600061127061158a565b60015490915061010090046001600160a01b031663d7d80468828a8960026020020151868a896040518763ffffffff1660e01b815260040180878152602001866001600160a01b0316815260200185815260200184815260200180602001838152602001828103825284818151815260200191508051906020019080838360005b838110156113095781810151838201526020016112f1565b50505050905090810190601f1680156113365780820380516001836020036101000a031916815260200191505b50975050505050505050602060405180830381600087803b15801561135a57600080fd5b505af115801561136e573d6000803e3d6000fd5b505050506040513d602081101561138457600080fd5b50516113d7576040805162461bcd60e51b815260206004820152601c60248201527f4661696c656420746f20637265617465206e65772065646974696f6e00000000604482015290519081900360640190fd5b861561144b576002546040805163b5e7f3c360e01b8152600481018490526001600160a01b038b811660248301529151919092169163b5e7f3c391604480830192600092919082900301818387803b15801561143257600080fd5b505af1158015611446573d6000803e3d6000fd5b505050505b60408051838152602081018590528815158183015290516001600160a01b038a169183917faa456f9f24703ca25ecf5b0bfd7bed18ed96589119418060049a312d983727669181900360600190a3979650505050505050565b6000610931826116c2565b60006114bb8383611572565b6114f157508154600181810184556000848152602080822090930184905584548482528286019093526040902091909155610931565b506000610931565b600061092e836001600160a01b0384166116c6565b815460009082106115505760405162461bcd60e51b815260040180806020018281038252602281526020018061178d6022913960400191505060405180910390fd5b82600001828154811061155f57fe5b9060005260206000200154905092915050565b60009081526001919091016020526040902054151590565b60008060018054906101000a90046001600160a01b03166001600160a01b031663abf3260f6040518163ffffffff1660e01b8152600401602060405180830381600087803b1580156115db57600080fd5b505af11580156115ef573d6000803e3d6000fd5b505050506040513d602081101561160557600080fd5b505160015460408051633501434960e11b81526004810184905290519293506000926101009092046001600160a01b031691636a0286929160248082019260209290919082900301818787803b15801561165e57600080fd5b505af1158015611672573d6000803e3d6000fd5b505050506040513d602081101561168857600080fd5b5051905060006116a3600161169d858561103a565b9061103a565b6006549091508060001981840101816116b857fe5b0402935050505090565b5490565b6000818152600183016020526040812054801561178257835460001980830191908101906000908790839081106116f957fe5b906000526020600020015490508087600001848154811061171657fe5b60009182526020808320909101929092558281526001898101909252604090209084019055865487908061174657fe5b60019003818190600052602060002001600090559055866001016000878152602001908152602001600020600090556001945050505050610931565b600091505061093156fe456e756d657261626c655365743a20696e646578206f7574206f6620626f756e6473416363657373436f6e74726f6c3a2073656e646572206d75737420626520616e2061646d696e20746f206772616e7453656e6465722063757272656e746c792066726f7a656e206f7574206f66206372656174696f6e416363657373436f6e74726f6c3a2073656e646572206d75737420626520616e2061646d696e20746f207265766f6b65e799c73ff785ac053943f5d98452f7fa0bcf54da67826fc217d6094dec75c5ee416363657373436f6e74726f6c3a2063616e206f6e6c792072656e6f756e636520726f6c657320666f722073656c66a26469706673582212207bd06414a6afd053a216057ff25cc3d9ef231939903c92e0ee1ee4054cb684d964736f6c634300060c0033",
  "immutableReferences": {},
  "source": "// SPDX-License-Identifier: MIT\r\npragma solidity ^0.6.0;\r\n\r\nimport \"@openzeppelin/contracts/access/AccessControl.sol\";\r\nimport \"@openzeppelin/contracts/utils/Pausable.sol\";\r\nimport \"@openzeppelin/contracts/math/SafeMath.sol\";\r\n\r\nimport \"../interfaces/ISelfServiceEditionCuration.sol\";\r\nimport \"../interfaces/ILFOAuction.sol\";\r\nimport \"../interfaces/ISelfServiceAccessControls.sol\";\r\nimport \"../interfaces/ISelfServiceFrequencyControls.sol\";\r\n\r\n// One invocation per time-period\r\ncontract SelfServiceEditionCuration is AccessControl, Pausable {\r\n  using SafeMath for uint256;\r\n\r\n  event SelfServiceEditionCreated(\r\n    uint256 indexed _editionNumber,\r\n    address indexed _creator,\r\n    uint256 _priceInWei,\r\n    uint256 _totalAvailable,\r\n    bool _enableAuction\r\n  );\r\n\r\n  // Calling address\r\n  ISelfServiceEditionCuration public lfo;\r\n  ILFOAuction public auction;\r\n  ISelfServiceAccessControls public accessControls;\r\n  ISelfServiceFrequencyControls public frequencyControls;\r\n\r\n  // Default LF commission\r\n  uint256 public lfCommission = 15;\r\n\r\n  // Config which enforces editions to not be over this size\r\n  uint256 public maxEditionSize = 100;\r\n\r\n  // Config the minimum price per edition\r\n  uint256 public minPricePerEdition = 0.01 ether;\r\n\r\n    //ROLES\r\n    bytes32 public constant WHITELISTED = keccak256(\"WHITELISTED\");\r\n\r\n\r\n    modifier onlyWhitelisted {\r\n        require(hasRole(WHITELISTED, msg.sender));\r\n        _;\r\n    }\r\n\r\n  /**\r\n   * @dev Construct a new instance of the contract\r\n   */\r\n  constructor(\r\n    ISelfServiceEditionCuration _lfo,\r\n    ILFOAuction _auction,\r\n    ISelfServiceAccessControls _accessControls,\r\n    ISelfServiceFrequencyControls _frequencyControls\r\n  ) public {\r\n    _setupRole(DEFAULT_ADMIN_ROLE, msg.sender);\r\n    _setupRole(WHITELISTED, msg.sender);\r\n    lfo = _lfo;\r\n    auction = _auction;\r\n    accessControls = _accessControls;\r\n    frequencyControls = _frequencyControls;\r\n  }\r\n\r\n  /**\r\n   * @dev Called by artists, create new edition on the LFO platform\r\n   */\r\n  function createEdition(\r\n    bool _enableAuction,\r\n    uint256 _totalAvailable,\r\n    uint256 _priceInWei,\r\n    uint256 _artistCommission,\r\n    string memory _tokenUri\r\n  )\r\n  public\r\n  whenNotPaused\r\n  returns (uint256 _editionNumber)\r\n  {\r\n    require(frequencyControls.canCreateNewEdition(msg.sender), 'Sender currently frozen out of creation');\r\n    require(_artistCommission.add(lfCommission) <= 100, \"Total commission exceeds 100\");\r\n\r\n    uint256 editionNumber = _createEdition(\r\n      msg.sender,\r\n      _enableAuction,\r\n      [_totalAvailable, _priceInWei, _artistCommission],\r\n      _tokenUri\r\n    );\r\n\r\n\r\n    frequencyControls.recordSuccessfulMint(msg.sender, _totalAvailable, _priceInWei);\r\n\r\n    return editionNumber;\r\n  }\r\n\r\n\r\n  /**\r\n   * @dev Caller by owner, can create editions for other artists\r\n   * @dev Only callable from owner regardless of pause state\r\n   */\r\n  function createEditionFor(\r\n    address _artist,\r\n    bool _enableAuction,\r\n    uint256 _totalAvailable,\r\n    uint256 _priceInWei,\r\n    uint256 _artistCommission,\r\n    string memory _tokenUri\r\n  )\r\n  public\r\n  onlyWhitelisted\r\n  returns (uint256 _editionNumber)\r\n  {\r\n    require(_artistCommission.add(lfCommission) <= 100, \"Total commission exceeds 100\");\r\n\r\n    uint256 editionNumber = _createEdition(\r\n      _artist,\r\n      _enableAuction,\r\n      [_totalAvailable, _priceInWei, _artistCommission],\r\n      _tokenUri\r\n    );\r\n\r\n    frequencyControls.recordSuccessfulMint(_artist, _totalAvailable, _priceInWei);\r\n\r\n    return editionNumber;\r\n  }\r\n\r\n  /**\r\n   * @dev Internal function for edition creation\r\n   */\r\n  function _createEdition(\r\n    address _artist,\r\n    bool _enableAuction,\r\n    uint256[3] memory _params,\r\n    string memory _tokenUri\r\n  )\r\n  internal\r\n  returns (uint256 _editionNumber) {\r\n\r\n    uint256 _totalAvailable = _params[0];\r\n    uint256 _priceInWei = _params[1];\r\n\r\n    // Enforce edition size\r\n    require(hasRole(WHITELISTED, msg.sender) || (_totalAvailable > 0 && _totalAvailable <= maxEditionSize), \"Invalid edition size\");\r\n\r\n    // Enforce min price\r\n    require(hasRole(WHITELISTED, msg.sender) || _priceInWei >= minPricePerEdition, \"Invalid price\");\r\n\r\n    // If we are the owner, skip this artists check\r\n    require(hasRole(WHITELISTED, msg.sender) || accessControls.isEnabledForAccount(_artist), \"Not allowed to create edition\");\r\n\r\n    // Find the next edition number we can use\r\n    uint256 editionNumber = getNextAvailableEditionNumber();\r\n\r\n    require(\r\n      lfo.createActiveEdition(\r\n        editionNumber,\r\n        _artist,\r\n        _params[2], // _artistCommission - defaults to artistCommission if optional commission split missing\r\n        _priceInWei,\r\n        _tokenUri,\r\n        _totalAvailable\r\n      ),\r\n      \"Failed to create new edition\"\r\n    );\r\n\r\n    // Enable the auction if desired\r\n    if (_enableAuction) {\r\n      auction.setArtistsControlAddressAndEnabledEdition(editionNumber, _artist);\r\n    }\r\n\r\n    // Trigger event\r\n    emit SelfServiceEditionCreated(editionNumber, _artist, _priceInWei, _totalAvailable, _enableAuction);\r\n\r\n    return editionNumber;\r\n  }\r\n\r\n  /**\r\n   * @dev Internal function for dynamically generating the next LFO edition number\r\n   */\r\n  function getNextAvailableEditionNumber() internal returns (uint256 editionNumber) {\r\n    // Get current highest edition and total in the edition\r\n    uint256 highestEditionNumber = lfo.highestEditionNumber();\r\n\r\n    uint256 totalAvailableEdition = lfo.totalAvailableEdition(highestEditionNumber);\r\n\r\n    // Add the current highest plus its total, plus 1 as tokens start at 1 not zero\r\n    uint256 nextAvailableEditionNumber = highestEditionNumber.add(totalAvailableEdition).add(1);\r\n\r\n    // Round up to next 100, 1000 etc based on max allowed size\r\n    return ((nextAvailableEditionNumber + maxEditionSize - 1) / maxEditionSize) * maxEditionSize;\r\n  }\r\n\r\n  /**\r\n   * @dev Sets the LFO address\r\n   * @dev Only callable from owner\r\n   */\r\n  function setLFO(ISelfServiceEditionCuration _lfo) onlyWhitelisted public {\r\n    lfo = _lfo;\r\n  }\r\n\r\n  /**\r\n   * @dev Sets the auction contract address\r\n   * @dev Only callable from owner\r\n   */\r\n  function setAuction(ILFOAuction _auction) onlyWhitelisted public {\r\n    auction = _auction;\r\n  }\r\n\r\n  /**\r\n   * @dev Sets the default LF commission for each edition\r\n   * @dev Only callable from owner\r\n   */\r\n  function setLFCommission(uint256 _lfCommission) onlyWhitelisted public {\r\n    lfCommission = _lfCommission;\r\n  }\r\n\r\n  /**\r\n   * @dev Sets the max edition size\r\n   * @dev Only callable from owner\r\n   */\r\n  function setMaxEditionSize(uint256 _maxEditionSize) onlyWhitelisted public {\r\n    maxEditionSize = _maxEditionSize;\r\n  }\r\n\r\n  /**\r\n   * @dev Sets minimum price per edition\r\n   * @dev Only callable from owner\r\n   */\r\n  function setMinPricePerEdition(uint256 _minPricePerEdition) onlyWhitelisted public {\r\n    minPricePerEdition = _minPricePerEdition;\r\n  }\r\n\r\n  /**\r\n   * @dev Checks to see if the account is currently frozen out\r\n   */\r\n  function isFrozen(address account) public view returns (bool) {\r\n    return frequencyControls.canCreateNewEdition(account);\r\n  }\r\n\r\n  /**\r\n   * @dev Checks to see if the account can create editions\r\n   */\r\n  function isEnabledForAccount(address account) public view returns (bool) {\r\n    return accessControls.isEnabledForAccount(account);\r\n  }\r\n\r\n  /**\r\n   * @dev Checks to see if the account can create editions\r\n   */\r\n  function canCreateAnotherEdition(address account) public view returns (bool) {\r\n    if (!accessControls.isEnabledForAccount(account)) {\r\n      return false;\r\n    }\r\n    return frequencyControls.canCreateNewEdition(account);\r\n  }\r\n\r\n  /**\r\n   * @dev Allows for the ability to extract stuck ether\r\n   * @dev Only callable from owner\r\n   */\r\n  function withdrawStuckEther(address payable _withdrawalAccount) onlyWhitelisted public {\r\n    require(_withdrawalAccount != address(0), \"Invalid address provided\");\r\n    _withdrawalAccount.transfer(address(this).balance);\r\n  }\r\n}\r\n",
  "sourcePath": "/home/jp/devTruffle/lf/contracts/extras/SelfServiceEditionCuration.sol",
  "compiler": {
    "name": "solc",
    "version": "0.6.12+commit.27d51765.Emscripten.clang"
  },
  "schemaVersion": "3.2.5",
  "updatedAt": "2020-11-03T11:53:47.064Z",
  "networkType": "ethereum",
  "devdoc": {
    "kind": "dev",
    "methods": {
      "canCreateAnotherEdition(address)": {
        "details": "Checks to see if the account can create editions"
      },
      "constructor": {
        "details": "Construct a new instance of the contract"
      },
      "createEdition(bool,uint256,uint256,uint256,string)": {
        "details": "Called by artists, create new edition on the LFO platform"
      },
      "createEditionFor(address,bool,uint256,uint256,uint256,string)": {
        "details": "Caller by owner, can create editions for other artistsOnly callable from owner regardless of pause state"
      },
      "getRoleAdmin(bytes32)": {
        "details": "Returns the admin role that controls `role`. See {grantRole} and {revokeRole}. To change a role's admin, use {_setRoleAdmin}."
      },
      "getRoleMember(bytes32,uint256)": {
        "details": "Returns one of the accounts that have `role`. `index` must be a value between 0 and {getRoleMemberCount}, non-inclusive. Role bearers are not sorted in any particular way, and their ordering may change at any point. WARNING: When using {getRoleMember} and {getRoleMemberCount}, make sure you perform all queries on the same block. See the following https://forum.openzeppelin.com/t/iterating-over-elements-on-enumerableset-in-openzeppelin-contracts/2296[forum post] for more information."
      },
      "getRoleMemberCount(bytes32)": {
        "details": "Returns the number of accounts that have `role`. Can be used together with {getRoleMember} to enumerate all bearers of a role."
      },
      "grantRole(bytes32,address)": {
        "details": "Grants `role` to `account`. If `account` had not been already granted `role`, emits a {RoleGranted} event. Requirements: - the caller must have ``role``'s admin role."
      },
      "hasRole(bytes32,address)": {
        "details": "Returns `true` if `account` has been granted `role`."
      },
      "isEnabledForAccount(address)": {
        "details": "Checks to see if the account can create editions"
      },
      "isFrozen(address)": {
        "details": "Checks to see if the account is currently frozen out"
      },
      "paused()": {
        "details": "Returns true if the contract is paused, and false otherwise."
      },
      "renounceRole(bytes32,address)": {
        "details": "Revokes `role` from the calling account. Roles are often managed via {grantRole} and {revokeRole}: this function's purpose is to provide a mechanism for accounts to lose their privileges if they are compromised (such as when a trusted device is misplaced). If the calling account had been granted `role`, emits a {RoleRevoked} event. Requirements: - the caller must be `account`."
      },
      "revokeRole(bytes32,address)": {
        "details": "Revokes `role` from `account`. If `account` had been granted `role`, emits a {RoleRevoked} event. Requirements: - the caller must have ``role``'s admin role."
      },
      "setAuction(address)": {
        "details": "Sets the auction contract addressOnly callable from owner"
      },
      "setLFCommission(uint256)": {
        "details": "Sets the default LF commission for each editionOnly callable from owner"
      },
      "setLFO(address)": {
        "details": "Sets the LFO addressOnly callable from owner"
      },
      "setMaxEditionSize(uint256)": {
        "details": "Sets the max edition sizeOnly callable from owner"
      },
      "setMinPricePerEdition(uint256)": {
        "details": "Sets minimum price per editionOnly callable from owner"
      },
      "withdrawStuckEther(address)": {
        "details": "Allows for the ability to extract stuck etherOnly callable from owner"
      }
    },
    "version": 1
  },
  "userdoc": {
    "kind": "user",
    "methods": {},
    "version": 1
  }
}