{
  "contractName": "SelfServiceAccessControls",
  "abi": [
    {
      "anonymous": false,
      "inputs": [
        {
          "indexed": true,
          "internalType": "address",
          "name": "previousOwner",
          "type": "address"
        },
        {
          "indexed": true,
          "internalType": "address",
          "name": "newOwner",
          "type": "address"
        }
      ],
      "name": "OwnershipTransferred",
      "type": "event"
    },
    {
      "inputs": [
        {
          "internalType": "address",
          "name": "",
          "type": "address"
        }
      ],
      "name": "allowedArtists",
      "outputs": [
        {
          "internalType": "bool",
          "name": "",
          "type": "bool"
        }
      ],
      "stateMutability": "view",
      "type": "function",
      "constant": true
    },
    {
      "inputs": [],
      "name": "openToAllArtist",
      "outputs": [
        {
          "internalType": "bool",
          "name": "",
          "type": "bool"
        }
      ],
      "stateMutability": "view",
      "type": "function",
      "constant": true
    },
    {
      "inputs": [],
      "name": "owner",
      "outputs": [
        {
          "internalType": "address",
          "name": "",
          "type": "address"
        }
      ],
      "stateMutability": "view",
      "type": "function",
      "constant": true
    },
    {
      "inputs": [],
      "name": "renounceOwnership",
      "outputs": [],
      "stateMutability": "nonpayable",
      "type": "function"
    },
    {
      "inputs": [
        {
          "internalType": "address",
          "name": "newOwner",
          "type": "address"
        }
      ],
      "name": "transferOwnership",
      "outputs": [],
      "stateMutability": "nonpayable",
      "type": "function"
    },
    {
      "inputs": [
        {
          "internalType": "bool",
          "name": "_openToAllArtist",
          "type": "bool"
        }
      ],
      "name": "setOpenToAllArtist",
      "outputs": [],
      "stateMutability": "nonpayable",
      "type": "function"
    },
    {
      "inputs": [
        {
          "internalType": "address",
          "name": "_artist",
          "type": "address"
        },
        {
          "internalType": "bool",
          "name": "_allowed",
          "type": "bool"
        }
      ],
      "name": "setAllowedArtist",
      "outputs": [],
      "stateMutability": "nonpayable",
      "type": "function"
    },
    {
      "inputs": [
        {
          "internalType": "address",
          "name": "account",
          "type": "address"
        }
      ],
      "name": "isEnabledForAccount",
      "outputs": [
        {
          "internalType": "bool",
          "name": "",
          "type": "bool"
        }
      ],
      "stateMutability": "view",
      "type": "function",
      "constant": true
    },
    {
      "inputs": [
        {
          "internalType": "address payable",
          "name": "_withdrawalAccount",
          "type": "address"
        }
      ],
      "name": "withdrawStuckEther",
      "outputs": [],
      "stateMutability": "nonpayable",
      "type": "function"
    }
  ],
  "bytecode": "0x60806040526002805460ff1916905534801561001a57600080fd5b506000610025610074565b600080546001600160a01b0319166001600160a01b0383169081178255604051929350917f8be0079c531659141344cd1fd0a4f28419497f9722a3daafe3b4186f6b6457e0908290a350610078565b3390565b610621806100876000396000f3fe608060405234801561001057600080fd5b50600436106100935760003560e01c80638da5cb5b116100665780638da5cb5b14610128578063a2ed40881461014c578063df282d911461017a578063e29cda4814610199578063f2fde38b146101a157610093565b806326ccd77a146100985780632bd3152d146100c057806346f7c98a146100fa578063715018a614610120575b600080fd5b6100be600480360360208110156100ae57600080fd5b50356001600160a01b03166101c7565b005b6100e6600480360360208110156100d657600080fd5b50356001600160a01b03166102b3565b604080519115158252519081900360200190f35b6100e66004803603602081101561011057600080fd5b50356001600160a01b03166102ec565b6100be610301565b6101306103a3565b604080516001600160a01b039092168252519081900360200190f35b6100be6004803603604081101561016257600080fd5b506001600160a01b03813516906020013515156103b2565b6100be6004803603602081101561019057600080fd5b50351515610435565b6100e66104a0565b6100be600480360360208110156101b757600080fd5b50356001600160a01b03166104a9565b6101cf6105a1565b6000546001600160a01b0390811691161461021f576040805162461bcd60e51b815260206004820181905260248201526000805160206105cc833981519152604482015290519081900360640190fd5b6001600160a01b03811661027a576040805162461bcd60e51b815260206004820152601860248201527f496e76616c696420616464726573732070726f76696465640000000000000000604482015290519081900360640190fd5b6040516001600160a01b038216904780156108fc02916000818181858888f193505050501580156102af573d6000803e3d6000fd5b5050565b60025460009060ff16156102c9575060016102e7565b506001600160a01b03811660009081526001602052604090205460ff165b919050565b60016020526000908152604090205460ff1681565b6103096105a1565b6000546001600160a01b03908116911614610359576040805162461bcd60e51b815260206004820181905260248201526000805160206105cc833981519152604482015290519081900360640190fd5b600080546040516001600160a01b03909116907f8be0079c531659141344cd1fd0a4f28419497f9722a3daafe3b4186f6b6457e0908390a3600080546001600160a01b0319169055565b6000546001600160a01b031690565b6103ba6105a1565b6000546001600160a01b0390811691161461040a576040805162461bcd60e51b815260206004820181905260248201526000805160206105cc833981519152604482015290519081900360640190fd5b6001600160a01b03919091166000908152600160205260409020805460ff1916911515919091179055565b61043d6105a1565b6000546001600160a01b0390811691161461048d576040805162461bcd60e51b815260206004820181905260248201526000805160206105cc833981519152604482015290519081900360640190fd5b6002805460ff1916911515919091179055565b60025460ff1681565b6104b16105a1565b6000546001600160a01b03908116911614610501576040805162461bcd60e51b815260206004820181905260248201526000805160206105cc833981519152604482015290519081900360640190fd5b6001600160a01b0381166105465760405162461bcd60e51b81526004018080602001828103825260268152602001806105a66026913960400191505060405180910390fd5b600080546040516001600160a01b03808516939216917f8be0079c531659141344cd1fd0a4f28419497f9722a3daafe3b4186f6b6457e091a3600080546001600160a01b0319166001600160a01b0392909216919091179055565b339056fe4f776e61626c653a206e6577206f776e657220697320746865207a65726f20616464726573734f776e61626c653a2063616c6c6572206973206e6f7420746865206f776e6572a26469706673582212203fa659d24a9dbe4801ba0f2ef700915cffb8331c94b222e23f43bce72e8dac8464736f6c634300060c0033",
  "immutableReferences": {},
  "source": "// SPDX-License-Identifier: MIT\r\npragma solidity ^0.6.0;\r\n\r\n\r\nimport \"@openzeppelin/contracts/access/Ownable.sol\";\r\nimport \"../interfaces/ISelfServiceAccessControls.sol\";\r\n\r\ncontract SelfServiceAccessControls is Ownable, ISelfServiceAccessControls {\r\n\r\n  // Simple map to only allow certain artist create editions at first\r\n  mapping(address => bool) public allowedArtists;\r\n\r\n  // When true any existing KO artist can mint their own editions\r\n  bool public openToAllArtist = false;\r\n\r\n  /**\r\n   * @dev Controls is the contract is open to all\r\n   * @dev Only callable from owner\r\n   */\r\n  function setOpenToAllArtist(bool _openToAllArtist) onlyOwner public {\r\n    openToAllArtist = _openToAllArtist;\r\n  }\r\n\r\n  /**\r\n   * @dev Controls who can call this contract\r\n   * @dev Only callable from owner\r\n   */\r\n  function setAllowedArtist(address _artist, bool _allowed) onlyOwner public {\r\n    allowedArtists[_artist] = _allowed;\r\n  }\r\n\r\n  /**\r\n   * @dev Checks to see if the account can create editions\r\n   */\r\n  function isEnabledForAccount(address account) public override view returns (bool) {\r\n    if (openToAllArtist) {\r\n      return true;\r\n    }\r\n    return allowedArtists[account];\r\n  }\r\n\r\n  /**\r\n   * @dev Allows for the ability to extract stuck ether\r\n   * @dev Only callable from owner\r\n   */\r\n  function withdrawStuckEther(address payable _withdrawalAccount) onlyOwner public {\r\n    require(_withdrawalAccount != address(0), \"Invalid address provided\");\r\n    _withdrawalAccount.transfer(address(this).balance);\r\n  }\r\n}\r\n",
  "sourcePath": "/home/jp/devTruffle/lf/contracts/extras/SelfServiceAccessControl.sol",
  "compiler": {
    "name": "solc",
    "version": "0.6.12+commit.27d51765.Emscripten.clang"
  },
  "schemaVersion": "3.2.5",
  "updatedAt": "2020-11-03T11:53:47.071Z",
  "networkType": "ethereum",
  "devdoc": {
    "kind": "dev",
    "methods": {
      "isEnabledForAccount(address)": {
        "details": "Checks to see if the account can create editions"
      },
      "owner()": {
        "details": "Returns the address of the current owner."
      },
      "renounceOwnership()": {
        "details": "Leaves the contract without owner. It will not be possible to call `onlyOwner` functions anymore. Can only be called by the current owner. NOTE: Renouncing ownership will leave the contract without an owner, thereby removing any functionality that is only available to the owner."
      },
      "setAllowedArtist(address,bool)": {
        "details": "Controls who can call this contractOnly callable from owner"
      },
      "setOpenToAllArtist(bool)": {
        "details": "Controls is the contract is open to allOnly callable from owner"
      },
      "transferOwnership(address)": {
        "details": "Transfers ownership of the contract to a new account (`newOwner`). Can only be called by the current owner."
      },
      "withdrawStuckEther(address)": {
        "details": "Allows for the ability to extract stuck etherOnly callable from owner"
      }
    },
    "version": 1
  },
  "userdoc": {
    "kind": "user",
    "methods": {},
    "version": 1
  }
}