{
  "contractName": "TokenMarketplace",
  "abi": [
    {
      "inputs": [
        {
          "internalType": "contract ILFOtokenMarket",
          "name": "_lfoAddress",
          "type": "address"
        },
        {
          "internalType": "address payable",
          "name": "_lfCommissionAccount",
          "type": "address"
        }
      ],
      "stateMutability": "nonpayable",
      "type": "constructor"
    },
    {
      "anonymous": false,
      "inputs": [
        {
          "indexed": true,
          "internalType": "uint256",
          "name": "_tokenId",
          "type": "uint256"
        },
        {
          "indexed": true,
          "internalType": "address",
          "name": "_auctioneer",
          "type": "address"
        }
      ],
      "name": "AuctionDisabled",
      "type": "event"
    },
    {
      "anonymous": false,
      "inputs": [
        {
          "indexed": true,
          "internalType": "uint256",
          "name": "_tokenId",
          "type": "uint256"
        },
        {
          "indexed": true,
          "internalType": "address",
          "name": "_auctioneer",
          "type": "address"
        }
      ],
      "name": "AuctionEnabled",
      "type": "event"
    },
    {
      "anonymous": false,
      "inputs": [
        {
          "indexed": true,
          "internalType": "uint256",
          "name": "_tokenId",
          "type": "uint256"
        },
        {
          "indexed": true,
          "internalType": "address",
          "name": "_currentOwner",
          "type": "address"
        },
        {
          "indexed": true,
          "internalType": "address",
          "name": "_bidder",
          "type": "address"
        },
        {
          "indexed": false,
          "internalType": "uint256",
          "name": "_amount",
          "type": "uint256"
        }
      ],
      "name": "BidAccepted",
      "type": "event"
    },
    {
      "anonymous": false,
      "inputs": [
        {
          "indexed": true,
          "internalType": "uint256",
          "name": "_tokenId",
          "type": "uint256"
        },
        {
          "indexed": true,
          "internalType": "address",
          "name": "_currentOwner",
          "type": "address"
        },
        {
          "indexed": true,
          "internalType": "address",
          "name": "_bidder",
          "type": "address"
        },
        {
          "indexed": false,
          "internalType": "uint256",
          "name": "_amount",
          "type": "uint256"
        }
      ],
      "name": "BidPlaced",
      "type": "event"
    },
    {
      "anonymous": false,
      "inputs": [
        {
          "indexed": true,
          "internalType": "uint256",
          "name": "_tokenId",
          "type": "uint256"
        },
        {
          "indexed": true,
          "internalType": "address",
          "name": "_currentOwner",
          "type": "address"
        },
        {
          "indexed": true,
          "internalType": "address",
          "name": "_bidder",
          "type": "address"
        },
        {
          "indexed": false,
          "internalType": "uint256",
          "name": "_amount",
          "type": "uint256"
        }
      ],
      "name": "BidRejected",
      "type": "event"
    },
    {
      "anonymous": false,
      "inputs": [
        {
          "indexed": true,
          "internalType": "uint256",
          "name": "_tokenId",
          "type": "uint256"
        },
        {
          "indexed": true,
          "internalType": "address",
          "name": "_bidder",
          "type": "address"
        }
      ],
      "name": "BidWithdrawn",
      "type": "event"
    },
    {
      "anonymous": false,
      "inputs": [
        {
          "indexed": false,
          "internalType": "address",
          "name": "account",
          "type": "address"
        }
      ],
      "name": "Paused",
      "type": "event"
    },
    {
      "anonymous": false,
      "inputs": [
        {
          "indexed": true,
          "internalType": "bytes32",
          "name": "role",
          "type": "bytes32"
        },
        {
          "indexed": true,
          "internalType": "bytes32",
          "name": "previousAdminRole",
          "type": "bytes32"
        },
        {
          "indexed": true,
          "internalType": "bytes32",
          "name": "newAdminRole",
          "type": "bytes32"
        }
      ],
      "name": "RoleAdminChanged",
      "type": "event"
    },
    {
      "anonymous": false,
      "inputs": [
        {
          "indexed": true,
          "internalType": "bytes32",
          "name": "role",
          "type": "bytes32"
        },
        {
          "indexed": true,
          "internalType": "address",
          "name": "account",
          "type": "address"
        },
        {
          "indexed": true,
          "internalType": "address",
          "name": "sender",
          "type": "address"
        }
      ],
      "name": "RoleGranted",
      "type": "event"
    },
    {
      "anonymous": false,
      "inputs": [
        {
          "indexed": true,
          "internalType": "bytes32",
          "name": "role",
          "type": "bytes32"
        },
        {
          "indexed": true,
          "internalType": "address",
          "name": "account",
          "type": "address"
        },
        {
          "indexed": true,
          "internalType": "address",
          "name": "sender",
          "type": "address"
        }
      ],
      "name": "RoleRevoked",
      "type": "event"
    },
    {
      "anonymous": false,
      "inputs": [
        {
          "indexed": false,
          "internalType": "address",
          "name": "account",
          "type": "address"
        }
      ],
      "name": "Unpaused",
      "type": "event"
    },
    {
      "anonymous": false,
      "inputs": [
        {
          "indexed": false,
          "internalType": "uint256",
          "name": "_oldPercentage",
          "type": "uint256"
        },
        {
          "indexed": false,
          "internalType": "uint256",
          "name": "_newPercentage",
          "type": "uint256"
        }
      ],
      "name": "UpdatePlatformPercentageFee",
      "type": "event"
    },
    {
      "anonymous": false,
      "inputs": [
        {
          "indexed": false,
          "internalType": "uint256",
          "name": "_oldPercentage",
          "type": "uint256"
        },
        {
          "indexed": false,
          "internalType": "uint256",
          "name": "_newPercentage",
          "type": "uint256"
        }
      ],
      "name": "UpdateRoyaltyPercentageFee",
      "type": "event"
    },
    {
      "inputs": [],
      "name": "DEFAULT_ADMIN_ROLE",
      "outputs": [
        {
          "internalType": "bytes32",
          "name": "",
          "type": "bytes32"
        }
      ],
      "stateMutability": "view",
      "type": "function",
      "constant": true
    },
    {
      "inputs": [],
      "name": "WHITELISTED",
      "outputs": [
        {
          "internalType": "bytes32",
          "name": "",
          "type": "bytes32"
        }
      ],
      "stateMutability": "view",
      "type": "function",
      "constant": true
    },
    {
      "inputs": [],
      "name": "artistRoyaltyPercentage",
      "outputs": [
        {
          "internalType": "uint256",
          "name": "",
          "type": "uint256"
        }
      ],
      "stateMutability": "view",
      "type": "function",
      "constant": true
    },
    {
      "inputs": [
        {
          "internalType": "bytes32",
          "name": "role",
          "type": "bytes32"
        }
      ],
      "name": "getRoleAdmin",
      "outputs": [
        {
          "internalType": "bytes32",
          "name": "",
          "type": "bytes32"
        }
      ],
      "stateMutability": "view",
      "type": "function",
      "constant": true
    },
    {
      "inputs": [
        {
          "internalType": "bytes32",
          "name": "role",
          "type": "bytes32"
        },
        {
          "internalType": "uint256",
          "name": "index",
          "type": "uint256"
        }
      ],
      "name": "getRoleMember",
      "outputs": [
        {
          "internalType": "address",
          "name": "",
          "type": "address"
        }
      ],
      "stateMutability": "view",
      "type": "function",
      "constant": true
    },
    {
      "inputs": [
        {
          "internalType": "bytes32",
          "name": "role",
          "type": "bytes32"
        }
      ],
      "name": "getRoleMemberCount",
      "outputs": [
        {
          "internalType": "uint256",
          "name": "",
          "type": "uint256"
        }
      ],
      "stateMutability": "view",
      "type": "function",
      "constant": true
    },
    {
      "inputs": [
        {
          "internalType": "bytes32",
          "name": "role",
          "type": "bytes32"
        },
        {
          "internalType": "address",
          "name": "account",
          "type": "address"
        }
      ],
      "name": "grantRole",
      "outputs": [],
      "stateMutability": "nonpayable",
      "type": "function"
    },
    {
      "inputs": [
        {
          "internalType": "bytes32",
          "name": "role",
          "type": "bytes32"
        },
        {
          "internalType": "address",
          "name": "account",
          "type": "address"
        }
      ],
      "name": "hasRole",
      "outputs": [
        {
          "internalType": "bool",
          "name": "",
          "type": "bool"
        }
      ],
      "stateMutability": "view",
      "type": "function",
      "constant": true
    },
    {
      "inputs": [],
      "name": "lfCommissionAccount",
      "outputs": [
        {
          "internalType": "address payable",
          "name": "",
          "type": "address"
        }
      ],
      "stateMutability": "view",
      "type": "function",
      "constant": true
    },
    {
      "inputs": [],
      "name": "lfoAddress",
      "outputs": [
        {
          "internalType": "contract ILFOtokenMarket",
          "name": "",
          "type": "address"
        }
      ],
      "stateMutability": "view",
      "type": "function",
      "constant": true
    },
    {
      "inputs": [],
      "name": "minBidAmount",
      "outputs": [
        {
          "internalType": "uint256",
          "name": "",
          "type": "uint256"
        }
      ],
      "stateMutability": "view",
      "type": "function",
      "constant": true
    },
    {
      "inputs": [],
      "name": "paused",
      "outputs": [
        {
          "internalType": "bool",
          "name": "",
          "type": "bool"
        }
      ],
      "stateMutability": "view",
      "type": "function",
      "constant": true
    },
    {
      "inputs": [],
      "name": "platformFeePercentage",
      "outputs": [
        {
          "internalType": "uint256",
          "name": "",
          "type": "uint256"
        }
      ],
      "stateMutability": "view",
      "type": "function",
      "constant": true
    },
    {
      "inputs": [
        {
          "internalType": "bytes32",
          "name": "role",
          "type": "bytes32"
        },
        {
          "internalType": "address",
          "name": "account",
          "type": "address"
        }
      ],
      "name": "renounceRole",
      "outputs": [],
      "stateMutability": "nonpayable",
      "type": "function"
    },
    {
      "inputs": [
        {
          "internalType": "bytes32",
          "name": "role",
          "type": "bytes32"
        },
        {
          "internalType": "address",
          "name": "account",
          "type": "address"
        }
      ],
      "name": "revokeRole",
      "outputs": [],
      "stateMutability": "nonpayable",
      "type": "function"
    },
    {
      "inputs": [
        {
          "internalType": "uint256",
          "name": "_tokenId",
          "type": "uint256"
        }
      ],
      "name": "placeBid",
      "outputs": [
        {
          "internalType": "bool",
          "name": "success",
          "type": "bool"
        }
      ],
      "stateMutability": "payable",
      "type": "function",
      "payable": true
    },
    {
      "inputs": [
        {
          "internalType": "uint256",
          "name": "_tokenId",
          "type": "uint256"
        }
      ],
      "name": "withdrawBid",
      "outputs": [
        {
          "internalType": "bool",
          "name": "success",
          "type": "bool"
        }
      ],
      "stateMutability": "nonpayable",
      "type": "function"
    },
    {
      "inputs": [
        {
          "internalType": "uint256",
          "name": "_tokenId",
          "type": "uint256"
        }
      ],
      "name": "rejectBid",
      "outputs": [
        {
          "internalType": "bool",
          "name": "success",
          "type": "bool"
        }
      ],
      "stateMutability": "nonpayable",
      "type": "function"
    },
    {
      "inputs": [
        {
          "internalType": "uint256",
          "name": "_tokenId",
          "type": "uint256"
        }
      ],
      "name": "acceptBid",
      "outputs": [
        {
          "internalType": "uint256",
          "name": "tokenId",
          "type": "uint256"
        }
      ],
      "stateMutability": "nonpayable",
      "type": "function"
    },
    {
      "inputs": [
        {
          "internalType": "uint256",
          "name": "_tokenId",
          "type": "uint256"
        }
      ],
      "name": "tokenOffer",
      "outputs": [
        {
          "internalType": "address payable",
          "name": "_bidder",
          "type": "address"
        },
        {
          "internalType": "uint256",
          "name": "_offer",
          "type": "uint256"
        },
        {
          "internalType": "address payable",
          "name": "_owner",
          "type": "address"
        },
        {
          "internalType": "bool",
          "name": "_enabled",
          "type": "bool"
        },
        {
          "internalType": "bool",
          "name": "_paused",
          "type": "bool"
        }
      ],
      "stateMutability": "view",
      "type": "function",
      "constant": true
    },
    {
      "inputs": [
        {
          "internalType": "uint256",
          "name": "_tokenId",
          "type": "uint256"
        }
      ],
      "name": "determineSaleValues",
      "outputs": [
        {
          "internalType": "uint256",
          "name": "_sellerTotal",
          "type": "uint256"
        },
        {
          "internalType": "uint256",
          "name": "_platformFee",
          "type": "uint256"
        },
        {
          "internalType": "uint256",
          "name": "_royaltyFee",
          "type": "uint256"
        }
      ],
      "stateMutability": "view",
      "type": "function",
      "constant": true
    },
    {
      "inputs": [
        {
          "internalType": "uint256",
          "name": "_tokenId",
          "type": "uint256"
        }
      ],
      "name": "disableAuction",
      "outputs": [
        {
          "internalType": "bool",
          "name": "success",
          "type": "bool"
        }
      ],
      "stateMutability": "nonpayable",
      "type": "function"
    },
    {
      "inputs": [
        {
          "internalType": "uint256",
          "name": "_tokenId",
          "type": "uint256"
        }
      ],
      "name": "enableAuction",
      "outputs": [
        {
          "internalType": "bool",
          "name": "success",
          "type": "bool"
        }
      ],
      "stateMutability": "nonpayable",
      "type": "function"
    },
    {
      "inputs": [
        {
          "internalType": "uint256",
          "name": "_minBidAmount",
          "type": "uint256"
        }
      ],
      "name": "setMinBidAmount",
      "outputs": [],
      "stateMutability": "nonpayable",
      "type": "function"
    },
    {
      "inputs": [
        {
          "internalType": "contract ILFOtokenMarket",
          "name": "_lfoAddress",
          "type": "address"
        }
      ],
      "name": "setLFO",
      "outputs": [],
      "stateMutability": "nonpayable",
      "type": "function"
    },
    {
      "inputs": [
        {
          "internalType": "address payable",
          "name": "_lfCommissionAccount",
          "type": "address"
        }
      ],
      "name": "setLFCommissionAccount",
      "outputs": [],
      "stateMutability": "nonpayable",
      "type": "function"
    },
    {
      "inputs": [
        {
          "internalType": "uint256",
          "name": "_artistRoyaltyPercentage",
          "type": "uint256"
        }
      ],
      "name": "setArtistRoyaltyPercentage",
      "outputs": [],
      "stateMutability": "nonpayable",
      "type": "function"
    },
    {
      "inputs": [
        {
          "internalType": "uint256",
          "name": "_platformFeePercentage",
          "type": "uint256"
        }
      ],
      "name": "setPlatformPercentage",
      "outputs": [],
      "stateMutability": "nonpayable",
      "type": "function"
    }
  ],
  "bytecode": "0x6080604052668e1bc9bf0400006002556032600555601e6006553480156200002657600080fd5b50604051620022f4380380620022f4833981810160405260408110156200004c57600080fd5b5080516020909101516001805460ff19169055600380546001600160a01b038085166001600160a01b03199283161790925560048054928416929091169190911790556200009c600033620000d0565b620000c87fe799c73ff785ac053943f5d98452f7fa0bcf54da67826fc217d6094dec75c5ee33620000d0565b5050620001e4565b620000dc8282620000e0565b5050565b600082815260208181526040909120620001059183906200189362000159821b17901c565b15620000dc576200011562000179565b6001600160a01b0316816001600160a01b0316837f2f8788117e7eff1d82e926ec794901d17c78024a50270940304540a733656f0d60405160405180910390a45050565b600062000170836001600160a01b0384166200017d565b90505b92915050565b3390565b60006200018b8383620001cc565b620001c35750815460018181018455600084815260208082209093018490558454848252828601909352604090209190915562000173565b50600062000173565b60009081526001919091016020526040902054151590565b61210080620001f46000396000f3fe6080604052600436106101b75760003560e01c80636e3341b3116100ec578063bb435c8d1161008a578063cc9ce6ef11610064578063cc9ce6ef146105fb578063cdd78cfc1461062e578063d547741f14610643578063e2d78fcd1461067c576101b7565b8063bb435c8d14610592578063bbaf2c47146105bc578063ca15c873146105d1576101b7565b806391d14854116100c657806391d14854146104fd5780639841ee39146105365780639979ef4514610560578063a217fddf1461057d576101b7565b80636e3341b3146104215780638795dcff1461044b5780639010d07c146104b1576101b7565b80632f2ff15d11610159578063497517881161013357806349751788146103af5780635c06d0e0146103c45780635c975abb146103d95780636c056b43146103ee576101b7565b80632f2ff15d1461031357806336568abe1461034c578063417fd6b614610385576101b7565b806314d39bad1161019557806314d39bad1461024b578063248a9ca31461027757806326aa5942146102a15780632b1fd58a146102e9576101b7565b80630872ef6e146101bc5780630b71f116146101fa5780630eaaf4c814610221575b600080fd5b3480156101c857600080fd5b506101e6600480360360208110156101df57600080fd5b5035610691565b604080519115158252519081900360200190f35b34801561020657600080fd5b5061020f6107d2565b60408051918252519081900360200190f35b34801561022d57600080fd5b506101e66004803603602081101561024457600080fd5b50356107e4565b34801561025757600080fd5b506102756004803603602081101561026e57600080fd5b503561098e565b005b34801561028357600080fd5b5061020f6004803603602081101561029a57600080fd5b50356109f1565b3480156102ad57600080fd5b506102cb600480360360208110156102c457600080fd5b5035610a06565b60408051938452602084019290925282820152519081900360600190f35b3480156102f557600080fd5b5061020f6004803603602081101561030c57600080fd5b5035610aaf565b34801561031f57600080fd5b506102756004803603604081101561033657600080fd5b50803590602001356001600160a01b0316610e11565b34801561035857600080fd5b506102756004803603604081101561036f57600080fd5b50803590602001356001600160a01b0316610e7d565b34801561039157600080fd5b50610275600480360360208110156103a857600080fd5b5035610ede565b3480156103bb57600080fd5b5061020f610f04565b3480156103d057600080fd5b5061020f610f0a565b3480156103e557600080fd5b506101e6610f10565b3480156103fa57600080fd5b506102756004803603602081101561041157600080fd5b50356001600160a01b0316610f19565b34801561042d57600080fd5b506101e66004803603602081101561044457600080fd5b5035610f5c565b34801561045757600080fd5b506104756004803603602081101561046e57600080fd5b50356111c1565b604080516001600160a01b0396871681526020810195909552929094168383015215156060830152911515608082015290519081900360a00190f35b3480156104bd57600080fd5b506104e1600480360360408110156104d457600080fd5b50803590602001356112a4565b604080516001600160a01b039092168252519081900360200190f35b34801561050957600080fd5b506101e66004803603604081101561052057600080fd5b50803590602001356001600160a01b03166112c5565b34801561054257600080fd5b506102756004803603602081101561055957600080fd5b50356112dd565b6101e66004803603602081101561057657600080fd5b5035611340565b34801561058957600080fd5b5061020f611626565b34801561059e57600080fd5b506101e6600480360360208110156105b557600080fd5b503561162b565b3480156105c857600080fd5b506104e161176f565b3480156105dd57600080fd5b5061020f600480360360208110156105f457600080fd5b503561177e565b34801561060757600080fd5b506102756004803603602081101561061e57600080fd5b50356001600160a01b0316611795565b34801561063a57600080fd5b5061020f611825565b34801561064f57600080fd5b506102756004803603604081101561066657600080fd5b50803590602001356001600160a01b031661182b565b34801561068857600080fd5b506104e1611884565b600354604080516331a9108f60e11b8152600481018490529051600092849284926001600160a01b0390921691636352211e91602480820192602092909190829003018186803b1580156106e457600080fd5b505afa1580156106f8573d6000803e3d6000fd5b505050506040513d602081101561070e57600080fd5b505190506001600160a01b03811633148061073c575061073c60008051602061205b833981519152336112c5565b61077f576040805162461bcd60e51b815260206004820152600f60248201526e2737ba103a37b5b2b71037bbb732b960891b604482015290519081900360640190fd5b610788846118a8565b600084815260086020526040808220805460ff1916905551339186917fdeb115d202a55795fb5e47cee9ce6c0bd792a016a2d1251f937b1bb24e92332e9190a35060019392505050565b60008051602061205b83398151915281565b60015460009060ff1615610832576040805162461bcd60e51b815260206004820152601060248201526f14185d5cd8589b194e881c185d5cd95960821b604482015290519081900360640190fd5b6003546040805162491fcf60e11b815260048101859052905184926001600160a01b03169162923f9e916024808301926020929190829003018186803b15801561087b57600080fd5b505afa15801561088f573d6000803e3d6000fd5b505050506040513d60208110156108a557600080fd5b50516108ef576040805162461bcd60e51b8152602060048201526014602482015273151bdad95b88191bd95cc81b9bdd08195e1a5cdd60621b604482015290519081900360640190fd5b60008381526007602052604090205483906001600160a01b0316331461094e576040805162461bcd60e51b815260206004820152600f60248201526e2737ba1037b33332b91036b0b5b2b960891b604482015290519081900360640190fd5b610957846118a8565b604051339085907f5e9c7ae3229b2cda5065d7058fcc05765c695c29ce05313fbe96cb2ca639231a90600090a35060019392505050565b6109a660008051602061205b833981519152336112c5565b6109af57600080fd5b600654604080519182526020820183905280517feacf709830352fe1a96d6837caea6476163d682a42a64eb621b34d9b901b50009281900390910190a1600655565b60009081526020819052604090206002015490565b6000806000610a13611fc2565b506000848152600760209081526040808320815180830190925280546001600160a01b0316825260010154918101829052600654909290610a6090610a5a846103e861193a565b9061197c565b90506000610a7f600554610a5a6103e88661193a90919063ffffffff16565b9050610aa281610a9c8487602001516119d590919063ffffffff16565b906119d5565b9891975095509350505050565b60015460009060ff1615610afd576040805162461bcd60e51b815260206004820152601060248201526f14185d5cd8589b194e881c185d5cd95960821b604482015290519081900360640190fd5b600354604080516331a9108f60e11b815260048101859052905184926000926001600160a01b0390911691636352211e91602480820192602092909190829003018186803b158015610b4e57600080fd5b505afa158015610b62573d6000803e3d6000fd5b505050506040513d6020811015610b7857600080fd5b505190506001600160a01b0381163314610bcb576040805162461bcd60e51b815260206004820152600f60248201526e2737ba103a37b5b2b71037bbb732b960891b604482015290519081900360640190fd5b600354604080516331a9108f60e11b81526004810187905290516000926001600160a01b031691636352211e916024808301926020929190829003018186803b158015610c1757600080fd5b505afa158015610c2b573d6000803e3d6000fd5b505050506040513d6020811015610c4157600080fd5b505160008681526007602052604090206001015490915080610c9a576040805162461bcd60e51b815260206004820152600d60248201526c27379037b33332b91037b832b760991b604482015290519081900360640190fd5b600086815260076020908152604080832080546001600160a01b0319811682556001909101849055600354825163824eec3b60e01b8152600481018c905292516001600160a01b039283169594919092169263824eec3b9260248083019392829003018186803b158015610d0d57600080fd5b505afa158015610d21573d6000803e3d6000fd5b505050506040513d6020811015610d3757600080fd5b50519050610d46818486611a17565b60035460408051632142170760e11b81523360048201526001600160a01b038581166024830152604482018c9052915191909216916342842e0e91606480830192600092919082900301818387803b158015610da157600080fd5b505af1158015610db5573d6000803e3d6000fd5b50505050816001600160a01b0316846001600160a01b0316897fe6d56779a392535d3a591e92b65ba36f2ecc424bbf5220d0176a7da29385b504866040518082815260200191505060405180910390a450959695505050505050565b600082815260208190526040902060020154610e3490610e2f611aae565b6112c5565b610e6f5760405162461bcd60e51b815260040180806020018281038252602f815260200180611ffc602f913960400191505060405180910390fd5b610e798282611ab2565b5050565b610e85611aae565b6001600160a01b0316816001600160a01b031614610ed45760405162461bcd60e51b815260040180806020018281038252602f81526020018061209c602f913960400191505060405180910390fd5b610e798282611b1b565b610ef660008051602061205b833981519152336112c5565b610eff57600080fd5b600255565b60025481565b60055481565b60015460ff1690565b610f3160008051602061205b833981519152336112c5565b610f3a57600080fd5b600380546001600160a01b0319166001600160a01b0392909216919091179055565b60015460009060ff1615610faa576040805162461bcd60e51b815260206004820152601060248201526f14185d5cd8589b194e881c185d5cd95960821b604482015290519081900360640190fd5b600354604080516331a9108f60e11b815260048101859052905184926000926001600160a01b0390911691636352211e91602480820192602092909190829003018186803b158015610ffb57600080fd5b505afa15801561100f573d6000803e3d6000fd5b505050506040513d602081101561102557600080fd5b505190506001600160a01b0381163314611078576040805162461bcd60e51b815260206004820152600f60248201526e2737ba103a37b5b2b71037bbb732b960891b604482015290519081900360640190fd5b600354604080516331a9108f60e11b81526004810187905290516000926001600160a01b031691636352211e916024808301926020929190829003018186803b1580156110c457600080fd5b505afa1580156110d8573d6000803e3d6000fd5b505050506040513d60208110156110ee57600080fd5b505160008681526007602052604090206001015490915080611147576040805162461bcd60e51b815260206004820152600d60248201526c27379037b33332b91037b832b760991b604482015290519081900360640190fd5b6000868152600760205260409020546001600160a01b0316611168876118a8565b806001600160a01b0316836001600160a01b0316887f6d699e170cc72516120ba19fe48e744504798d1afc2ffb65ff1154a6f4fa4d15856040518082815260200191505060405180910390a45060019695505050505050565b60008060008060006111d1611fc2565b506000868152600760209081526040918290208251808401845281546001600160a01b0390811680835260019093015482850181905260035486516331a9108f60e11b8152600481018e90529651939694959194921692636352211e926024808201939291829003018186803b15801561124a57600080fd5b505afa15801561125e573d6000803e3d6000fd5b505050506040513d602081101561127457600080fd5b505160008a81526008602052604090205460ff1615611291610f10565b939b929a50909850965090945092505050565b60008281526020819052604081206112bc9083611b84565b90505b92915050565b60008281526020819052604081206112bc9083611b90565b6112f560008051602061205b833981519152336112c5565b6112fe57600080fd5b600554604080519182526020820183905280517f3d843ef224be86afeee7f914f0fa9ddae84d6d9df67ca5edcb781900ee88bff49281900390910190a1600555565b60015460009060ff161561138e576040805162461bcd60e51b815260206004820152601060248201526f14185d5cd8589b194e881c185d5cd95960821b604482015290519081900360640190fd5b6003546040805162491fcf60e11b815260048101859052905184926001600160a01b03169162923f9e916024808301926020929190829003018186803b1580156113d757600080fd5b505afa1580156113eb573d6000803e3d6000fd5b505050506040513d602081101561140157600080fd5b505161144b576040805162461bcd60e51b8152602060048201526014602482015273151bdad95b88191bd95cc81b9bdd08195e1a5cdd60621b604482015290519081900360640190fd5b600254600084815260076020526040902060010154849161146c9190611ba5565b3410156114b3576040805162461bcd60e51b815260206004820152601060248201526f09ecccccae440dcdee840cadcdeeaced60831b604482015290519081900360640190fd5b600084815260086020526040902054849060ff1615611519576040805162461bcd60e51b815260206004820152601c60248201527f546f6b656e206e6f7420656e61626c656420666f72206f666665727300000000604482015290519081900360640190fd5b611522856118a8565b604080518082018252338152346020808301918252600089815260078252848120935184546001600160a01b0319166001600160a01b03918216178555925160019094019390935560035484516331a9108f60e11b8152600481018b905294519394921692636352211e926024808201939291829003018186803b1580156115a957600080fd5b505afa1580156115bd573d6000803e3d6000fd5b505050506040513d60208110156115d357600080fd5b505160408051348152905191925033916001600160a01b0384169189917f3d87e1d02e187b9fe1095bc12567b7485b6cf54c47eea3dc9b5fd64d03cb67509181900360200190a450600195945050505050565b600081565b600354604080516331a9108f60e11b8152600481018490529051600092849284926001600160a01b0390921691636352211e91602480820192602092909190829003018186803b15801561167e57600080fd5b505afa158015611692573d6000803e3d6000fd5b505050506040513d60208110156116a857600080fd5b505190506001600160a01b0381163314806116d657506116d660008051602061205b833981519152336112c5565b611719576040805162461bcd60e51b815260206004820152600f60248201526e2737ba103a37b5b2b71037bbb732b960891b604482015290519081900360640190fd5b611722846118a8565b600084815260086020526040808220805460ff1916600117905551339186917fe0c56951f00a75f5139f9af608a2ae603fe7c340a8f4b4b3125e9a7018041b609190a35060019392505050565b6003546001600160a01b031681565b60008181526020819052604081206112bf90611bff565b6117ad60008051602061205b833981519152336112c5565b6117b657600080fd5b6001600160a01b038116611803576040805162461bcd60e51b815260206004820152600f60248201526e496e76616c6964206164647265737360881b604482015290519081900360640190fd5b600480546001600160a01b0319166001600160a01b0392909216919091179055565b60065481565b60008281526020819052604090206002015461184990610e2f611aae565b610ed45760405162461bcd60e51b815260040180806020018281038252603081526020018061202b6030913960400191505060405180910390fd5b6004546001600160a01b031681565b60006112bc836001600160a01b038416611c0a565b600081815260076020526040902080546001909101546001600160a01b039091169081158015906118d95750600081115b156119355760008381526007602052604080822080546001600160a01b0319168155600101829055516001600160a01b0384169183156108fc02918491818181858888f19350505050158015611933573d6000803e3d6000fd5b505b505050565b60006112bc83836040518060400160405280601a81526020017f536166654d6174683a206469766973696f6e206279207a65726f000000000000815250611c54565b60008261198b575060006112bf565b8282028284828161199857fe5b04146112bc5760405162461bcd60e51b815260040180806020018281038252602181526020018061207b6021913960400191505060405180910390fd5b60006112bc83836040518060400160405280601e81526020017f536166654d6174683a207375627472616374696f6e206f766572666c6f770000815250611cf6565b6003546040805163065fb08f60e31b815260048101869052815160009384936001600160a01b03909116926332fd84789260248083019392829003018186803b158015611a6357600080fd5b505afa158015611a77573d6000803e3d6000fd5b505050506040513d6040811015611a8d57600080fd5b5080516020909101519092509050611aa782828686611d50565b5050505050565b3390565b6000828152602081905260409020611aca9082611893565b15610e7957611ad7611aae565b6001600160a01b0316816001600160a01b0316837f2f8788117e7eff1d82e926ec794901d17c78024a50270940304540a733656f0d60405160405180910390a45050565b6000828152602081905260409020611b339082611e67565b15610e7957611b40611aae565b6001600160a01b0316816001600160a01b0316837ff6391f5c32d9c69d2a47ea670b442974b53935d1edc7fd64eb21e047a839171b60405160405180910390a45050565b60006112bc8383611e7c565b60006112bc836001600160a01b038416611ee0565b6000828201838110156112bc576040805162461bcd60e51b815260206004820152601b60248201527f536166654d6174683a206164646974696f6e206f766572666c6f770000000000604482015290519081900360640190fd5b60006112bf82611ef8565b6000611c168383611ee0565b611c4c575081546001818101845560008481526020808220909301849055845484825282860190935260409020919091556112bf565b5060006112bf565b60008183611ce05760405162461bcd60e51b81526004018080602001828103825283818151815260200191508051906020019080838360005b83811015611ca5578181015183820152602001611c8d565b50505050905090810190601f168015611cd25780820380516001836020036101000a031916815260200191505b509250505060405180910390fd5b506000838581611cec57fe5b0495945050505050565b60008184841115611d485760405162461bcd60e51b8152602060048201818152835160248401528351909283926044909101919085019080838360008315611ca5578181015183820152602001611c8d565b505050900390565b6000611d69600554600654611ba590919063ffffffff16565b90506000611d87611d8083610a5a876103e861193a565b85906119d5565b6040519091506001600160a01b0384169082156108fc029083906000818181858888f19350505050158015611dc0573d6000803e3d6000fd5b50600654600090611dd790610a5a876103e861193a565b6004546040519192506001600160a01b03169082156108fc029083906000818181858888f19350505050158015611e12573d6000803e3d6000fd5b506000611e2383610a9c88856119d5565b6040519091506001600160a01b0389169082156108fc029083906000818181858888f19350505050158015611e5c573d6000803e3d6000fd5b505050505050505050565b60006112bc836001600160a01b038416611efc565b81546000908210611ebe5760405162461bcd60e51b8152600401808060200182810382526022815260200180611fda6022913960400191505060405180910390fd5b826000018281548110611ecd57fe5b9060005260206000200154905092915050565b60009081526001919091016020526040902054151590565b5490565b60008181526001830160205260408120548015611fb85783546000198083019190810190600090879083908110611f2f57fe5b9060005260206000200154905080876000018481548110611f4c57fe5b600091825260208083209091019290925582815260018981019092526040902090840190558654879080611f7c57fe5b600190038181906000526020600020016000905590558660010160008781526020019081526020016000206000905560019450505050506112bf565b60009150506112bf565b60408051808201909152600080825260208201529056fe456e756d657261626c655365743a20696e646578206f7574206f6620626f756e6473416363657373436f6e74726f6c3a2073656e646572206d75737420626520616e2061646d696e20746f206772616e74416363657373436f6e74726f6c3a2073656e646572206d75737420626520616e2061646d696e20746f207265766f6b65e799c73ff785ac053943f5d98452f7fa0bcf54da67826fc217d6094dec75c5ee536166654d6174683a206d756c7469706c69636174696f6e206f766572666c6f77416363657373436f6e74726f6c3a2063616e206f6e6c792072656e6f756e636520726f6c657320666f722073656c66a2646970667358221220cfd13ef4f3bfe126cfdcb2c7b04fe50bb40a55ae9cb896dcd70f8f5e4a12cac464736f6c634300060c0033",
  "immutableReferences": {},
  "source": "// SPDX-License-Identifier: MIT\r\n\r\n\r\npragma solidity ^0.6.0;\r\n\r\nimport \"@openzeppelin/contracts/access/AccessControl.sol\";\r\nimport \"@openzeppelin/contracts/utils/Pausable.sol\";\r\nimport \"@openzeppelin/contracts/math/SafeMath.sol\";\r\nimport \"../interfaces/ITokenMarketplace.sol\";\r\n\r\ninterface ILFOtokenMarket {\r\n  function ownerOf(uint256 _tokenId) external view returns (address payable _owner);\r\n\r\n  function tokenExists(uint256 _tokenId) external view returns (bool _exists);\r\n\r\n  function editionOfTokenId(uint256 _tokenId) external view returns (uint256 tokenId);\r\n\r\n  function artistCommission(uint256 _tokenId) external view returns (address payable _artistAccount, uint256 _artistCommission);\r\n\r\n  function safeTransferFrom(address _from, address _to, uint256 _tokenId) external;\r\n}\r\n\r\ncontract TokenMarketplace is AccessControl, Pausable, ITokenMarketplace {\r\n  using SafeMath for uint256;\r\n\r\n  event UpdatePlatformPercentageFee(uint256 _oldPercentage, uint256 _newPercentage);\r\n  event UpdateRoyaltyPercentageFee(uint256 _oldPercentage, uint256 _newPercentage);\r\n\r\n  struct Offer {\r\n    address payable bidder;\r\n    uint256 offer;\r\n  }\r\n\r\n  bytes32 public constant WHITELISTED = keccak256(\"WHITELISTED\");\r\n\r\n  // Min increase in bid amount\r\n  uint256 public minBidAmount = 0.04 ether;\r\n\r\n  // Interface into the LFO world\r\n  ILFOtokenMarket public lfoAddress;\r\n\r\n  // LF account which can receive commission\r\n  address payable public lfCommissionAccount;\r\n\r\n  uint256 public artistRoyaltyPercentage = 50;\r\n  uint256 public platformFeePercentage = 30;\r\n\r\n  // Token ID to Offer mapping\r\n  mapping(uint256 => Offer) offers;\r\n\r\n  // Explicitly disable sales for specific tokens\r\n  mapping(uint256 => bool) disabledTokens;\r\n\r\n  ///////////////\r\n  // Modifiers //\r\n  ///////////////\r\n\r\n  modifier onlyWhenOfferOwner(uint256 _tokenId) {\r\n    require(offers[_tokenId].bidder == msg.sender, \"Not offer maker\");\r\n    _;\r\n  }\r\n\r\n  modifier onlyWhenTokenExists(uint256 _tokenId) {\r\n    require(lfoAddress.tokenExists(_tokenId), \"Token does not exist\");\r\n    _;\r\n  }\r\n\r\n  modifier onlyWhenBidOverMinAmount(uint256 _tokenId) {\r\n    require(msg.value >= offers[_tokenId].offer.add(minBidAmount), \"Offer not enough\");\r\n    _;\r\n  }\r\n\r\n  modifier onlyWhenTokenAuctionEnabled(uint256 _tokenId) {\r\n    require(!disabledTokens[_tokenId], \"Token not enabled for offers\");\r\n    _;\r\n  }\r\n\r\n  modifier onlyWhitelisted {\r\n      require(hasRole(WHITELISTED, msg.sender));\r\n      _;\r\n  }\r\n\r\n  modifier onlyOwnerOrWhitelisted(uint256 _tokenId) {\r\n      address currentOwner = lfoAddress.ownerOf(_tokenId);\r\n      require((currentOwner == msg.sender || hasRole(WHITELISTED, msg.sender)), \"Not token owner\");\r\n      _;\r\n  }\r\n\r\n  modifier onlyOwner(uint256 _tokenId) {\r\n      address currentOwner = lfoAddress.ownerOf(_tokenId);\r\n      require(currentOwner == msg.sender, \"Not token owner\");\r\n      _;\r\n  }\r\n\r\n  /////////////////\r\n  // Constructor //\r\n  /////////////////\r\n\r\n  // Set the caller as the default LF account\r\n  constructor(ILFOtokenMarket _lfoAddress, address payable _lfCommissionAccount) public {\r\n    lfoAddress = _lfoAddress;\r\n    lfCommissionAccount = _lfCommissionAccount;\r\n    _setupRole(DEFAULT_ADMIN_ROLE, msg.sender);\r\n    _setupRole(WHITELISTED, msg.sender);\r\n\r\n  }\r\n\r\n  //////////////////\r\n  // User Actions //\r\n  //////////////////\r\n\r\n  function placeBid(uint256 _tokenId)\r\n  public\r\n  override\r\n  payable\r\n  whenNotPaused\r\n  onlyWhenTokenExists(_tokenId)\r\n  onlyWhenBidOverMinAmount(_tokenId)\r\n  onlyWhenTokenAuctionEnabled(_tokenId)\r\n  returns (bool success)\r\n  {\r\n    _refundHighestBidder(_tokenId);\r\n\r\n    offers[_tokenId] = Offer(msg.sender, msg.value);\r\n\r\n    address currentOwner = lfoAddress.ownerOf(_tokenId);\r\n\r\n    emit BidPlaced(_tokenId, currentOwner, msg.sender, msg.value);\r\n\r\n    return true;\r\n  }\r\n\r\n  function withdrawBid(uint256 _tokenId)\r\n  public\r\n  override\r\n  whenNotPaused\r\n  onlyWhenTokenExists(_tokenId)\r\n  onlyWhenOfferOwner(_tokenId)\r\n  returns (bool success)\r\n  {\r\n    _refundHighestBidder(_tokenId);\r\n\r\n    emit BidWithdrawn(_tokenId, msg.sender);\r\n    return true;\r\n  }\r\n\r\n  function rejectBid(uint256 _tokenId)\r\n  public\r\n  override\r\n  whenNotPaused\r\n  onlyOwner(_tokenId)\r\n  returns (bool success)\r\n  {\r\n    address currentOwner = lfoAddress.ownerOf(_tokenId);\r\n\r\n    uint256 currentHighestBiddersAmount = offers[_tokenId].offer;\r\n    require(currentHighestBiddersAmount > 0, \"No offer open\");\r\n\r\n    address currentHighestBidder = offers[_tokenId].bidder;\r\n\r\n    _refundHighestBidder(_tokenId);\r\n\r\n    emit BidRejected(_tokenId, currentOwner, currentHighestBidder, currentHighestBiddersAmount);\r\n\r\n    return true;\r\n  }\r\n\r\n  function acceptBid(uint256 _tokenId)\r\n  public\r\n  override\r\n  whenNotPaused\r\n  onlyOwner(_tokenId)\r\n  returns (uint256 tokenId)\r\n  {\r\n    address payable currentOwner = lfoAddress.ownerOf(_tokenId);\r\n\r\n    uint256 winningOffer = offers[_tokenId].offer;\r\n    require(winningOffer > 0, \"No offer open\");\r\n\r\n    address winningBidder = offers[_tokenId].bidder;\r\n\r\n    delete offers[_tokenId];\r\n\r\n    // Get edition no.\r\n    uint256 editionNumber = lfoAddress.editionOfTokenId(_tokenId);\r\n\r\n    _handleFunds(editionNumber, winningOffer, currentOwner);\r\n\r\n    lfoAddress.safeTransferFrom(msg.sender, winningBidder, _tokenId);\r\n\r\n    emit BidAccepted(_tokenId, currentOwner, winningBidder, winningOffer);\r\n    return(_tokenId);\r\n  }\r\n\r\n  function _refundHighestBidder(uint256 _tokenId) internal {\r\n    // Get current highest bidder\r\n    address payable currentHighestBidder = offers[_tokenId].bidder;\r\n\r\n    // Get current highest bid amount\r\n    uint256 currentHighestBiddersAmount = offers[_tokenId].offer;\r\n\r\n    if (currentHighestBidder != address(0) && currentHighestBiddersAmount > 0) {\r\n\r\n      // Clear out highest bidder\r\n      delete offers[_tokenId];\r\n\r\n      // Refund it\r\n      currentHighestBidder.transfer(currentHighestBiddersAmount);\r\n    }\r\n  }\r\n\r\n  function _handleFunds(uint256 _editionNumber, uint256 _offer, address payable _currentOwner) internal {\r\n\r\n    // Get existing artist commission\r\n    (address payable artistAccount, uint256 artistCommissionRate) = lfoAddress.artistCommission(_editionNumber);\r\n\r\n    _splitFunds(artistAccount, artistCommissionRate, _offer, _currentOwner);\r\n  }\r\n\r\n  function _splitFunds(\r\n    address payable _artistAccount,\r\n    uint256 ,\r\n    uint256 _offer,\r\n    address payable _currentOwner\r\n  ) internal {\r\n\r\n    // Work out total % of royalties to payout = creator royalties + LF commission\r\n    uint256 totalCommissionPercentageToPay = platformFeePercentage.add(artistRoyaltyPercentage);\r\n\r\n    // Send current owner majority share of the offer\r\n    uint256 totalToSendToOwner = _offer.sub(\r\n      _offer.div(1000).mul(totalCommissionPercentageToPay)\r\n    );\r\n    _currentOwner.transfer(totalToSendToOwner);\r\n\r\n    // Send % to LF\r\n    uint256 lfCommission = _offer.div(1000).mul(platformFeePercentage);\r\n    lfCommissionAccount.transfer(lfCommission);\r\n\r\n    // Send to seller minus royalties and commission\r\n    uint256 remainingRoyalties = _offer.sub(lfCommission).sub(totalToSendToOwner);\r\n\r\n    _artistAccount.transfer(remainingRoyalties);\r\n  }\r\n\r\n  ///////////////////\r\n  // Query Methods //\r\n  ///////////////////\r\n\r\n  function tokenOffer(uint256 _tokenId) external view returns (address payable _bidder, uint256 _offer, address payable _owner, bool _enabled, bool _paused) {\r\n    Offer memory offer = offers[_tokenId];\r\n    return (\r\n    offer.bidder,\r\n    offer.offer,\r\n    lfoAddress.ownerOf(_tokenId),\r\n    !disabledTokens[_tokenId],\r\n    paused()\r\n    );\r\n  }\r\n\r\n  function determineSaleValues(uint256 _tokenId) external view returns (uint256 _sellerTotal, uint256 _platformFee, uint256 _royaltyFee) {\r\n    Offer memory offer = offers[_tokenId];\r\n    uint256 offerValue = offer.offer;\r\n    uint256 fee = offerValue.div(1000).mul(platformFeePercentage);\r\n    uint256 royalties = offerValue.div(1000).mul(artistRoyaltyPercentage);\r\n\r\n    return (\r\n    offer.offer.sub(fee).sub(royalties),\r\n    fee,\r\n    royalties\r\n    );\r\n  }\r\n\r\n  ///////////////////\r\n  // Admin Actions //\r\n  ///////////////////\r\n\r\n  function disableAuction(uint256 _tokenId)\r\n  public\r\n  override\r\n  onlyOwnerOrWhitelisted(_tokenId)\r\n  returns (bool success)\r\n  {\r\n    _refundHighestBidder(_tokenId);\r\n\r\n    disabledTokens[_tokenId] = true;\r\n\r\n    emit AuctionDisabled(_tokenId, msg.sender);\r\n    return true;\r\n\r\n  }\r\n\r\n\r\n  function enableAuction(uint256 _tokenId)\r\n  public\r\n  override\r\n  onlyOwnerOrWhitelisted(_tokenId)\r\n  returns (bool success)\r\n  {\r\n    _refundHighestBidder(_tokenId);\r\n\r\n    disabledTokens[_tokenId] = false;\r\n\r\n    emit AuctionEnabled(_tokenId, msg.sender);\r\n    return true;\r\n  }\r\n\r\n  function setMinBidAmount(uint256 _minBidAmount) onlyWhitelisted public {\r\n    minBidAmount = _minBidAmount;\r\n  }\r\n\r\n  function setLFO(ILFOtokenMarket _lfoAddress) onlyWhitelisted public {\r\n    lfoAddress = _lfoAddress;\r\n  }\r\n\r\n  function setLFCommissionAccount(address payable _lfCommissionAccount) public onlyWhitelisted {\r\n    require(_lfCommissionAccount != address(0), \"Invalid address\");\r\n    lfCommissionAccount = _lfCommissionAccount;\r\n  }\r\n\r\n  function setArtistRoyaltyPercentage(uint256 _artistRoyaltyPercentage) public onlyWhitelisted {\r\n    emit UpdateRoyaltyPercentageFee(artistRoyaltyPercentage, _artistRoyaltyPercentage);\r\n    artistRoyaltyPercentage = _artistRoyaltyPercentage;\r\n  }\r\n\r\n  function setPlatformPercentage(uint256 _platformFeePercentage) public onlyWhitelisted {\r\n    emit UpdatePlatformPercentageFee(platformFeePercentage, _platformFeePercentage);\r\n    platformFeePercentage = _platformFeePercentage;\r\n  }\r\n}\r\n",
  "sourcePath": "/home/jp/devTruffle/lf/contracts/extras/TokenMarketplace.sol",
  "compiler": {
    "name": "solc",
    "version": "0.6.12+commit.27d51765.Emscripten.clang"
  },
  "schemaVersion": "3.2.5",
  "updatedAt": "2020-11-03T11:53:47.855Z",
  "networkType": "ethereum",
  "devdoc": {
    "kind": "dev",
    "methods": {
      "getRoleAdmin(bytes32)": {
        "details": "Returns the admin role that controls `role`. See {grantRole} and {revokeRole}. To change a role's admin, use {_setRoleAdmin}."
      },
      "getRoleMember(bytes32,uint256)": {
        "details": "Returns one of the accounts that have `role`. `index` must be a value between 0 and {getRoleMemberCount}, non-inclusive. Role bearers are not sorted in any particular way, and their ordering may change at any point. WARNING: When using {getRoleMember} and {getRoleMemberCount}, make sure you perform all queries on the same block. See the following https://forum.openzeppelin.com/t/iterating-over-elements-on-enumerableset-in-openzeppelin-contracts/2296[forum post] for more information."
      },
      "getRoleMemberCount(bytes32)": {
        "details": "Returns the number of accounts that have `role`. Can be used together with {getRoleMember} to enumerate all bearers of a role."
      },
      "grantRole(bytes32,address)": {
        "details": "Grants `role` to `account`. If `account` had not been already granted `role`, emits a {RoleGranted} event. Requirements: - the caller must have ``role``'s admin role."
      },
      "hasRole(bytes32,address)": {
        "details": "Returns `true` if `account` has been granted `role`."
      },
      "paused()": {
        "details": "Returns true if the contract is paused, and false otherwise."
      },
      "renounceRole(bytes32,address)": {
        "details": "Revokes `role` from the calling account. Roles are often managed via {grantRole} and {revokeRole}: this function's purpose is to provide a mechanism for accounts to lose their privileges if they are compromised (such as when a trusted device is misplaced). If the calling account had been granted `role`, emits a {RoleRevoked} event. Requirements: - the caller must be `account`."
      },
      "revokeRole(bytes32,address)": {
        "details": "Revokes `role` from `account`. If `account` had been granted `role`, emits a {RoleRevoked} event. Requirements: - the caller must have ``role``'s admin role."
      }
    },
    "version": 1
  },
  "userdoc": {
    "kind": "user",
    "methods": {},
    "version": 1
  }
}